:020000040800F2
:100000000000012011420008153B0008193B0008C0
:100010001D3B0008213B0008253B000800000000B4
:10002000000000000000000000000000293B000864
:100030002D3B000800000000313B0008353B000864
:100040005942000859420008594200085942000824
:100050005942000859420008594200085942000814
:100060005942000859420008594200085942000804
:1000700059420008594200085942000859420008F4
:10008000594200085942000859420008393B00080B
:10009000453B0008594200085942000859420008EF
:1000A00059420008513B00085942000859420008D3
:1000B00059420008713B0008913B00085942000872
:1000C00059420008594200085942000859420008A4
:1000D00059420008B13B0008594200085942000843
:1000E0005942000859420008594200080000000027
:1000F0000000000000000000000000000000000000
:1001000000000000000000005942000859420008A9
:100110005942000859420008594200085942000853
:100120005942000859420008594200085942000843
:100130005942000859420008594200085942000833
:100140005942000859420008594200085942000823
:10015000000000000000000000000000000000009F
:10016000000000000000000000000000000000008F
:10017000000000000000000000000000000000007F
:10018000000000000000000000000000000000006F
:10019000000000000000000000000000000000005F
:1001A000000000000000000000000000000000004F
:1001B000000000000000000000000000000000003F
:1001C000000000000000000000000000000000002F
:1001D000000000000000000000000000000000001F
:0401E0005FF8E0F1F3
:1001E40010B5054C237833B9044B13B10448AFF36D
:1001F40000800123237010BDB8000020000000001F
:100204001892000808B5034B1BB103490348AFF328
:10021400008008BD00000000BC0000201892000807
:100224004FF0FF0C1CEAD0521EBF1CEAD15392EAD5
:100234000C0F93EA0C0F6FD01A4480EA010C4002B1
:1002440018BF5FEA41211ED04FF0006343EA50100B
:1002540043EA5111A0FB01310CF00040B1F5000F4D
:100264003EBF490041EAD3715B0040EA010062F1FC
:100274007F02FD2A1DD8B3F1004F40EBC25008BFE6
:1002840020F00100704790F0000F0CF0004C08BF04
:1002940049024CEA502040EA51207F3AC2BFD2F1D1
:1002A400FF0340EAC250704740F400004FF00003DF
:1002B400013A5DDC12F1190FDCBF00F00040704719
:1002C400C2F10002410021FA02F1C2F1200200FA57
:1002D40002FC5FEA310040F1000053EA4C0308BF1E
:1002E40020EADC70704792F0000F00F0004C02BF6F
:1002F400400010F4000F013AF9D040EA0C0093F0EA
:10030400000F01F0004C02BF490011F4000F013B43
:10031400F9D041EA0C018FE70CEAD15392EA0C0FB1
:1003240018BF93EA0C0F0AD030F0004C18BF31F01C
:10033400004CD8D180EA010000F00040704790F0F2
:10034400000F17BF90F0004F084691F0000F91F096
:10035400004F14D092EA0C0F01D142020FD193EA5C
:100364000C0F03D14B0218BF084608D180EA0100E4
:1003740000F0004040F0FE4040F40000704740F0C0
:10038400FE4040F44000704780F0004002E000BFAF
:1003940081F0004142001FBF5FEA410392EA030F6C
:1003A4007FEA226C7FEA236C6AD04FEA1262D2EBB6
:1003B4001363C1BFD218414048404140B8BF5B42BB
:1003C400192B88BF704710F0004F40F4000020F054
:1003D4007F4018BF404211F0004F41F4000121F06A
:1003E4007F4118BF494292EA030F3FD0A2F10102B4
:1003F40041FA03FC10EB0C00C3F1200301FA03F1F2
:1004040000F0004302D5494260EB4000B0F5000F14
:1004140013D3B0F1807F06D340084FEA310102F1D3
:100424000102FE2A51D2B1F1004F40EBC25008BF85
:1004340020F0010040EA03007047490040EB00004F
:10044400013A28BFB0F5000FEDD2B0FA80FCACF150
:10045400080CB2EB0C0200FA0CF0AABF00EBC2507D
:1004640052421843BCBFD0401843704792F0000F6B
:1004740081F4000106BF80F400000132013BB5E7BE
:100484004FEA41037FEA226C18BF7FEA236C21D034
:1004940092EA030F04D092F0000F08BF0846704799
:1004A40090EA010F1CBF0020704712F07F4F04D167
:1004B400400028BF40F00040704712F100723CBF7A
:1004C40000F50000704700F0004343F0FE4040F4A4
:1004D400000070477FEA226216BF08467FEA236362
:1004E4000146420206BF5FEA412390EA010F40F44D
:1004F400800070474FF0000304E000BF10F0004399
:1005040048BF40425FEA000C08BF704743F096437F
:1005140001464FF000001CE050EA010208BF70479A
:100524004FF000030AE000BF50EA010208BF704721
:1005340011F0004302D5404261EB41015FEA010C36
:1005440002BF84460146002043F0B64308BFA3F12E
:100554008053A3F50003BCFA8CF2083AA3EBC25310
:1005640010DB01FA02FC634400FA02FCC2F120022F
:10057400BCF1004F20FA02F243EB020008BF20F066
:100584000100704702F1200201FA02FCC2F12002CC
:1005940050EA4C0021FA02F243EB020008BF20EAC1
:1005A400DC7070474FEA4002B2F1FE4F0FD34FF0B8
:1005B4009E03B3EB12620DD94FEA002343F00043CC
:1005C40010F0004F23FA02F018BF404270474FF07A
:1005D4000000704712F1610F01D1420205D110F001
:1005E400004008BF6FF0004070474FF000007047B4
:1005F4007BB972B90029BEBF00204FF0004106E06C
:1006040008BF00281CBF6FF000414FF0FF3000F01E
:10061400B9B9ADF1080C6DE904CE002909DB002B52
:100624001ADB00F04DF8DDF804E0DDE9022304B044
:100634007047404261EB4101002B1BDB00F040F8A6
:10064400DDF804E0DDE9022304B0404261EB41013E
:10065400524263EB43037047524263EB430300F09F
:100664002FF8DDF804E0DDE9022304B0404261EB39
:1006740041017047524263EB430300F021F8DDF877
:1006840004E0DDE9022304B0524263EB4303704704
:1006940053B94AB9002908BF00281CBF4FF0FF31E5
:1006A4004FF0FF3000F06EB9ADF1080C6DE904CEE7
:1006B40000F006F8DDF804E0DDE9022304B0704739
:1006C4002DE9F047089E0D4604468E46002B40F067
:1006D40083808A42174647D9B2FA82F34BB1C3F1F9
:1006E400200105FA03FE20FA01F19F4041EA0E0EB3
:1006F4009C404FEA1748BEFBF8FC1FFA87F908FB39
:100704001CE20CFB09F0210C41EA024290420AD996
:10071400BA180CF1FF3180F01881904240F2158133
:10072400ACF1020C3A44121AB2FBF8F008FB1022A6
:1007340000FB09F1A4B244EA0244A14209D93C19DC
:1007440000F1FF3280F00381A14240F200810238BF
:100754003C44641A002140EA0C401EB10022DC40F3
:10076400C6E90042BDE8F08702B9FFDEB2FA82F3BF
:10077400002B4FD18D1A01214FEA124E1FFA82F835
:10078400B5FBFEFC0EFB1C5508FB0CF0220C42EAE8
:100794000545A84207D97D190CF1FF3202D2A842BF
:1007A40000F2E98094462D1AB5FBFEF00EFB1055BD
:1007B40008FB00F8A4B244EA0544A04507D93C1953
:1007C40000F1FF3202D2A04500F2D9801046A4EB1A
:1007D400080440EA0C40C0E78B4208D9002E00F020
:1007E400B1800021C6E900050846BDE8F087B3FAE8
:1007F40083F100294BD1AB4202D3824200F2B9808B
:10080400841A65EB030301209E46002EAAD0C6E994
:10081400004EA7E79F40C3F12002D1404FEA174E94
:10082400B1FBFEF01FFA87F80EFB101124FA02F256
:100834009D4000FB08FC2A43150C45EA0145AC45E4
:1008440004FA03F409D97D1900F1FF3180F08F8097
:10085400AC4540F28C8002383D44A5EB0C05B5FB59
:10086400FEF10EFB115C01FB08F995B245EA0C455B
:10087400A94507D97D1901F1FF3274D2A94572D96E
:1008840002393D44A5EB090541EA004178E7C1F18D
:1008940020078B4022FA07FC4CEA030C25FA07F4E4
:1008A4004FEA1C4EB4FBFEF91FFA8CF80EFB1944F8
:1008B40020FA07F309FB08FA8D401D432B0C43EA89
:1008C4000444A24502FA01F200FA01F309D91CEB2F
:1008D400040409F1FF3048D2A24546D9A9F102091E
:1008E4006444A4EB0A04B4FBFEF00EFB104400FBCA
:1008F40008FAADB245EA0444A24508D91CEB040445
:1009040000F1FF352DD2A2452BD90238644440EAC8
:100914000940A0FB0289A4EB0A044C45C6464D4697
:1009240019D316D05EB1B3EB0E0264EB050404FADE
:1009340007F722FA01F31F43CC40C6E900740021F3
:10094400BDE8F087314630460CE78C46EBE61046AE
:10095400FFE64345E6D2B8EB020E69EB0C0501381D
:10096400E0E72846D3E711468CE78146B9E7084615
:1009740073E7084649E7ACF1020C3D4413E702383B
:100984003C4424E7704700BF034B93F8793003B924
:100994007047012000F0CABA94430020082815D8F3
:1009A40001290BD070B504461548462100EB84009C
:1009B40006F0C4FC0128054609D070BD0023114986
:1009C400114AC1E90033C2E90033704770470E4E43
:1009D4002046315D05F030FF0A4A135D3BB9335DB3
:1009E4000133DBB20C2B3355E7D9155570BD335D9C
:1009F400013BDBB23355002BDFD1135570BD00BF73
:100A0400DC000020D4000020FC0000200022034B66
:100A140003495A709A705960704700BF040100205E
:100A2400E512000800F00ABB0122024B58701A704C
:100A3400704700BF0C0100202DE9F8431C4D2B78B2
:100A4400012B01D0BDE8F88300234FF026081C4693
:100A5400184F194E2B7001E0082CF3D06B785FFA15
:100A640084F903EBC303234407EB430393F82120E6
:100A7400012108FB02620A234846213206F0C6FB24
:100A84006B7803EBC303234407EB430393F8213050
:100A9400013408FB036393F820100029DCD0484696
:100AA40006F046FA48460E227C2106F04BFBD3E7BB
:100AB4000C010020B42C002090020020F8B5002581
:100AC4002F46124EECB201222046032106F8017F84
:100AD40005F010FF2046002106F060FE204610229B
:100AE400202106F02FFB204611224F2106F02AFB7D
:100AF40020461222462106F025FB0135204613220A
:100B0400462106F01FFB082DDCD1F8BD0F010020A3
:100B1400082804D8012903D00022034B1A54704733
:100B2400014B1954704700BF1001002008289ABFD8
:100B3400014B185CFF20704710010020262110B4DF
:100B44002E4A2F4B54782F4A04EBC40403EB44037E
:100B540093F8214001FB042494F82040844240D0BF
:100B640093F8234001FB042494F8204084423AD0B3
:100B740093F8254001FB042494F82040844234D0A7
:100B840093F8274001FB042494F8204084422ED09B
:100B940093F8294001FB042494F82040844228D08F
:100BA40093F82B4001FB042494F82040844222D083
:100BB40093F82D4001FB042494F8204084420CD087
:100BC40093F82F3001FB032292F82030834208BFB0
:100BD400072003D0FF2010BC70470620C0B210BC11
:100BE40070470020FAE70120F8E70220F6E7032027
:100BF400F4E70420F2E70520F0E700BF0C01002031
:100C0400B42C0020900200202DE9F04F684E0024FF
:100C1400684FDFF8AC91DFF8AC8189B006F10905C3
:100C24000EE096F8A810012900D00721E0B20134A3
:100C340005F010FE082C05F1040507F110072BD070
:100C440016F8013F002BECD04FF0260A5A4B5B7884
:100C540003EBC303234408EB430393F821300AFB5B
:100C6400039393F8203053B1AA6BBB689A4216D011
:100C7400142105F1A80006F061FB012858D03221A7
:100C8400284606F05BFB0128CFD00134082C05F17F
:100C9400040507F11007D3D109B0BDE8F08F96F829
:100CA4002830012BEBD1E3B218460521079305F058
:100CB400D1FD4FF0000C404B00215B7886F828C032
:100CC40003EBC303234408EB430393F821E000231D
:100CD4004FF0000C4FF0000B0AFB0E9EBEF82C00E8
:100CE400BEF82E20DFF8E0A0CDE90401CDE9002311
:100CF4000AEB440ABEF830200023BAF83000002181
:100D0400CDE902BC02F028F80146DDF81CB089B236
:100D1400584606F043FD5846BAF8301006F03AF942
:100D240003F0DCFAC5F8A80003F0D8FA2860A6E7B7
:100D340096F88030012B2BD0002BF5D15FFA84FA82
:100D44005046062105F086FD1F20262100231A4A5D
:100D5400D7F808C05278009002EBC202224408EB94
:100D6400420292F8212001FB029191F820001FFA1F
:100D74008CF1CDE90101114A194618461278C5F8DB
:100D840038C006F057FE5046B96806F003F9CBE7C1
:100D9400D5F88020BB68A2F1C8019942AB63C3DCDB
:100DA400C8329A42C0DB002386F88030C6E700BF11
:100DB4000F010020104300200C0100209069002046
:100DC40090020020B42C0020100100202DE9F04FE7
:100DD400494E0024DFF830A1DFF83091DFF830818C
:100DE40087B006F1090529E0262798F8013003EBBE
:100DF400C303234409EB430393F8213007FB03A304
:100E040093F820307BB13D4AAB6D52F824104FEA81
:100E1400840BB3EBD14F21D0142105F1A80006F0C7
:100E24008DFA01283AD03221284606F087FA0128A3
:100E340008D00134082C05F104050CD016F8013F44
:100E4400002BD1D1E0B20721013405F003FD082CB9
:100E540005F10405F2D107B0BDE8F08F96F828300B
:100E6400012BE0D15FFA84FB5846052105F0F2FC22
:100E74000023234F86F8283007EB44075846398E61
:100E840006F08CFC398E584606F084F803F026FAF6
:100E9400C5F8A80003F022FA2860C4E7E3B21846B4
:100EA4000621059305F0D6FC1F20002398F80110B5
:100EB400124A5BF802C001EBC102224409EB420270
:100EC40092F821204FEADC4C07FB02A797F8201088
:100ED4000C4ACDE9011C0090194618461278C5F851
:100EE40058C006F0A7FD0598A96D06F053F803F065
:100EF400F5F9286097E700BF0F0100206069002022
:100F0400100100209069002090020020B42C0020E1
:100F14000C010020044B5B7823B1062B01D1FFF7B1
:100F240055BF7047FFF770BE04010020062806D89D
:100F3400034B5A78824202D00122D8701A7070474B
:100F440004010020054B9A78062A05D85978914265
:100F540002D00121DA701970704700BF040100202B
:100F640070B52D4E3378012B00D070BD0025F37879
:100F74003570062BF9D872787370B27005F0B4FF2F
:100F8400ECB2204606F0BCF92046072105F062FCCD
:100F94002046002105F0A0FC2046002105F04CFC71
:100FA40020460122002105F0A5FC0122204611461D
:100FB40005F0A0FC012220460221154405F09AFC0C
:100FC40020460122032105F095FC082DD8D1737821
:100FD400062B1DD8DFE803F01613100D0A070400D2
:100FE4000E4B736070BD0E4B736070BD0D4B736020
:100FF40070BD0D4B736070BD0C4B736070BD0C4BBA
:10100400736070BD01210B4A0B4B1170736070BD8E
:10101400094B736070BD00BF04010020C5270008A0
:1010240001200008491E0008011C0008BD14000826
:10103400E51300080C010020E5120008094B10B567
:101044005B689847FFF78CFF074B1A7842B1002280
:1010540014461A70E0B2013406F052F9082CF9D1A2
:1010640010BD00BF04010020000000202DE9F04F56
:1010740000244FF026093D4DDFF800813C4F3D4EE2
:10108400DFF8FCB087B008E0012B04BF00232B700D
:101094000134082C05F101053ED07378C4EBC40279
:1010A40003EBC303234407EB430393F8213009FB09
:1010B400038393F82030002BEAD01BF822A02B786E
:1010C400BAF1010FE0D1002BE2D10493E3B2184648
:1010D400039385F800A0FFF729FD0128049B1ED087
:1010E4000398FFF723FD03460028D1D14FF01F0CCE
:1010F4007278514602EBC202224407EB420292F894
:10110400212009FB028292F82020CDE900C21A4A6C
:10111400127806F0B3FCBBE707B0BDE8F08FDDF84A
:101124000CA0194605905046FFF7F2FC059A50466C
:10113400032105F0DFFB049B5046194606F02EFB05
:1011440050461022202105F0FDFF504611224F2168
:1011540005F0F8FF50461222462105F0F3FF5046F1
:101164001322462105F0EEFF92E700BFE0010020C4
:10117400B42C00200C010020906900209002002073
:10118400DF440020082800F29D8026222DE9F04F3C
:101194004D4F4E4D7B784E4E03EBC303034405EB9A
:1011A400430393F82130824602FB03631A8EDB8DDE
:1011B4000C469A4289B079D88A427BD88B4279D33B
:1011C4004FF0000BDFF81481504608EB0A090121A7
:1011D40089F8A8B0FFF79CFC5A465046032105F055
:1011E40089FB7B78002203EBC303534405EB4303E1
:1011F40093F821C00023CDE902232623002103FB19
:101204000C6C0023BCF82C00BCF82E20CDE90401A2
:10121400CDE900232046BCF830200023002101F052
:101224009BFD01464FF0010CCA040AF1100E294837
:1012340048F82E200AF10A0E40F82E200AF1220E58
:1012440048F82E402624244B504603EB0A13C3E9E6
:10125400012289B289F880C007924FF0000906F094
:101264009DFA7B78002703EBC303534405EB430546
:1012740095F82110079A04FB0166B48DB6F82E8008
:10128400E404368EE5171046002300225946CDE9C2
:101294000045CDE90489CDE9026701F05DFD014611
:1012A400504609B0BDE8F04F05F074BE8B4201D83A
:1012B4008A4285D20123094882448AF8A83009B0B9
:1012C400BDE8F08F704700BF0C010020B42C002053
:1012D40090020020386900201043002010010020F3
:1012E4002DE9F84F364B1A78012A42D00025354EA5
:1012F4002F46354CDFF8D480DFF8D49015E0022B6C
:1013040021D02178E8B2377505F096FAB4F90030A7
:1013140059F82330C8F80C300135082D06F11806A9
:1013240004F1020408F1100816D0337D002BF3D029
:10133400012BE4D1218801310BB20C2B89B208DDD9
:101344000D212180DEE7218801390BB2002B89B2FF
:101354000CDB2380C9B2D5E7FFF788FEFFF7DAFD7F
:10136400FFF712FBBDE8F84FFFF766BB00212780AB
:10137400C8E7002214461646144DDFF858A0DFF8DB
:101384005890DFF85880DFF848B01A70E7B2A968BF
:10139400384605F0FFFDDBF800303846EB600021ED
:1013A40001342AF8026F05F047FA082C05F11005FC
:1013B40009F8016F08F8016FE8D1FFF77FFB95E7A3
:1013C40001000020A4450020E80100201043002073
:1013D40004000020E60100200F010020DF010020AE
:1013E40038B5314C2178012927D0304B93F8792036
:1013F400EAB1DB6FB3F52F7F0ED3B3F57A7F35D324
:1014040040F2135293423CD9B3F5C86F23D340F250
:101414006B72934240D938BD0221072005F05CFA73
:10142400BDE838400F222E21072005F08BBE012392
:101434002370BDE83840FFF785BD00250823072049
:101444001B4A257005F0E2FE052302210720194AF4
:1014540005F0DCFEC9E70821072005F03DFABDE8E8
:10146400384012222E21072005F06CBE04210720EB
:1014740005F032FABDE8384010222E21072005F08D
:1014840061BE0621072005F027FABDE83840112285
:101494002E21072005F056BE012302202370BDE84B
:1014A4003840FFF743BD00BF3C00002094430020B8
:1014B4004892000850920008F8B55C4D2C78012C35
:1014C40059D05B4B93F8792052BB0122594C2270BE
:1014D4001E7A012E00F084801E7E012E00F09F8073
:1014E40093F82860012E00F0938093F83820012AA5
:1014F4003CD093F84820012A38D093F85820012A88
:1015040034D093F86820012A30D093F87860012E03
:101514000AD10520FFF70AFD00232E70237003E093
:10152400444C2278002AD3D14FF4FA71424805F092
:1015340005FF0128044600D0F8BD404B187880F020
:1015440001021A70002852D00021084605F074F9EF
:101554002046002105F070F90021022005F06CF905
:10156400BDE8F8400021072005F066B901220023F8
:101574002A702370D8E70026314F304621460523D0
:10158400304A2E703C7005F041FE3046072302219C
:101594002D4A05F03BFE2146204605232B4A05F043
:1015A40035FE204607230221274A05F02FFE214657
:1015B40006230220264A05F029FE022108230846B4
:1015C400244A05F023FE072321461846224A05F043
:1015D4001DFE0823022107201E4A05F017FE70E7AE
:1015E4000320FFF7A3FC00232E7023709CE70D213A
:1015F40005F022F920460D2105F01EF90D210220E7
:1016040005F01AF9BDE8F8400D21072005F014B9DA
:101614000620FFF78BFC00232E70237084E7042040
:10162400FFF784FC00232E7023707DE73D0000202B
:1016340094430020F8010020FC0100200002002057
:101644000100002058920008609200086892000887
:101654007092000848920008789200082DE9F84F2B
:1016640000244FF02608244E244FDFF89890DFF82A
:1016740098B01DE0284605F05BFC32780A2308FB8D
:10168400027201212846213205F0C0FD0E227C2180
:10169400284605F057FD284699F8001005F07AFC15
:1016A400013428461022502105F04CFD082C21D08D
:1016B40016F8013FE5B208FB037393F820100029E4
:1016C400D8D10A235A460121284605F09FFD042358
:1016D4000B4A0221284605F099FD284699F8001086
:1016E40005F058FC013428461022502105F02AFD4B
:1016F400082CDDD1BDE8F88F1B02002090020020E9
:101704008C920008BC6900208092000842F2206399
:1017140042F224622DE9F04FDFF810928BB019F8F1
:10172400033059F80220DFF808B202930192013B1A
:10173400794ADBB24FF0000ED84678491078DFF8CA
:10174400F4A1774C089312E00120019B81F800E09A
:101754001B7884F814E088F80030724B01318B4216
:101764000AF1100A08F1010804F1180417D09AF8D4
:101774000920002AE8D1237D002BEED0012B13D0C1
:10178400022B5AD00B7803F6881309EB83035B68AA
:101794001B78012088F8003084F814E0DDE75E4B04
:1017A40018700BB0BDE8F08F0878029B0130C0B20E
:1017B4009842087080F09280024600F6881309EB84
:1017C40083035B689BF800009BF801C004909BF8BE
:1017D40002001B7803909BF80500551C05909BF8AC
:1017E4000600EDB207909BF8070005F689156345DE
:1017F4009BF803709BF80460099009EB8505069437
:1018040000F082800498181AB0FA80F04009039C12
:10181400A34208BF0120BB4208BF0120B34260D0ED
:10182400059CA3425DD0079CA3425AD0099CA342C5
:1018340057D0012855D0069CABE70A789BF801C025
:10184400013AD2B2FF2A08BF089B9BF8027004BF7A
:101854001A460B709BF800309BF8036003939BF8C7
:1018640005309BF8045004939BF8063018BF0A70A7
:1018740005939BF80730CDE9063402F6881309EB8B
:1018840083035B681B78634526D00398181AB0FA63
:1018940080F04009BB4208BF0120B34208BF0120C9
:1018A400AB420CD0049CA34209D0059CA34206D0B1
:1018B400069CA34203D0012801D0079C69E7013AA2
:1018C400D2B2FF2A08BF089A0A70002AD5D1164B53
:1018D400079C1B681B785CE70120DBE7019B0A700F
:1018E40070E7029B0132D2B29A420A7005D3019B7F
:1018F40081F800E0069C1B784BE73AB155F8043BAD
:101904001B7863457FF47EAF012080E7064B069C7D
:101914001B681B783DE700BF3E0000200402002046
:10192400A44500200C020020B428002090020020CE
:101934001C020020944300202DE9F041A64AA74947
:1019440092F8DE000B78012886B000F0A180012B0C
:1019540000F0828092F8DF40A14A012C107800F058
:101964008580012807D0022805D0022B00F085804D
:1019740006B0BDE8F08100234FF00108994F9A4E5C
:101984009A4D97F800C096F800E0994C13702A78A5
:101994000B700CEBCC00974904EB4000724580F8C7
:1019A40021E081F8008040F00781397870786B7805
:1019B40001EBC10204EB4202834282F8230040F0AF
:1019C400E7803978B078AB7801EBC10204EB4202CE
:1019D400834282F8250040F0C7803978F078EB78AC
:1019E40001EBC10204EB4202834282F8270040F07B
:1019F400A780397830792B7901EBC10204EB4202DC
:101A0400834282F8290040F08780397870796B79B5
:101A140001EBC10204EB4202834282F82B0067D13E
:101A24003978B079AB7901EBC10204EB420283420D
:101A340082F82D0048D13A78F179EB7902EBC200B3
:101A440004EB40048B4284F82F1027D1002006B009
:101A5400BDE8F041FFF76ABA022092F8DF40604A1D
:101A6400012C0346087010787FF47BAF00287FF4C4
:101A74007AAF022B14707FF47BAF002010700870D3
:101A8400FFF754FA01225B4B1A7006B0BDE8F081EF
:101A9400002B7FF45FAF034608705BE707251F2028
:101AA400002394F83060CDE90125534C0391009054
:101AB400049618461946227806F050F8002006B01D
:101AC400BDE8F041FFF732BA4FF0060E4FF01F0C9D
:101AD400002392F82E20CDE9011ECDE90302464AE7
:101AE400CDF800C019461846127806F037F8A2E778
:101AF4004FF0050E4FF01F0C002392F82C20CDE977
:101B0400011ECDE903023C4ACDF800C0194618462F
:101B1400127806F023F883E74FF0040E4FF01F0C01
:101B2400002392F82A20CDE9011ECDE90302324AAE
:101B3400CDF800C019461846127806F00FF864E78D
:101B44004FF0030E4FF01F0C002392F82820CDE92C
:101B5400011ECDE90302284ACDF800C019461846F3
:101B6400127805F0FBFF44E74FF0020E4FF01F0C14
:101B7400002392F82620CDE9011ECDE903021E4A76
:101B8400CDF800C019461846127805F0E7FF24E79F
:101B94004FF0010E4FF01F0C002392F82420CDE9E2
:101BA400011ECDE90302144ACDF800C019461846B7
:101BB400127805F0D3FF04E71F2190F82200CDE945
:101BC40001C30D4A04900091CDF80CE01946184663
:101BD400127805F0C3FFE8E6C44400201502002093
:101BE40014020020BC6900201C0200200C0200200A
:101BF400B42C00203F00002090690020F8B5314843
:101C0400017801291BD0304DFFF780FD2B78012B83
:101C140003D100232B70FFF721FDFFF78DFE4FF456
:101C2400FA712A4805F08AFB01283BD00024E0B26F
:101C340000210134FEF7B2FE082CF8D1F8BD0027CC
:101C4400234A244B5278244C02EBC20503EB450390
:101C540093F821502270214C214A077093F82500F3
:101C640093F823602570157093F82750A070907036
:101C740093F82D0093F8297066705670E57093F808
:101C84002B60D57093F82F300F4DA0719071072001
:101C94002771177166715671E371D3712970FEF75C
:101CA4007DFEB1E70F4C03210720227804F022FEC9
:101CB40002210720227804F01DFE237883F001031B
:101CC4002370B3E73F0000203E00002018020020EC
:101CD4000C010020B42C0020BC6900201C02002050
:101CE4000C020020240200202DE9F84300244FF0C8
:101CF4002608214F214D224E15E005F019F90E2238
:101D04007C21484605F01EFA4846297805F042F938
:101D140010225021484605F015FA0134484605F0D2
:101D2400EFFA082C26D02B785FFA84F903EBC3036F
:101D3400234407EB430393F82120484608FB02623F
:101D44000A230121213205F061FA2B78484603EB7E
:101D5400C303234407EB430393F8213008FB0363D5
:101D640093F820100029C8D12021013405F090F9FE
:101D7400082CD8D1BDE8F883B42C0020BC6900201D
:101D840090020020F0B5284A284C92F8DE102378FF
:101D9400012983B043D0012B0DD092F8DF10244DDC
:101DA40001292A7810D0012A1DD0022A1BD0022B27
:101DB4000FD003B0F0BD02210B46217092F8DF1062
:101DC4001B4D01292A78EED1002AEED1022B29706D
:101DD400EFD1002028702070FFF7A8F80122154BDE
:101DE4001A7003B0F0BD1F2200264FF0010C124BF5
:101DF40012491B780092124A01930E4F30464B70E1
:101E04001278334631462E70267087F800C005F0EC
:101E140013FF304603B0BDE8F040FFF787B8002B4E
:101E2400BBD10B462170B8E7C44400202702002030
:101E34002602002041000020BC6900200C01002083
:101E44009069002038B5314B197801293BD0304CCA
:101E5400304991F8BC307BB1012B42D0022B2E4B80
:101E64001A784AD000202D4B81F8BC001A70002348
:101E74002370FFF739FF02E02378012BF7D0FFF737
:101E840081FF4FF4FA71264805F058FA012805D06D
:101E9400BDE8384000210720FEF780BD214C032116
:101EA4002278072004F026FD02210720227804F07E
:101EB40021FD2378002183F0010323700720BDE86E
:101EC4003840FEF76BBD0025174A144C527812486F
:101ED40022700F4C027007201D702170FEF75EFD0A
:101EE400B6E70D48114D02782D780132D2B29542F1
:101EF4000270B7D21A460370B4E7013AD2B21A702C
:101F0400002AAFD1094A12781A70ABE741000020C9
:101F140040000020A445002025020020BC690020C8
:101F2400280200202C0200200C010020D43E0020B6
:101F3400F0B52C4A2C4C92F8DE102378012983B09A
:101F440039D0012B1FD092F8DF00284A01281178DC
:101F540022D0012905D0022903D0022B21D003B0BD
:101F6400F0BD00250126224B224F19783B781570CD
:101F7400214A8B422570167022D1002003B0BDE89F
:101F8400F040FEF7D3BF022192F8DF00174A012880
:101F94000B4621701178DCD10029DCD1022B1070A2
:101FA400DDD1002010702070FEF7C0FF0122124B1B
:101FB4001A7003B0F0BD002BC5D10B462170C2E7E7
:101FC4003046397000F04CFE284631462B463A78AC
:101FD400009505F0F1FD002003B0BDE8F040FEF7E8
:101FE400A5BF00BFC44400202E0200202D02002003
:101FF400340200209069002042000020F8B5354DDD
:102004002C78012C36D04FF4FA71334805F096F948
:1020140001281FD0314B93F82C1099B1012946D0D7
:102024002F4A0229117807D1013911F0FF0105BFA8
:10203400FF200146117010700022012083F82C202B
:1020440004F0A8FF00210120FEF7A8FCBDE8F84039
:10205400FFF76EBF234C03210720227804F04AFCCB
:1020640002210720227804F045FC237883F0010341
:102074002370CFE700261C4B194F187821460623FE
:102084001A4A387020462E7005F0C0F82046397878
:1020940004F080FF214630460723154A05F0B6F8C0
:1020A400304607230221134A05F0B0F8ABE70C4889
:1020B4000278013212F0FF021CBF027011464FF089
:1020C400000208BF017083F82C20012004F062FF95
:1020D400B8E700BF4200002030020020A4450020E1
:1020E40034020020350200209069002094920008F8
:1020F4009C920008A4920008042A04D8DFE802F0A5
:10210400091E23280400704706230121154A05F0FF
:102114007DB830B5262404FB01F5134C05F12102EA
:1021240083B0012122440A232C44019005F06EF867
:1021340094F82010019881B903B030BD0A2301211D
:102144000A4A05F063B80A230121094A05F05EB87A
:1021540006230121074A05F059B803B0BDE8304011
:1021640004F0E6BECC92000890020020AC92000875
:10217400B8920008C49200082DE9F84F00248A465A
:10218400A146224DDFF88880461E16F8013FFBB1B8
:102194002B7DEBB1012B22D0022B2CD00AEB040BAC
:1021A400E7B285F8149038469BF8001004F044FB1D
:1021B4002021384604F06CFF384605F0A1F8384673
:1021C4009BF800203178FFF797FF012304F80830CB
:1021D4000134082C05F11805D7D1BDE8F88F1AF899
:1021E40004300AEB040B0133DBB2042B0BD90423B8
:1021F4000AF80430D4E71AF804300AEB040B013B64
:10220400DBB2FF2BCCD00AF80430C9E7A445002088
:10221400400200202DE9F84F0024DFF87881574E62
:10222400574F584DDFF8709118F8013F1BB114F85F
:102234000920012A27D02B782BB1022B1CD0032B89
:1022440013D0012B0AD00134082C06F1040607F13F
:10225400060705F10105E7D1BDE8F88F3168E0B262
:10226400C90CB98004F096FEEDE73168E0B2C90C00
:10227400398004F08FFEE6E73168E0B2C90C79805A
:1022840004F088FEDFE74FF0000A3F4B5FFA84FB5F
:1022940004F803A05846032104F809A004F02AFB1B
:1022A4003A4A2B7804F802A0042BC6D8DFE803F0DE
:1022B4000329470B03005846002105F06FFA00225A
:1022C4002B783260B8E74FF0260A314A98F800308C
:1022D40058460AFB0323998D05F060FA2C4A98F8B6
:1022E400003058460AFB0323998D04F053FE98F8F6
:1022F4000010274A2B780AFB0122928DD204326007
:102304009AE74FF0260A224A98F8003058460AFB0A
:102314000323198E05F042FA1D4A98F800305846F6
:102324000AFB0323198E04F035FE98F80010184AAE
:102334002B780AFB0122128ED20432607CE74FF024
:10234400260A134A98F8003058460AFB0323D98D0D
:1023540005F024FA0E4A98F8003058460AFB032385
:10236400D98D04F017FE98F80010094A2B780AFB5F
:102374000122D28DD20432605EE700BF6069002082
:1023840058020020500200201001002038020020D2
:10239400900200204702002040020020F0B5A84A25
:1023A400A84992F8DE000B78012887B051D0012BA0
:1023B40037D092F8DF40A44A012C10783AD0012893
:1023C40005D0022803D0022B39D007B0F0BD00237A
:1023D40001259E4C137022789D48042A0B700570C9
:1023E4005AD06378042B00F09280A378042B70D029
:1023F400E378042B00F005812379042B00F0E380BB
:102404006379042B00F0C080A379042B00F09E8034
:10241400E379042B22D0002007B0BDE8F040FEF79A
:1024240085BD022092F8DF40874A012C03460870DC
:102434001078C4D10028C4D1022B1470C5D1002057
:1024440010700870FEF772FD0122814B1A7007B0FC
:10245400F0BD002BADD103460870AAE72624002363
:102464001F257C4A7C49D0797C4A019004FB00F406
:10247400C88D0293059000958F8D16194A8DD1F859
:102484002A50CDE90327764A308612781946184631
:10249400F56205F031FBBEE726211F266D486E4A22
:1024A40000786E4DCDE9010301FB00F190880096A0
:1024B4000590B2F802C06F1811881668CDE9031CA4
:1024C400674A3886127819461846FE6205F014FBEE
:1024D40087E726215F4A002395781F2601FB05F133
:1024E4005E4A0195551829465B48028A0293059273
:1024F4000096C6892A86C5688089594A039004963D
:1025040012781846CD62194605F0F6FA70E72621CE
:10251400504A002355781F2601FB05F14F4A0195C7
:10252400551829464C48428902930592009606891B
:102534002A86D0F80650C088494A03900496127837
:102544001846CD62194605F0D7FA4EE72621414ACE
:10255400002395791F2601FB05F1404A0195551882
:1025640029463D48028D029305920096C68C2A8620
:10257400456A808C3A4A0390049612781846CD62D4
:10258400194605F0B9FA43E72621324A0023557962
:102594001F2601FB05F1314A0195551829462E489D
:1025A400428C029305920096068C2A86D0F81E501F
:1025B400C08B2B4A0390049612781846CD621946B4
:1025C40005F09AFA20E72621224A002315791F26CE
:1025D40001FB05F1214A0195551829461E48828BB5
:1025E400029305920096468B2A868569008B1C4AC5
:1025F4000390049612781846CD62194605F07CFAC9
:10260400FEE62621134A0023D5781F2601FB05F197
:10261400124A0195551829460F48C28A0293059219
:102624000096868A2A86D0F81250408A0C4A039073
:10263400049612781846CD62194605F05DFADBE679
:10264400C44400203702002036020020500200203B
:10265400430000204802002058020020900200207D
:1026640090690020082800D9704738B504460D4603
:102674000121FEF74DFA20460022032104F03AF925
:102684000C4AEB0402EB04120B49C2E901330B4878
:1026940004F10A0241F8223004F11002294640F8FC
:1026A4002230204605F07AF829462046BDE8384015
:1026B40004F070BC10430020386900201001002091
:1026C4002DE9F04F0024374DDFF8E890DFF8E8807B
:1026D400354FDFF8E8A085B004E00134082C05F19B
:1026E400010525D026267B7803EBC303234408EB9E
:1026F400430393F8213006FB039393F82030002B17
:10270400EBD014F80A30013B012BE6D8274A04EB3E
:10271400440312F833B0BBF1010F0CD02B78013411
:10272400012B04BF00232B70082C05F10105D9D11E
:1027340005B0BDE8F08F29780029CED1E3B2184660
:102744000391029385F800B0FEF7F0F9DDE9023158
:1027540001281BD01846FEF7E9F903460028BCD12E
:102764004FF01F0C7A78594602EBC202224408EB60
:10277400420292F8212006FB029292F82020CDE931
:1027840000C20B4A127805F079F9A6E703901846BF
:10279400FEF7BEF9DDE902320321184604F0AAF877
:1027A4009BE700BF380200200C010020B645002042
:1027B4009069002090020020B42C002050020020D8
:1027C4002DE9F04F934B83B01B78012B16D092491F
:1027D4009248FFF7D1FCFFF71DFDFFF771FFFFF7EC
:1027E400DDFDFEF797FB4FF4FA718D4804F0A6FD6A
:1027F400012800F0F18003B0BDE8F08F262200200C
:10280400884B89495B78894F03EBC30301EB430190
:1028140091F8296091F82130354602FB03FADFF87C
:10282400FCB191F823E007EB0A068BF80030368EF2
:102834007F4B02FB0EF88BF801E09E8091F825C0D7
:102844003E1D0AF1280A56F80AA002FB0CF4C3F84C
:1028540000A008F1280AB84491F82790B8F82C8011
:102864008BF802C0A3F806808BF8039007F10608E2
:10287400019402FB09FE019C58F80A9004F1280A0D
:10288400C3F8089007EB04090446B9F830908BF8B4
:10289400045002FB05FC56F80AA0A3F810900EF1B0
:1028A4002809BE44BEF82CE0C3F80CA058F80990DF
:1028B400A3F812E007EB0C0EBEF830E0554DC3F858
:1028C40014900CF1280C56F80CC00090A3F81CE0EE
:1028D400287091F82D5091F82BE002FB05F991F83E
:1028E4002F10C3F818C002FB0EFC02FB01F28BF898
:1028F40005E08BF8065009F1280575590CF12806F6
:1029040058F80660BC448BF8071002F128013A44D9
:10291400BCF82CE0B2F82CC0464AB94458F801106F
:10292400B9F830905D62C2E900003B4D1E62DFF8E9
:102934001CA1414EC5E90000A3F82890A3F81EE0AD
:10294400D962A3F82AC0013D15F8013F5FFA84F863
:10295400042B0AD8DFE803F01B14393203000623E2
:1029640001214046354A04F051FC40460021FEF75F
:10297400CFF800230134082C06F8013FE4D126E700
:102984000A23012140462E4A04F040FCEDE74FF0B3
:1029940026091BF80420012109FB02F909F121028F
:1029A4000A2340463A44B94404F030FC99F8201014
:1029B4000029DAD0404604F0BBFAD6E70623524693
:1029C4000121404604F022FCCFE70A2301214046BE
:1029D4001C4A04F01BFCC8E70720FEF7A7F80128EF
:1029E40011D0194C03210720227803F083FF022120
:1029F4000720227803F07EFF237883F001032370FD
:102A040003B0BDE8F08F00220321072003F072FF1A
:102A14000D4CECE743000020500200204802002047
:102A2400880200200C010020B42C00209002002019
:102A3400580200204002002037020020CC920008F7
:102A4400AC920008B89200088C020020C4920008DE
:102A5400002000B50B7983B0C978074A03F00F034F
:102A640000909B0043EA91131278012105F0C2F80B
:102A740003B05DF804FB00BF9069002026231146D3
:102A840070B442F2206410781A4D03FB00F3EE1880
:102A940086F8200051F8020F2133E85089882B442E
:102AA40099802E5D86B10121134B107803EB8604C7
:102AB40053F8042F1278824208BF0021A342F7D1B1
:102AC400012902D070BC70471078262342F220619D
:102AD40003FB00F006F6881300F1200228442A4480
:102AE40005EB830380F8446001366E545A6070BC71
:102AF400704700BF90020020B028002026231078E1
:102B0400064910B400FB033403FB001383F82000D0
:102B1400D2F802300131635010BC7047900200209B
:102B24005378032B16D8262110B4107803EB4303F3
:102B340001FB00F1D2F8024001EB4303064903F123
:102B4400280044509079D2790B4440EA022210BC08
:102B54009A857047704700BF940200205178072976
:102B640026D8F0B410781B4D00EBC00305EB4304EA
:102B740084F820000B441033917805EB430359701B
:102B840005F59156D27837789A704FEAC00C87B120
:102B94003346012206EB870453F8041F0978814267
:102BA40008BF0022A342F7D1012A02D0F0BC70472B
:102BB400704707F59162604405EB400305EB400064
:102BC40005EB82057A1C203380F8317032706B601B
:102BD400F0BC7047B42C002008B51078FDF724FF32
:102BE4000122014B1A7008BD0100002070B5107855
:102BF4001546FDF7A3FFFF2800D170BD044601214F
:102C0400AA786B78074E43EA02231830321926F863
:102C1400103082F8281001F061FB023446F82400D9
:102C240070BD00BF1001002010B510781446FDF7E8
:102C340085FFFF2804D0094B5B7843B1062B00D0F5
:102C440010BDB4F80110BDE81040FFF70BBDB4F897
:102C54000110BDE81040FEF795BA00BF0401002042
:102C640005F0B8BC10B582B002F0C8F805F05EFDFE
:102C740060BB0023174A22F8023F01331B2BFAD111
:102C840000240DF106012046ADF8064005F04AFC8B
:102C94004AF6AA21BDF806308B420DD10E4C002312
:102CA4000DF106010120ADF8063005F03BFCBDF83E
:102CB4000630237002B010BD204605F08BFC0121C4
:102CC400054C0846217005F085FCE8E700F00EFE8F
:102CD400CFE700BFD64200209069002030B4002422
:102CE4001A4B1B4A1D1D156103F10805156203F1FA
:102CF4000C05156303F11005156403F1140515653E
:102D040003F1180515664FF07E556FF0F02021464B
:102D140013601C3313670F4BD560D561D562D5633F
:102D2400D564D565D566D5675460546154625463DF
:102D3400546454655466546703F51852998043F8F3
:102D4400260B9342FAD130BC704700BF6069002063
:102D540010430020BC020020F8B5089E0A9D801A8A
:102D6400099F0B9C61EB0301AD1B64EB070400FBA3
:102D740004F405FB0144A0FB05012144069C079DC6
:102D8400A21A65EB0303FDF733FC801947EB01013D
:102D9400F8BD00BF2DE9F04F1421D34883B004F0EF
:102DA400CDFA012840F021822623D04AD049577811
:102DB400D04D07EBC70201EB420292F82180CE4CC2
:102DC40003FB08532268B3F82CB01068D4F80490BD
:102DD4004FEACB4B834594BFA9EB0B00A9EB000052
:102DE400FDF78CFBE168FDF71BFAFDF7DBFB2623FF
:102DF400A9EB000C03FB0853E34598BFDC46B3F88A
:102E04003080DA8D4FF000094FF000038CBFC4F816
:102E140004C0C4F804B0B2EB08005A46A0FB0C018D
:102E240063EB09030CFB0311D317CDE90089FDF70C
:102E3400DFFB4FEAC70AAE4A0AEB070302EB430380
:102E440093F82390009B2169C018262303FB0953A0
:102E5400A060B3F82CB00868D4F814804FEACB4BC8
:102E6400834594BFA8EB0B00A8EB0000FDF746FBDD
:102E7400E169FDF7D5F9FDF795FBA8EB000C4FF0E0
:102E84002608002108FB0953DC4528BFDC46188EC0
:102E9400DA8D4FF0000338BFC4F814C0CDE9000147
:102EA40028BFC4F814B0101A5A46A0FB0C01019EA6
:102EB40063EB06030CFB0311D317FDF799FB8C4A54
:102EC4000AEB070302EB430393F82590009B216A66
:102ED400C01808FB0953A061B3F82CB008684FEA86
:102EE400CB4BD4F82480834594BFA8EB0B00A8EB0C
:102EF4000000FDF703FBE16AFDF792F9FDF752FBD1
:102F0400A8EB000C4FF02608002108FB0953E34509
:102F140098BFDC46188EDA8D4FF0000388BFC4F8E2
:102F240024C0CDE9000198BFC4F824B0101A5A4651
:102F3400A0FB0C01019E63EB06030CFB0311D317EA
:102F4400FDF756FB6A4A0AEB070302EB430393F8C7
:102F54002790009B216BC01808FB0953A062B3F8AB
:102F64002CB00868D4F834804FEACB4B834594BF27
:102F7400A8EB0B00A8EB0000FDF7C0FAE16BFDF72E
:102F84004FF9FDF70FFBA8EB000C4FF026080021CA
:102F940008FB0953E34598BFDC46188EDA8D4FF0E1
:102FA400000388BFC4F834C0CDE9000198BFC4F859
:102FB40034B0101A5A46A0FB0C01019E63EB0603C1
:102FC4000CFB0311D317FDF713FB494A0AEB070364
:102FD40002EB430393F82990009B216CC01808FB73
:102FE4000953A063B3F82CB008684FEACB4BD4F86C
:102FF4004480834594BFA8EB0B00A8EB0000FDF7C9
:103004007DFAE16CFDF70CF9FDF7CCFAA8EB000CA6
:103014004FF02608002108FB0953E34598BFDC461E
:10302400188EDA8D4FF0000388BFC4F844C0CDE990
:10303400000198BFC4F844B0101A5A46A0FB0C0112
:10304400019E63EB06030CFB0311D317FDF7D0FAC3
:10305400274A0AEB070302EB430393F82B90009BE8
:10306400216DC01808FB0953A064B3F82CB008689C
:10307400D4F854804FEACB4B834594BFA8EB0B00A4
:10308400A8EB0000FDF73AFAE16DFDF7C9F8FDF78A
:1030940089FAA8EB000C4FF02608002108FB09531D
:1030A400E34598BFDC46188EDA8D4FF0000388BFE5
:1030B400C4F854C0CDE9000198BFC4F854B0101A44
:1030C4005A46A0FB0C01019E63EB06030CFB0311A3
:1030D400D317FDF78DFA064A0AEB070302EB430305
:1030E40093F82D900AE000BF904300200C010020CB
:1030F400B42C00209002002010430020009B216E7D
:10310400C01808FB0953A065B3F82CB008684FEA4F
:10311400CB4BD4F86480834594BFA8EB0B00A8EB99
:103124000000FDF7EBF9E16EFDF77AF8FDF73AFAE6
:103134002623A8EB000C03FB0953E34596BFDC46AA
:10314400C4F864C0C4F864B0B3F83080DA8D4FF0CA
:1031540000090023B2EB08005A46A0FB0C0163EB04
:1031640009030CFB0311D317FDF742FA204B574414
:1031740003EB4706262396F82F70226F03FB0753B1
:1031840010EB0800A066B3F82C801068666F4FEA55
:10319400C848804594BFA6EB0800301AFDF7AEF985
:1031A400E16FFDF73DF8FDF7FDF92622331A43459B
:1031B40028BF434602FB07554FF0000B4FF00007B2
:1031C4002E8EB5F82EA034BF6367C4F87480BAEBB2
:1031D4000600A0FB03016BEB070203FB021142464E
:1031E400D317FDF705FA8019A06703B0BDE8F08F87
:1031F400B42C002000F002B800F01EB830B40C4B20
:103204000C4A03F1180003F1300103F1480503F1FE
:1032140060041061136003F17800116203F19001FE
:10322400A8331563146410651166136730BC7047C6
:10323400B64500209443002038B59A4C257A002DD9
:103244004CD0012D00F09F8000232372257E002D99
:103254004FD0012D00F016810023237694F82850D6
:10326400002D52D0012D00F0FC80002384F828307A
:1032740094F83850002D55D0012D00F0E180002342
:1032840084F8383094F84850002D58D0012D00F0BF
:10329400C580002384F8483094F85850002D5BD042
:1032A400012D00F0A980002384F8583094F8685068
:1032B400002D5ED0012D00F08D80002384F868304D
:1032C40094F8785025B9236F1B78012B6BD038BD47
:1032D400012D6ED0002384F8783038BD23681B7824
:1032E400012BB3D1237204F027F8257E6060002DF2
:1032F400AFD123691B78012BB0D1237604F01CF8DD
:1033040094F828506061002DACD1236A1B78012BFE
:10331400AED184F8283004F00FF894F83850606285
:10332400002DA9D1236B1B78012BABD184F8383045
:1033340004F002F894F848506063002DA6D1236C81
:103344001B78012BA8D184F8483003F0F5FF94F8DA
:1033540058506064002DA3D1236D1B78012BA5D197
:1033640084F8583003F0E8FF94F868506065002D45
:10337400A0D1236E1B78012BA2D184F8683003F00E
:10338400DBFF60669CE7606803F0CEFFB0F5967FD4
:10339400E06000D3657223681B78002B7FF456AF7E
:1033A400E360238152E784F8783003F0C5FF606757
:1033B40038BD606F03F0B8FF236FB0F5967FE06708
:1033C40028BF84F879501B78002B80D1E367A4F8D8
:1033D400783038BD606E03F0A7FFB0F5967FE066E5
:1033E40001D384F86950236E1B78002B7FF468AFF7
:1033F400E366A4F8683063E7606D03F095FFB0F509
:10340400967FE06501D384F85950236D1B78002B17
:103414007FF44CAFE365A4F8583047E7606C03F0E1
:1034240083FFB0F5967FE06401D384F84950236CA0
:103434001B78002B7FF430AFE364A4F848302BE70B
:10344400606B03F071FFB0F5967FE06301D384F8FD
:103454003950236B1B78002B7FF414AFE36323876D
:1034640010E7606A03F060FFB0F5967FE06201D375
:1034740084F82950236A1B78002B7FF4F9AEE362A9
:103484002385F5E6606903F04FFFB0F5967FE061B0
:1034940000D3657623691B78002B7FF4DFAEE361EC
:1034A4002383DBE6944300202DE9D043002200234C
:1034B4004FF000084FF0010901260E278AB0694633
:1034C4000446CDE90023CDE90223CDE90423CDE967
:1034D4000689CDE9086700F09BFF08B172B6FEE7E4
:1034E400204601F027F808B172B6FEE72046022113
:1034F40001F044F908B172B6FEE70AB0BDE8D08322
:1035040002204FF480312DE9F04F4FF4E0120025F2
:1035140001244FF001084FF480394FF4803604271A
:1035240002234FF4C06A4FF0400B95B0CDE90E0171
:1035340006A8CDE90C55CDE90155CDE90355CDE9F2
:103544000689CDE90867CDE91023CDE912AB0A95C8
:1035540000950B9401F02EFE08B172B6FEE7034607
:103564004FF00F084FF0020900264FF480676846B9
:103574000221CDE90089CDE90267049302F0E2F863
:1035840008B172B6FEE7024B1C6015B0BDE8F08FBF
:10359400700042422DE9F04300248FB000F080FE19
:1035A400FFF7AEFFCDE90A44CDE90C44924B224625
:1035B40099694FF0000841F040019961986946F615
:1035C400FF7100F04000039003989D698B4845F01B
:1035D40004059D619D694FF0030905F004050495F8
:1035E400049D9D69864E45F010059D619D6905F019
:1035F40010050595059D9D6945F020059D619D6912
:1036040005F020050695069D9D6945F008059D6118
:103614009B6903F008030793079B01F0C7FD22464B
:10362400B021784801F0C2FD22464FF46871764813
:1036340001F0BCFD01224FF48061724801F0B6FD37
:1036440022463321714801F0B1FD46F6FF72012391
:103654006A480AA9CDE90A23CDE90C8901F09AFC4C
:103664004FF49662012367480AA9CDE90A23CDE9FC
:103674000C8901F08FFC4FF46872012362480AA997
:10368400CDE90A23CDE90C8901F084FC332201231E
:103694005E480AA9CDE90A23CDE90C8901F07AFC38
:1036A4008822002359480AA9CDE90A230C9401F081
:1036B40071FC40F20773564A3046CDE90A44CDE91D
:1036C4000C44CDE90844C6E901443461B461326074
:1036D400F36002F0F7F808B172B6FEE74FF48057D2
:1036E40030460AA90A9702F09FF908B172B6FEE7BC
:1036F40000240025304608A9CDE9084502F038FA2F
:10370400034608B172B6FEE740F2E731414E424A41
:10371400CDE90A00CDE90C00CDE908003046C6E940
:103724000133F1603361B361326002F0CBF808B168
:1037340072B6FEE730460AA90A9702F075F908B195
:1037440072B6FEE7304608A9CDE9084502F010FA42
:10375400034608B172B6FEE70C224FF4E1362F4857
:103764002F49C0E90163C0E90333C0E906330160AE
:10377400426102F033FA034608B172B6FEE75920FB
:103784000122284E2849C6E901033046CDE90A330F
:10379400CDE90C33CDE90833C6E90433B3613160B4
:1037A400F26002F08FF808B172B6FEE730460AA95B
:1037B4000A9702F039F908B172B6FEE7304608A953
:1037C400CDE9084502F0D4F908B172B6FEE700234A
:1037D40009254FF48032154C15492046C4E90533B8
:1037E400A383C4E90015C4E90233226100F08EFD0D
:1037F4000546F8B172B6FEE7001002400018014019
:103804000C6A00200008014000100140001401402F
:1038140000040040C069002000080040586A0020ED
:1038240000380140986A0020002C0140E46A00201E
:1038340000640040204604F03DFA2046FFF734FEC1
:10384400FFF7D8FC03F0ECFD03F0A0FF03F0E2FF68
:1038540002F06CFE02F0CEFF02F098FB03F0F8F8E1
:10386400FDF7D4F8FFF73AFA42F2206301211A4A2D
:10387400D15400F07DFCFFF7F5F9E8B207210135DA
:1038840002F0E8FF082DF8D10023144A00931846EB
:103894000121127804F090F9114C124E124D03F0EC
:1038A4004FF802F00BFE02F057FB03F06DFF00F03F
:1038B40015FD2060FFF76EFA00F010FD22683060FD
:1038C400831A2B60FFF798FCFDF7ACF804F02EFA8E
:1038D40004F0BEFAE3E700BF9002002090690020E4
:1038E400546A0020086A0020E06A002072B6FEE7ED
:1038F4000E4B82B09A690E4942F001029A619A69AC
:1039040002F001020092009ADA6942F08052DA6110
:10391400DB6903F080530193019B4B6823F0E06360
:1039240043F000734B6002B0704700BF00100240C8
:1039340000000140D0B500240268224B86B09A42B0
:10394400CDE90244CDE9044401D006B0D0BD4FF422
:103954000066002703F5D633DA6902A942F0007243
:10396400DA61DA69184802F000720092009A9A69E2
:1039740042F004029A619B69CDE9026703F00403F3
:103984000193019B4FF480560227049401F002FB3B
:10399400032302A90C480593CDE9026701F0FAFA62
:1039A40022462146132001F04FF8132001F084F839
:1039B40022462146142001F047F8142001F07CF837
:1039C40006B0D0BD006400400008014010B5264A8E
:1039D400036884B0934207D0244A934219D0244AFE
:1039E40093422BD004B010BD0022224B11469C6997
:1039F400192044F400649C619B6903F400630193FF
:103A0400019B01F021F8192004B0BDE8104001F039
:103A140053B8184B0022D869032140F00200D86142
:103A2400DB691D2003F002030293029B01F00CF8F2
:103A34001D2004B0BDE8104001F03EB80D4B00223B
:103A4400D869022140F00400D861DB691E2003F02C
:103A540004030393039B00F0F7FF1E2004B0BDE8AA
:103A6400104001F029B800BF002C014000040040C0
:103A7400000800400010024030B500240268214BC9
:103A840087B09A42CDE90244CDE9044401D007B09D
:103A940030BD40200221032503F558439A6942F4BE
:103AA40080429A619A6902F480420092009A9A696B
:103AB40042F008029A619B69CDE9020103F0080310
:103AC400019302A91048019B059501F063FA802235
:103AD400002302A90C48CDE90223049401F05AFA08
:103AE4000A4822464368012143F0E06343F004039B
:103AF4004360252000F0A8FF252000F0DDFF07B07B
:103B040030BD00BF00380140000C014000000140FE
:103B1400FEE700BFFEE700BFFEE700BFFEE700BF11
:103B2400FEE700BF704700BF704700BF704700BF8B
:103B340000F0C8BB014800F04BBE00BFE46A00209F
:103B4400014800F045BE00BFE46A0020064B1B6834
:103B54001A69D10702D5DA68D20700D470476FF02A
:103B640001021A6102F0BABF986A0020064B1B6872
:103B74001A69D10702D5DA68D20700D470476FF00A
:103B840001021A6102F01EBD0C6A0020064B1B687C
:103B94001A69D10702D5DA68D20700D470476FF0EA
:103BA40001021A6102F030BAC0690020014802F033
:103BB4000FB900BF586A00200D49034610B50D4ADD
:103BC4000D4C0868121B20B10344934207D80B60C4
:103BD40010BD0A4C2046034493420C60F7D904F00C
:103BE400ADFE0C2203464FF0FF301A6010BD00BF3B
:103BF400144400200000012000040000D0A700208D
:103C0400704700BF38B52C4D2B78002B4AD12B4C74
:103C140020780138C0B20721207002F01BFE207802
:103C240000210130C0B202F015FE002220781146B6
:103C340002F060FE00220121207802F05BFE0022E7
:103C44000221207802F056FE00220321207802F09F
:103C540051FE0122207800211044C0B202F04AFE35
:103C64000122207811461044C0B202F043FE012222
:103C7400207802211044C0B202F03CFE01222078D8
:103C840003211044C0B202F035FE0D4A21781378A6
:103C9400994204D101210B44DBB213702970082B23
:103CA40005D038BD00230720044C2B70B3E7002255
:103CB400044B1A7038BD00BF49000020184400208E
:103CC400194400204A0000202DE9F04F002085B05F
:103CD40003F0DAF803F0F6F8642000F005FB0024A2
:103CE400E5B22846002102F0B5FD01342846002142
:103CF40003F054FD082CF3D1002702F021FE02F05A
:103D0400DDFB02F029F96420B8463E4600F0ECFAE7
:103D1400DFF84093F8B203F0B7F80024E5B2284680
:103D2400314602F0D9FD01343146284602F084FDC3
:103D3400082CF3D1B8F1000F40F0CB800136F6B275
:103D44000D2E94BF4FF000084FF0010899F8003091
:103D5400002B00F0BA80FFF755FF013702F0F0FDA9
:103D640002F0ACFB02F0F8F81E2000F0BDFA3F2F81
:103D7400D0D10024E0B22F21013403F089F9082CBA
:103D8400F8D11E2000F0B0FA3F24E0B203F07CF832
:103D9400013C642000F0A8FA2D2CF6D14FF0000865
:103DA400DFF8B492C346C24647464546CDE9028889
:103DB400CDE90088A44E78E01FB93846090103F024
:103DC400EDFCB9F84A3063B904F11503DBB2F15CD8
:103DD400002900F08980009B1BB90120090103F030
:103DE400DDFCB9F84C3063B904F12903DBB2F15CB2
:103DF400002900F01081019B1BB90220090103F086
:103E0400CDFCB9F84E3063B904F13D03DBB2F15C8B
:103E1400002900F00681029B1BB90320090103F06D
:103E2400BDFCB9F8503063B904F15103DBB2F15C65
:103E3400002900F0FC80039B1BB90420090103F056
:103E4400ADFCB9F852306BB904F16503DBB2F15C37
:103E5400002900F0F280BAF1000F03D10520090116
:103E640003F09CFCB9F8543063B904F17903DBB274
:103E7400F15C00293ED0BBF1000F03D106200901FB
:103E840003F08CFCB9F8563053B9733CE4B2315D9D
:103E9400B1B3B8F1000F03D10720090103F07EFC90
:103EA4000A2000F021FAFF2D34D0B9F848306A1CFA
:103EB4002C46D5B2002B84D1715D00297FF47CAFF0
:103EC400084603F06BFC01277BE702F039FD01375C
:103ED40046E7B8F1010F7FF439AF013E16F0FF0653
:103EE40008BF4FF0020831E7012003F057FC01231B
:103EF400009376E7062003F051FC4FF0010BC1E775
:103F0400072003F04BFC0A2000F0EEF9FF2D4FF0E0
:103F14000108CAD1642000F0E7F92021002003F051
:103F2400B7F84721012003F0B3F84521022003F03C
:103F3400AFF84E21032003F0ABF85421042003F022
:103F4400A7F84C21052003F0A3F84521062003F02F
:103F54009FF82021072003F09BF80024E5B22846AF
:103F64000122002102F0C6FC012228461444114615
:103F740002F0C0FC082CF1D102F0E2FC02F09EFA3F
:103F840001F0EAFF4FF47A7000F0AEF94D21002001
:103F940003F07EF84F21012003F07AF84E2102202D
:103FA40003F076F85321032003F072F8542104201F
:103FB40003F06EF84521052003F06AF8522106202B
:103FC40003F066F82021072003F062F800240122A0
:103FD400E5B228460221144402F08CFC2846012252
:103FE400032102F087FC082CF1D102F0A9FC02F0B5
:103FF40065FA01F0B1FF4FF47A7000F075F902F040
:1040040073FF0122114B1A7003F096F9104B1860DC
:1040140005B0BDE8F08F022003F0C0FB012301933B
:10402400EFE6032003F0BAFB01230293F9E6042030
:1040340003F0B4FB0123039303E7052003F0AEFB75
:104044004FF0010A0EE700BFEC9200082044002064
:104054000C6B00204A0000203869002010B5322182
:104064003F4803F06BF9A8BB3E4B93F8BC20012AF0
:1040740028D0022A04D093F8BA20012A0BD010BD0C
:104084000022394983F8BC200A78013A0A7093F86F
:10409400BA20012AF3D1002209203449DA740870C5
:1040A40083F82B2083F8432083F85B2083F8732064
:1040B40083F88B2083F8A32083F8BB20BDE810404D
:1040C40002F012BF0022284983F8BC200A7801328A
:1040D4000A70D0E701224321002003F033F80222C2
:1040E4004121002003F02EF803224E21002003F08A
:1040F40029F804225F21002003F024F80522492135
:10410400002003F01FF806224421002003F01AF8CF
:1041140001224C21072003F015F802224321072035
:1041240003F010F803224421072003F00BF80422C3
:104134005F21072003F006F80B4C052242210720DB
:1041440003F000F806224C21072002F0FBFF207840
:1041540002F09AFE0720217802F01CFF84E700BFDA
:104164001C440020A44500204800002020440020D6
:104174000023F0B51F4683B0214C224E224D0193FB
:104184002378092B1ED8DFE803F02905341D1D1DF3
:104194001D1D1D278DF8037001F0DEFEB37C4FF466
:1041A4007A71012B284608BF8DF8033003F0C6F856
:1041B40040B19DF8033003F0FF02EBB1012A01D1B5
:1041C40002232370322101A803F0B8F870B902F079
:1041D40075F901F0C1FED3E703B0F0BDFFF774FD3C
:1041E400322101A803F0AAF80028F0D002F0A8FBBD
:1041F400EDE7FFF733FFE5E709232370E2E700BFAC
:1042040020440020A44500200C6B0020002103E082
:104214000B4B5B58435004310A480B4B42189A42EB
:10422400F6D30A4A02E0002342F8043B084B9A42C0
:10423400F9D3FFF7E5FC04F087FBFFF7ABF9704710
:1042440098D2000800000020B4000020B80000202C
:10425400D0A70020FEE7000038B54FF47A730D4A6A
:10426400054611780C4AB3FBF1F31268B2FBF3F084
:1042740000F030FC08B90F2D01D9012038BD0446E7
:10428400024629464FF0FF3000F0DEFB034B204688
:104294001D6038BD4B000020440000204C0000206D
:1042A400074A08B51368032043F01003136000F0B5
:1042B400B9FB0020FFF7D0FFFFF71AFB002008BD71
:1042C40000200240034A044B11681B780B4413601E
:1042D400704700BF106B00204B000020014B186892
:1042E400704700BF106B002038B50446FFF7F6FF97
:1042F400631C054602D0044B1B781C44FFF7EEFFF9
:10430400401BA042FAD338BD4B00002000287DD0CA
:1043140070B590F820300446002B74D022681368DE
:1043240023F002031360FFF7D9FF054604E0FFF70B
:10433400D5FF401B0A285DD823685A689107F6D434
:104344001A6842F001021A60FFF7C8FF054604E04C
:10435400FFF7C4FF401B0A284CD823685A68D207C9
:10436400F6D5227E0025012A1A684FF001060CBFFB
:1043740042F0800222F080021A60627E012A1A68EA
:104384000CBF42F0400222F040021A60A27E012AD1
:104394001A680CBF42F0200222F020021A60E27E6A
:1043A400012A1A680CBF22F0100242F010021A60AF
:1043B400227F012A1A680CBF42F0080222F0080288
:1043C4001A60627F012A1A680CBF42F0040222F0CC
:1043D40004021A602169D4E9022002430A43606995
:1043E4006168024301390A43DA61656284F8206036
:1043F400284670BD0522636A012043F400336362DA
:1044040084F8202070BDFFF795FA87E701207047F4
:1044140090F82020013A012A06D903465A6A01205D
:1044240042F480225A62704770B40125404BD3F89D
:1044340000222A43C3F80022D3F8002222F47C523B
:10444400C3F80022D3F80022486A42EA0022C3F8E3
:1044540000224A69D3F81C4202F01F0005FA00F05A
:1044640024EA0004C3F81C42CD69C443002D45D19D
:10447400D3F80C52D2002540C3F80C52CB688D8877
:104484008E6845EA03450B8802F1804202F5C84272
:1044940043EA0643C2F84052C2F844328B69244AC4
:1044A40033BBD2F804322340C2F804320B69C3B9D7
:1044B4001F4BD3F814221440C3F814420B6A012B87
:1044C40005D11B4AD2F81C321843C2F81C02184A00
:1044D400002070BCD2F8003223F00103C2F800328D
:1044E4007047134AD2F814320343C2F81432E5E792
:1044F400D2F804320343C2F80432D7E7012DCDD1F8
:10450400D3F80C52D2000543C3F80C520B688D88C3
:104514008E6845EA03458B8902F1804202F5C84260
:1045240043EA0643C2F84052C2F84432B6E700BF39
:104534000064004070B590F820300446012B06D08A
:104544000126436A43F400234362304670BDDEB261
:104554000223026880F82030136823F001031360FB
:10456400FFF7BCFE054604E0FFF7B8FE431B0A2B29
:1045740008D823685B6813F00103F5D11E46636213
:10458400304670BD0522636A304643F400336362EB
:1045940084F8202070BD00BF70B4044690F8200059
:1045A400266801380128B56834D815F0E05F38D0A2
:1045B400C5F30165032D44D00120A84018608B6821
:1045C400002B35D0C8684C68034305F1180043EA52
:1045D400C403000133500B6906EB0514C4F884319D
:1045E400097D2B01012905D1D4F8841141F480718E
:1045F400C4F8841151683344C3F88C111268002044
:10460400C3F88821D4F8803143F00103C4F8803121
:1046140070BC7047636A012043F48023636270BCFA
:104624007047636A012043F40013636270BC7047EF
:104634000C68C86805F1180340EA44501B01F050A7
:10464400C9E7636A012043F40003636270BC7047E6
:1046540090F82030013B012B01D9002070470368FA
:1046640098689A689B681201C0F3806048BF013063
:10467400DB00F3D5013070472DE9F04190F820506C
:104684000446013D012D66D8006849B9C568AE07E6
:1046940009D1636A012043F400136362BDE8F08129
:1046A4000569AD07F5D000EB0115D5F8B0710E0121
:1046B40007F004079760002F54D0D5F8B071FF08B5
:1046C4005760D5F8B0E13044D5F8B4C1D5F8B47129
:1046D400D5F8B451D0F8B8810EF0020E0CF00F00EA
:1046E400C7F307272D0CC2E903E0C2E9055783F895
:1046F400008022683244D2F8B821120A5A70226823
:104704003244D2F8B821120C9A7022683244D2F89A
:10471400B821120EDA7022683244D2F8BC211A7120
:1047240022683244D2F8BC21120A5A7122683244F7
:10473400D2F8BC21120C9A7122681644D6F8BC2116
:10474400120EDA71226891B9D368084643F0200347
:10475400D360BDE8F081636A012043F4802363627F
:10476400BDE8F081D5F8B0717F0D1760A9E7136932
:10477400002043F020031361BDE8F08190F820206D
:104784000346013A012A05D95A6A012042F48022DB
:104794005A62704702680020536919435161704797
:1047A400704700BF704700BF704700BF704700BF2D
:1047B400704700BF704700BF704700BF704700BF1D
:1047C400704700BF704700BF704700BF704700BF0D
:1047D4002DE9F84F036805465C69D3F8048014F0AA
:1047E40001069F68D3F80CB0D3F810A0D3F8189042
:1047F40025D017F0010640F08F804FF400524FF49B
:104804008041F8050DD54FF480702B689860BB0586
:1048140000F1BE80780500F1E4803B0540F1F080B2
:104824000E46F8030BD54FF480322B68B9039A6017
:1048340000F1BA807A0340F1CF8046F4004627079E
:1048440002D51BF0100F61D1600703D51BF0080FD0
:1048540040F08C80A10704D52B68DB689A0740F0F0
:104864008C80630602D51AF0100F49D1A70602D531
:104874001AF0080F73D1E00603D52B681B6999075A
:1048840062D1A20302D518F0100F61D1E30302D55F
:1048940018F0080F75D1270405D518F0040F06D1B8
:1048A4002B6804225A60002E46D1BDE8F88FE0053B
:1048B40004D519F0010F18BF46F00106A10504D56F
:1048C40019F0020F18BF46F00206620504D519F06C
:1048D400040F18BF46F004062305E1D519F070094A
:1048E400DED0B9F1400F00F09A8061D8B9F1200F01
:1048F40000F08380B9F1300F68D146F020065FE004
:1049040010222B6846F480661A61AFE710222B68E8
:1049140046F40076DA6097E701229A60BB073BD43D
:104924007E0760D417F008066ED04FF440524FF45F
:10493400A0414FF4805664E76B6A28461E436E62BA
:10494400FFF744FFBDE8F88F2846FFF737FF98E7E5
:1049540010222B6828465A60FFF734FF96E7082296
:104964002B6828461A61FFF72BFF84E708222B687F
:104974002846DA60FFF720FF6CE7284603F0A8F921
:104984006FE708222B6828465A60FFF71DFF82E76D
:104994002846FFF707FF44E7FFF702FF00264FF41E
:1049A40000524FF480412CE72846FFF7FDFE46E70E
:1049B400B9F1500F1ED0B9F1600F08BF46F48076EC
:1049C4002B689A6922F070029A616AE7B9F1100FB4
:1049D400F6D146F00806F3E73B031CD546F48036CF
:1049E4002DE716461DE74FF420524FF490414FF443
:1049F400006606E746F08006E2E746F01006DFE7C9
:104A04002846FFF7D5FE0CE7FFF7D0FE4FF400521F
:104A14004FF48041F5E62846FFF7CCFE0FE746F059
:104A24004006CDE74FF6FF01064A0302D06803F4BF
:104A3400E0630840034343F0BF6343F40033D360AF
:104A4400704700BF00ED00E0194B30B4DB68C3F3DE
:104A54000223C3F10705042D03F1040428BF042530
:104A6400062C19D94FF0FF34033B9C4022EA040280
:104A74004FF0FF34AC4021EA04019940002841EA98
:104A840002010CDB090100F16040C9B200F561408C
:104A940080F8001330BC704700221346E8E7054B4A
:104AA40000F00F000901C9B20344197630BC704705
:104AB40000ED00E0FCEC00E0002807DB012300F03F
:104AC4001F01034A8B40400942F82030704700BF61
:104AD40000E100E00138B0F1807F0DD230B4F02560
:104AE40000220721054B064C586084F823501046D9
:104AF40030BC9A60196070470120704710E000E0F4
:104B040000ED00E008B590F821200346022A03D006
:104B1400042201209A6308BD026845481168824254
:104B240021F00E011160116821F001011160414969
:104B340024D98A4255D014318A425ED014318A4233
:104B44005DD014318A4253D014318A4260D014317A
:104B54008A4263D0824267D001F567718A4240D0AD
:104B640014318A4249D014318A4248D014318A42DD
:104B740014BF4FF480324FF4805233E08A4222D083
:104B840014318A4237D014318A423BD014318A42DC
:104B94002BD014318A4238D014318A423BD082421D
:104BA4003FD001F567718A420DD014318A4222D078
:104BB40014318A4226D014318A4214BF4FF4803211
:104BC4004FF4805200E001221B494A604FF4807187
:104BD4005A6B19841AB118469047002008BD104634
:104BE40008BD012215494A60F0E74FF48052EBE713
:104BF4004FF48052F6E71022E6E71022F2E74FF472
:104C04008072EFE74FF48072DEE74FF48032DBE727
:104C14004FF48032E6E74FF48012D5E74FF4801268
:104C2400E0E74FF08072CFE74FF08072DAE700BF21
:104C340080000240080002400000024000040240DC
:104C44002DE9F84F6B4E8046307E012800F0C78076
:104C54001F4601230D4691463376FFF73FFB4CF286
:104C6400503B0446DFF890A105E0FFF737FB001B3B
:104C7400584500F2B280DAF80C30DB07F5D4DAF8E4
:104C84000C30980644BF2023CAF80C305A4BDA681B
:104C9400D10653D4DA69D20750D4DB6813F0040A7E
:104CA4004CD1B8F1010F06D0B8F1020F0CBF4FF090
:104CB40002084FF00408504C05EB48080022CAF1E2
:104CC400200CF26107FA0CFC29FA0AF0AAF120017F
:104CD400226940EA0C0027FA01F1084342F001027C
:104CE40080B222612880FFF7F9FA834607E0FFF7D4
:104CF400F5FA4CF25033A0EB0B00984265D8E26809
:104D0400D007F4D4E268910644BF2022E260E2684E
:104D1400D20632D4E269D3072FD4E06810F004003D
:104D24002BD12269023522F0010245450AF1100A0D
:104D34002261C3D100233376BDE8F88F2E4BDB68A4
:104D440013F010034ED104212B4AD268550704D521
:104D54000B46F26942F00102F261274AD169CC079D
:104D640007D5F16941F00401F161D16921F0010134
:104D7400D161214A0120D360DCE71F4BDB6813F0CB
:104D8400100328D0F369142143F00203F3611023C4
:104D9400194AD268500704D50B46F26942F0010261
:104DA400F261154AD169C90707D5F16941F00401D7
:104DB400F161D16921F00101D1610F4A0120D36071
:104DC400136923F001031361B4E72369032023F07B
:104DD40001032361AEE70421DAE70320AAE70220F6
:104DE400BDE8F88FF369142143F00203F361102343
:104DF400AAE700BF186B002000200240064B186988
:104E040010F0800006D00549054A59605A601869B7
:104E1400C0F3C010704700BF002002402301674563
:104E2400AB89EFCD70B50446FFF758FA0546264E18
:104E3400601C36D1244AD368D907FCD4224BDA68E3
:104E4400960644BF2022DA601F4BDA68D50607D4E1
:104E5400DA69D40704D4D86810F0040000D170BD16
:104E6400194BDB6813F0100326D10421164AD268CB
:104E7400500705D50B461549CA6942F00102CA61BB
:104E8400114AD169C90708D51048C16941F0040124
:104E9400C161D16921F00101D1610B4A0120D360C4
:104EA40070BDF368DB07C9D524B1FFF717FA401BBF
:104EB400A042BDD9032070BD04481421C269102347
:104EC40042F00202C261D1E700200240186B0020C8
:104ED4002DE9F8432D4E337E012B54D00123337634
:104EE40003688146022B31D04CF250308846FFF7DC
:104EF40099FF80BB4FF0FF33C8F80030D9E9025363
:104F040005EBC3239D4226D20746214C07E005F555
:104F14000065D9E9023203EBC223AB421CD9F76125
:104F240023694CF2503043F0020323616561236925
:104F340043F040032361FFF775FF236923F0020365
:104F440023610028E3D0C8F8005005E04CF250304B
:104F5400FFF768FF20B1012000233376BDE8F88312
:104F64000B4CF06123694CF2503043F0040323618D
:104F7400236943F040032361FFF754FF236923F0BF
:104F840004032361E8E70220BDE8F883186B0020DE
:104F9400002002402DE9F04F0C6885B0002C00F091
:104FA4009E800026DFF8F4C13346774FDFF8F081A6
:104FB400DFF8F0E1009004E0013334FA03F200F08A
:104FC4008E8001229A4032EA040002EA0405F3D1F9
:104FD4004C68122C00F28680122C0CD8DFE804F006
:104FE4008ABFBC0A0B0B0B0B0B0B0B0B0B0B0B0B2A
:104FF4000BB9B6000026FF2D00F28380DDF8009087
:105004004FEA830A0F24D9F8002004FA0AFB22EAA3
:105014000B0206FA0AFA42EA0A02C9F80020D1F899
:10502400049019F0805F00F08F80DCF818A023F062
:1050340003024AF0010ACCF818A0DCF818A002F127
:1050440080420AF0010ACDF80CA002F5803203F088
:10505400030ADDF80CB04FEA8A0AD2F808B004FA61
:105064000AF42BEA04000190009C4848844213D0BF
:1050740000F5806084427DD04548844271D0454823
:1050840084420CBF4FF0030B4FF0040B01980BFA52
:105094000AFA40EA0A000190019819F4803F9060EE
:1050A4003A6814BF2A43AA433A607A6819F4003F65
:1050B40014BF2A43AA437A60BA6819F4801F14BF44
:1050C4002A43AA43BA6019F4001FFA6839D0154379
:1050D400FD600C68013334FA03F27FF472AF05B05B
:1050E400BDE8F08F444505D013D9744502D02A4851
:1050F400844280D18C68E4B9FF2D4FF004067FF61A
:105104007DAF009A4FEA830AAAF1200A02F104094A
:1051140078E7DFF894904C45ECD009F570294C45BC
:10512400E8D0A9F580194C457FF465AF8C68002C54
:10513400E2D00098012C4FF008060CBF02614261D6
:1051440059E722EA0505FD600C6835E7CE680C36A0
:1051540051E7CE6804364EE7CE6808364BE7CE6892
:1051640049E74FF0020B01980BFA0AFA40EA0A00E9
:10517400019091E74FF0010B01980BFA0AFA40EA0B
:105184000A00019088E700BF0004014000080140C4
:1051940000100140001401400000321000100240D1
:1051A40000002210000031100000121002B909049E
:1051B40001617047002800F0FF812DE9F041036888
:1051C4000446DD0782B035D5AA494A6802F00C02CC
:1051D400042A00F039814A6802F00C02082A00F01F
:1051E4002F81A368B3F5803F10D0002B00F06781B6
:1051F400B3F5A02F00F0E2819E4B1A6822F48032AE
:105204001A601A6822F480221A6004E0994A13682A
:1052140043F480331360FFF761F8964E054605E0CA
:10522400FFF75CF8401B642800F2458133689A0359
:10523400F6D523689F0728D58E4A516811F00C0FC4
:1052440000F0E180516801F00C01082900F0D780DA
:105254006369002B00F071810122874B854E1A602F
:10526400FFF73CF8054605E0FFF738F8401B022835
:1052740000F2218133689807F6D53368A26923F0D8
:10528400F80343EAC203336023681A0729D45E078C
:105294004CD5784BDA69D50000F1D0800125DA6964
:1052A40042F08052DA61DB6903F080530093009B83
:1052B400724B1A68D00540F1ED802369012B00F090
:1052C4006381002B00F01581052B6A4B1A6A00F0EC
:1052D400B88122F001021A621A6A22F004021A62E8
:1052E40057E1E369002B00F099800122644B614E81
:1052F4001A60FEF7F3FF054605E0FEF7EFFF401BDB
:10530400022800F2D880736A9B07F6D55D4B5E4A8B
:105314001B68A2FB03235B0A019300BF019B5A1E77
:105324000192002BF9D123685E07B2D4E36A002B03
:1053340044D0504A5168C80305D5516801F00C01A6
:10534400082900F09781022B40F00881494B1A6824
:10535400D20005D5DB6A626B03F0F003934259D1A6
:1053640000224A4B434D1A60FEF7B8FF064605E09B
:10537400FEF7B4FF801B642800F29D802B681B019C
:10538400F6D40121EB6A626B23F0F0031343EB6262
:10539400EB6A206B3D4A23F470630343EB621160B4
:1053A400FEF79CFF334E054605E0FEF797FF401BD2
:1053B400642800F2808033681F01F6D5226AD2B1D6
:1053C4002C4D696801F00C01082900F04281022A81
:1053D4004FF000012E4A00F0FE801160FEF77EFFC0
:1053E4002C46054604E0FEF779FF401B022862D8EC
:1053F40023689B01F7D4002002B0BDE8F081526815
:10540400D6033FF525AF1B4A1268950726D5626976
:10541400012A23D0012002B0BDE8F081184A154EBC
:105424001360FEF75BFF054604E0FEF757FF401BE1
:10543400022840D8736A9F07F7D474E7002537E73A
:105444004A68D0037FF5CDAE0A4A126891037FF50E
:10545400F1AEA268002A7FF4EDAEDBE70549A0694E
:105464000A6822F0F80242EAC0020A601A077FF5CD
:105474000EAF36E7001002400000424200700040C8
:105484008004424244000020D34D6210680042422E
:10549400600042421A681F4642F480721A60FEF7A6
:1054A4001DFF06463B68D9053FF507AFFEF716FF1B
:1054B400801B6428F6D9032002B0BDE8F08103F113
:1054C400804303F504331A681E4622F480321A60BE
:1054D4001A6822F480221A60FEF700FF054604E0F1
:1054E400FEF7FCFE401B6428E5D833689B03F7D421
:1054F4009FE603F1804303F504331A6A1F4622F042
:1055040001021A621A6A41F2883822F004021A620D
:10551400FEF7E4FE064604E0FEF7E0FE801B40458D
:10552400C9D83B6A9B07F7D4002D3FF4FFAE544A19
:10553400D36923F08053D361F8E6524A504E136086
:10554400FEF7CCFE054604E0FEF7C8FE401B022829
:10555400B1D833689907F7D4236896E60020484BFE
:105564004949DA6A1E4622F48032DA620860FEF79C
:10557400B5FE054604E0FEF7B1FE401B64289AD848
:1055840033681801F7D419E73D4A136A43F001035D
:105594001362FEF7A3FE41F288380646384F04E052
:1055A400FEF79CFE801B404585D83B6A9A07F7D5D9
:1055B400002D3FF4BBAEBAE70120704703F18043EE
:1055C400A3F53C331A6842F480221A601A6842F444
:1055D40080321A601FE61160FEF780FE064605E081
:1055E400FEF77CFE801B02283FF665AF2B6899010D
:1055F400F6D4636AB3F5803F09D1EA6A61680A4365
:10560400EA62EA6AE16822F00F020A43EA620120D0
:105614001B4DA16A6A680B4322F474121B4913439D
:105624006B600860FEF75AFE2C46054605E0FEF75F
:1056340055FE401B02283FF63EAF23689A01F6D57B
:10564400D9E642F004021A621A6A42F001021A62AE
:105654009FE7012A3FF4DEAE6B68626A03F480318F
:1056640091427FF4D7AEA26A03F4701393427FF49D
:10567400D1AEC0E6D26AD1033FF5CCAE63E600BF3B
:105684000010024000004242680042426000424270
:10569400F0B589B06C46254B0FCB07C4244A238050
:1056A40008AC0FCA04E90F0022494A6802F00C034F
:1056B400042B2CD0082B27D1C2F383432344D203D9
:1056C40013F8204C26D5CB6A08AAC86A03F00F0346
:1056D400134413F8102CC30321D5CB6ACE6A164D9C
:1056E400C6F303260236A6FB0467A6FB0501C3F333
:1056F4000313013305FB0711A3FB0223FAF7C8FFC9
:105704000D2C02D1400800E00C4809B0F0BD0A4855
:1057140009B0F0BD0A4800FB04F009B0F0BD06482A
:1057240000FB04F0B0FBF2F0EAE700BF309200089F
:10573400EC9300080010024040787D0100127A00CA
:1057440000093D00002800F08C80494A2DE9F04111
:105754001368044603F007038B420D460CD213680A
:1057640023F007030B431360136803F007038B4212
:1057740002D00120BDE8F0812368980714D55907A9
:1057840004D53C494A6842F4E0624A601A0704D5E9
:1057940038494A6842F460524A603649A0684A6807
:1057A40022F0F00202434A60DF0720D56268314BE1
:1057B400012A1B6857D0022A50D09907D9D52D4EFB
:1057C40041F28838736823F0030313437360FEF7D0
:1057D40085FD074604E0FEF781FDC01B404545D822
:1057E4007368626803F00C03B3EB820FF3D1204AB1
:1057F400136803F00703AB4209D9136823F00703C6
:105804002B431360136803F00703AB42B1D1236841
:105814005A0706D51749E0684A6822F4E062024351
:105824004A601B0707D5134A2169536823F4605360
:1058340043EAC1035360FFF72BFF0E4B0E4A5B682C
:105844000E49C3F30313D35C0D4A20FA03F308682B
:105854001360FEF701FD0020BDE8F0819801AED48D
:1058640087E7012070479E03A9D482E7032081E7DC
:105874000020024000100240D49200084C00002096
:1058840044000020044B05495B68054AC3F3022326
:10589400CB5C1068D840704700100240E4920008C6
:1058A40044000020044B05495B68054AC3F3C22346
:1058B400CB5C1068D840704700100240E4920008A6
:1058C40044000020002860D038B590F83D300446EC
:1058D40003F0FF02002B3FD0022322682C4984F8F6
:1058E4003D308A4213683CD0B2F1804F0BD0A1F511
:1058F40094318A4207D001F580618A4203D001F5D0
:1059040080618A4207D1A16823F070030B432169A7
:1059140023F440730B43A569E068616823F08003B6
:105924002B431360D06291620123536184F84630A3
:1059340084F83E3084F83F3084F8403084F84130B5
:1059440084F8423084F8433084F8443084F8453095
:1059540084F83D30002038BD80F83C20FEF736F84E
:10596400BAE7A16823F070030B43216923F4407361
:105974000B43A16923F080030B431360E368D362F4
:105984006368936263691363CEE70120704700BFC5
:10599400002C014090F83D30012B23D102220368F2
:1059A40080F83D20DA68114942F001028B42DA6046
:1059B4000DD0B3F1804F0AD00D4A934207D002F5BF
:1059C4008062934203D002F58062934204D19A68C4
:1059D40002F00702062A07D01A68002042F00102EA
:1059E4001A6070470120704700207047002C014066
:1059F40000040040034641F211101A68D16821F0F6
:105A04000101D160116A014208D140F24441106A97
:105A1400084203D1116821F0010111600122002024
:105A240083F83D20704700BF90F83C30012B74D0C0
:105A3400F0B402230124026880F83C4080F83D3031
:105A440094680B6824F47F4424F07704602B9460FA
:105A540065D031D8402B48D021D9502B16D1156AA6
:105A6400166A4C6826F00106CF681662936925F021
:105A74000A0123F0F00343EA0713214393611162FF
:105A8400936823F0700343F05703936000230122CB
:105A940080F83C3080F83D20F0BC18467047202B3D
:105AA40002D01ED9302BF1D1916821F070010B4343
:105AB40043F007039360E9E7702B49D0B3F5005F27
:105AC400E4D1D1E90153CC6891682B4343EA042320
