:020000040800F2
:10000000000001209D370008A1300008A53000083D
:10001000A9300008AD300008B13000080000000031
:10002000000000000000000000000000B5300008E3
:10003000B930000800000000BD300008C1300008E1
:10004000E5370008E5370008E5370008E537000820
:10005000E5370008E5370008E5370008E537000810
:10006000E5370008E5370008E5370008E537000800
:10007000E5370008E5370008E5370008E5370008F0
:10008000E5370008E5370008E5370008C530000807
:10009000D1300008E5370008E5370008E5370008EB
:1000A000E5370008DD300008E5370008E5370008CF
:1000B000E5370008FD3000081D310008E53700086D
:1000C000E5370008E5370008E5370008E5370008A0
:1000D000E53700083D310008E5370008E53700083E
:1000E000E5370008E5370008E537000800000000A4
:1000F0000000000000000000000000000000000000
:100100000000000000000000E5370008E5370008A7
:10011000E5370008E5370008E5370008E53700084F
:10012000E5370008E5370008E5370008E53700083F
:10013000E5370008E5370008E5370008E53700082F
:10014000E5370008E5370008E5370008E53700081F
:10015000000000000000000000000000000000009F
:10016000000000000000000000000000000000008F
:10017000000000000000000000000000000000007F
:10018000000000000000000000000000000000006F
:10019000000000000000000000000000000000005F
:1001A000000000000000000000000000000000004F
:1001B000000000000000000000000000000000003F
:1001C000000000000000000000000000000000002F
:1001D000000000000000000000000000000000001F
:0401E0005FF8E0F1F3
:1001E40010B5054C237833B9044B13B10448AFF36D
:1001F40000800123237010BDB8000020000000001F
:100204007487000808B5034B1BB103490348AFF3D7
:10021400008008BD00000000BC00002074870008B6
:100224004FF0FF0C1CEAD0521EBF1CEAD15392EAD5
:100234000C0F93EA0C0F6FD01A4480EA010C4002B1
:1002440018BF5FEA41211ED04FF0006343EA50100B
:1002540043EA5111A0FB01310CF00040B1F5000F4D
:100264003EBF490041EAD3715B0040EA010062F1FC
:100274007F02FD2A1DD8B3F1004F40EBC25008BFE6
:1002840020F00100704790F0000F0CF0004C08BF04
:1002940049024CEA502040EA51207F3AC2BFD2F1D1
:1002A400FF0340EAC250704740F400004FF00003DF
:1002B400013A5DDC12F1190FDCBF00F00040704719
:1002C400C2F10002410021FA02F1C2F1200200FA57
:1002D40002FC5FEA310040F1000053EA4C0308BF1E
:1002E40020EADC70704792F0000F00F0004C02BF6F
:1002F400400010F4000F013AF9D040EA0C0093F0EA
:10030400000F01F0004C02BF490011F4000F013B43
:10031400F9D041EA0C018FE70CEAD15392EA0C0FB1
:1003240018BF93EA0C0F0AD030F0004C18BF31F01C
:10033400004CD8D180EA010000F00040704790F0F2
:10034400000F17BF90F0004F084691F0000F91F096
:10035400004F14D092EA0C0F01D142020FD193EA5C
:100364000C0F03D14B0218BF084608D180EA0100E4
:1003740000F0004040F0FE4040F40000704740F0C0
:10038400FE4040F44000704781F0004102E000BFAD
:1003940083F0004330B54FEA41044FEA430594EA41
:1003A400050F08BF90EA020F1FBF54EA000C55EA7C
:1003B400020C7FEA645C7FEA655C00F0E2804FEA4D
:1003C4005454D4EB5555B8BF6D420CDD2C4480EA2F
:1003D400020281EA030382EA000083EA010180EA5F
:1003E400020281EA0303362D88BF30BD11F0004FAD
:1003F4004FEA01314FF4801C4CEA113102D04042E3
:1004040061EB410113F0004F4FEA03334CEA13331D
:1004140002D0524263EB430394EA050F00F0A78035
:10042400A4F10104D5F1200E0DDB02FA0EFC22FA30
:1004340005F2801841F1000103FA0EF2801843FA24
:1004440005F359410EE0A5F120050EF1200E012A15
:1004540003FA0EFC28BF4CF0020C43FA05F3C01853
:1004640051EBE37101F0004507D54FF0000EDCF1CC
:10047400000C7EEB00006EEB0101B1F5801F1BD375
:10048400B1F5001F0CD349085FEA30004FEA3C0C79
:1004940004F101044FEA445212F5800F80F09A806F
:1004A400BCF1004F08BF5FEA500C50F1000041EB73
:1004B400045141EA050130BD5FEA4C0C404141EB77
:1004C4000101013C28BFB1F5801FE9D291F0000F72
:1004D40004BF01460020B1FA81F308BF2033A3F121
:1004E4000B03B3F120020CDA0C3208DD02F1140C18
:1004F400C2F10C0201FA0CF021FA02F10CE002F153
:100504001402D8BFC2F1200C01FA02F120FA0CFC4B
:10051400DCBF41EA0C019040E41AA2BF01EB045194
:10052400294330BD6FEA04041F3C1CDA0C340EDC92
:1005340004F11404C4F1200220FA04F001FA02F3D5
:1005440040EA030021FA04F345EA030130BDC4F193
:100554000C04C4F1200220FA02F001FA04F340EA88
:100564000300294630BD21FA04F0294630BD94F039
:10057400000F83F4801306BF81F480110134013D20
:100584004EE77FEA645C18BF7FEA655C29D094EA91
:10059400050F08BF90EA020F05D054EA000C04BF0F
:1005A4001946104630BD91EA030F1EBF00210020FA
:1005B40030BD5FEA545C05D14000494128BF41F099
:1005C400004130BD14F580043CBF01F5801130BDFD
:1005D40001F0004545F0FE4141F470014FF0000088
:1005E40030BD7FEA645C1ABF194610467FEA655C39
:1005F4001CBF0B46024650EA013406BF52EA0335DB
:1006040091EA030F41F4002130BD00BF90F0000FC8
:1006140004BF0021704730B54FF4806404F1320404
:100624004FF000054FF0000150E700BF90F0000FBD
:1006340004BF0021704730B54FF4806404F13204E4
:1006440010F0004548BF40424FF000013EE700BFB4
:1006540042004FEAE2014FEA31014FEA02701FBF44
:1006640012F07F4393F07F4F81F06051704732F076
:100674007F4208BF704793F07F4F04BF41F40021CD
:10068400704730B54FF4607401F0004521F000412B
:100694001CE700BF50EA010208BF704730B54FF0B5
:1006A40000050AE050EA010208BF704730B511F0B6
:1006B400004502D5404261EB41014FF4806404F1EE
:1006C40032045FEA915C3FF4D8AE4FF003025FEA74
:1006D400DC0C18BF03325FEADC0C18BF033202EBF8
:1006E400DC02C2F1200300FA03FC20FA02F001FA52
:1006F40003FE40EA0E0021FA02F11444BDE600BFF5
:100704004A0011D212F5001211D20DD56FF478738C
:10071400B3EB62520ED44FEAC12343F0004343EAE1
:10072400505323FA02F070474FF00000704750EA2C
:10073400013002D14FF0FF3070474FF00000704796
:1007440080F0004002E000BF81F0004142001FBF82
:100754005FEA410392EA030F7FEA226C7FEA236C8B
:100764006AD04FEA1262D2EB1363C1BFD218414080
:1007740048404140B8BF5B42192B88BF704710F016
:10078400004F40F4000020F07F4018BF404211F0B9
:10079400004F41F4000121F07F4118BF494292EA21
:1007A400030F3FD0A2F1010241FA03FC10EB0C004D
:1007B400C3F1200301FA03F100F0004302D54942DA
:1007C40060EB4000B0F5000F13D3B0F1807F06D387
:1007D40040084FEA310102F10102FE2A51D2B1F17F
:1007E400004F40EBC25008BF20F0010040EA030074
:1007F4007047490040EB0000013A28BFB0F5000FF4
:10080400EDD2B0FA80FCACF1080CB2EB0C0200FAA9
:100814000CF0AABF00EBC25052421843BCBFD040F8
:100824001843704792F0000F81F4000106BF80F472
:1008340000000132013BB5E74FEA41037FEA226C35
:1008440018BF7FEA236C21D092EA030F04D092F000
:10085400000F08BF0846704790EA010F1CBF002034
:10086400704712F07F4F04D1400028BF40F0004091
:10087400704712F100723CBF00F50000704700F0B1
:10088400004343F0FE4040F4000070477FEA2262D8
:1008940016BF08467FEA23630146420206BF5FEAA9
:1008A400412390EA010F40F4800070474FF00003A9
:1008B40004E000BF10F0004348BF40425FEA000C70
:1008C40008BF704743F0964301464FF000001CE018
:1008D40050EA010208BF70474FF000030AE000BF6E
:1008E40050EA010208BF704711F0004302D54042AC
:1008F40061EB41015FEA010C02BF8446014600201E
:1009040043F0B64308BFA3F18053A3F50003BCFA38
:100914008CF2083AA3EBC25310DB01FA02FC6344E5
:1009240000FA02FCC2F12002BCF1004F20FA02F2EC
:1009340043EB020008BF20F00100704702F12002DF
:1009440001FA02FCC2F1200250EA4C0021FA02F240
:1009540043EB020008BF20EADC70704753B94AB980
:10096400002908BF00281CBF4FF0FF314FF0FF30B3
:1009740000F06EB9ADF1080C6DE904CE00F006F894
:10098400DDF804E0DDE9022304B070472DE9F04707
:10099400089E0D4604468E46002B40F083808A4212
:1009A400174647D9B2FA82F34BB1C3F1200105FAD5
:1009B40003FE20FA01F19F4041EA0E0E9C404FEAEB
:1009C4001748BEFBF8FC1FFA87F908FB1CE20CFB76
:1009D40009F0210C41EA024290420AD9BA180CF1FA
:1009E400FF3180F01881904240F21581ACF1020C85
:1009F4003A44121AB2FBF8F008FB102200FB09F18A
:100A0400A4B244EA0244A14209D93C1900F1FF32DC
:100A140080F00381A14240F2008102383C44641A10
:100A2400002140EA0C401EB10022DC40C6E900422D
:100A3400BDE8F08702B9FFDEB2FA82F3002B4FD192
:100A44008D1A01214FEA124E1FFA82F8B5FBFEFC03
:100A54000EFB1C5508FB0CF0220C42EA0545A8428B
:100A640007D97D190CF1FF3202D2A84200F2E980C5
:100A740094462D1AB5FBFEF00EFB105508FB00F84A
:100A8400A4B244EA0544A04507D93C1900F1FF3259
:100A940002D2A04500F2D9801046A4EB080440EA33
:100AA4000C40C0E78B4208D9002E00F0B180002131
:100AB400C6E900050846BDE8F087B3FA83F10029CA
:100AC4004BD1AB4202D3824200F2B980841A65EB67
:100AD400030301209E46002EAAD0C6E9004EA7E7D4
:100AE4009F40C3F12002D1404FEA174EB1FBFEF004
:100AF4001FFA87F80EFB101124FA02F29D4000FB46
:100B040008FC2A43150C45EA0145AC4504FA03F4F4
:100B140009D97D1900F1FF3180F08F80AC4540F296
:100B24008C8002383D44A5EB0C05B5FBFEF10EFBB1
:100B3400115C01FB08F995B245EA0C45A94507D9B2
:100B44007D1901F1FF3274D2A94572D902393D44AD
:100B5400A5EB090541EA004178E7C1F120078B4084
:100B640022FA07FC4CEA030C25FA07F44FEA1C4E60
:100B7400B4FBFEF91FFA8CF80EFB194420FA07F3B4
:100B840009FB08FA8D401D432B0C43EA0444A2459B
:100B940002FA01F200FA01F309D91CEB040409F189
:100BA400FF3048D2A24546D9A9F102096444A4EB16
:100BB4000A04B4FBFEF00EFB104400FB08FAADB2CD
:100BC40045EA0444A24508D91CEB040400F1FF35AE
:100BD4002DD2A2452BD90238644440EA0940A0FB37
:100BE4000289A4EB0A044C45C6464D4619D316D0D7
:100BF4005EB1B3EB0E0264EB050404FA07F722FAC4
:100C040001F31F43CC40C6E900740021BDE8F0871E
:100C1400314630460CE78C46EBE61046FFE643458A
:100C2400E6D2B8EB020E69EB0C050138E0E7284682
:100C3400D3E711468CE78146B9E7084673E70846CF
:100C440049E7ACF1020C3D4413E702383C4424E785
:100C5400704700BF034B93F8793003B97047012004
:100C640000F06EBB9C440020082815D801290BD045
:100C740070B504461548462100EB840005F024FEB7
:100C84000128054609D070BD00231149114AC1E964
:100C94000033C2E90033704770470E4E2046315D81
:100CA40005F090F80A4A135D3BB9335D0133DBB2BA
:100CB4000C2B3355E7D9155570BD335D013BDBB2C1
:100CC4003355002BDFD1135570BD00BFDC0000206D
:100CD400D4000020FC000020F0B40025C749C84B14
:100CE400C84EC94CC9484F1CC94AC3E90161DF60F9
:100CF400CE1C8F1C1F615E61A71C00F11006C3E9A6
:100D04000647C3E90860571C961CC3E90A271E63FB
:100D1400D71C561E5F63DE63971F01F11C069F6399
:100D24001E6401F11D0701F11E065F649E6401F15A
:100D34001F0704F11806DF641E6504F11A07861CF8
:100D44005F65DE6500F1120702F10A069F651E6603
:100D540002F10B0702F10C065F669E6602F10D07B5
:100D640002F10906DF665E67171D01F138061F6789
:100D74009E6701F13A0701F13B065D709D7004F135
:100D84003005C3F88070C3F8846004F13207061D8F
:100D9400C3F8885000F11405C3F88C70C3F894604C
:100DA40002F1140702F11506C3F8905002F116057A
:100DB400C3F89870C3F89C6002F1170702F1130698
:100DC400C3F8A05002F10E05C3F8A470C3F8AC60D8
:100DD40001F1540701F15506C3F8A85001F1560575
:100DE400C3F8B070C3F8B46001F1570704F14806C2
:100DF400C3F8B85004F14A05C3F8BC70C3F8C06026
:100E0400871D00F11606C3F8C45002F11E05C3F88D
:100E1400CC70C3F8C86002F11F0702F12006C3F8C2
:100E2400D05002F12105C3F8D470C3F8D86002F1A0
:100E34001D0702F11806C3F8DC5001F17005C3F870
:100E4400E470C3F8E06001F1710701F17206C3F8C0
:100E5400E85001F1730501F1390CC3F8EC70C3F8E3
:100E6400F06004F1600704F16206C3F8F45000F185
:100E74000805C3F87CC0C3F8F870C3F8FC6000F13F
:100E8400180702F12806C3F8045102F12905C3F832
:100E94000071C3F8086102F12A0702F12B06C3F8B6
:100EA4000C5102F12705C3F81071C3F8146102F163
:100EB400220701F18C06C3F81C5101F18D05C3F81A
:100EC4001871C3F8206101F18E0701F18F06C3F890
:100ED400245104F17805C3F82871C3F82C6104F196
:100EE4007A0700F10A06C3F8305100F11A05C3F875
:100EF4003471C3F83C6102F1320702F13306C3F8DE
:100F0400385102F13405C3F84071C3F8446102F169
:100F1400350702F13106C3F8485102F12C05C3F834
:100F24004C71C3F8546101F1A80701F1A906C3F893
:100F3400505101F1AA05C3F85871C3F85C6101F17D
:100F4400AB0704F19006C3F8605104F19205C3F8AD
:100F54006471C3F8686100F10C0700F11C06C3F862
:100F64006C5102F13C05C3F87471C3F8706102F16D
:100F74003D0702F13E06C3F8785102F13F05C3F87C
:100F84007C71C3F8806102F13B0702F13606C3F8B5
:100F9400845101F1C405C3F88C71C3F8886101F16F
:100FA400C50701F1C606C3F89051C73104F1A8057D
:100FB400AA3400F10E0CC3F894711E3002F14607F6
:100FC400C3F89861C3F89C1102F1470602F1450188
:100FD400C3F8A051C3F8A44102F1480502F1490441
:100FE4004032C3E96C76C3E96E54F0BCC3E97021A6
:100FF400C3F8ACC1C3F8A801704700BFE4450020A2
:1010040004010020E5150008BE460020666A0020A1
:10101400BE48002000F016BA0122024B58701A7024
:10102400704700BFCC0200202DE9F8431C4D2B78FB
:10103400012B01D0BDE8F88300234FF026081C469D
:10104400184F194E2B7001E0082CF3D06B785FFA1F
:1010540084F903EBC303234407EB430393F82120F0
:10106400012108FB02620A234846213205F094FB61
:101074006B7803EBC303234407EB430393F821305A
:10108400013408FB036393F820100029DCD04846A0
:1010940005F014FA48460E227C2105F019FBD3E72B
:1010A400CC020020BC2D002098030020F8B50025B8
:1010B4002F46124EECB201222046032106F8017F8E
:1010C40004F0DEFE2046002105F02EFE204610220C
:1010D400202105F0FDFA204611224F2105F0F8FAEF
:1010E40020461222462105F0F3FA01352046132248
:1010F400462105F0EDFA082DDCD1F8BDCF02002021
:10110400082804D8012903D00022034B1A5470473D
:10111400014B1954704700BFD002002008289ABF21
:10112400014B185CFF207047D0020020262110B428
:101134002E4A2F4B54782F4A04EBC40403EB440388
:1011440093F8214001FB042494F82040844240D0C9
:1011540093F8234001FB042494F8204084423AD0BD
:1011640093F8254001FB042494F82040844234D0B1
:1011740093F8274001FB042494F8204084422ED0A5
:1011840093F8294001FB042494F82040844228D099
:1011940093F82B4001FB042494F82040844222D08D
:1011A40093F82D4001FB042494F8204084420CD091
:1011B40093F82F3001FB032292F82030834208BFBA
:1011C400072003D0FF2010BC70470620C0B210BC1B
:1011D40070470020FAE70120F8E70220F6E7032031
:1011E400F4E70420F2E70520F0E700BFCC0200207A
:1011F400BC2D0020980300202DE9F04F464E00241A
:10120400DFF81C81DFF81CB1DFF81CA1DFF81C91AA
:1012140087B006F1090506F1310729E0262299F87D
:10122400013003EBC30323440AEB430393F8213057
:1012340002FB03B393F820305BB1398AB8F8083065
:1012440099421ED0142105F1480005F03DFB012808
:1012540035D03221284605F037FB01280CD0013463
:10126400082C05F1040508F1100807F1020723D042
:1012740016F8013F002BD1D10721E0B204F0B0FDF4
:10128400EDE796F82830012BE3D1E0B20521059073
:1012940004F0A6FD002386F828303988059805F067
:1012A40043FD3988059805F03BF902F0DDFAA8649E
:1012B40002F0DAFA2860CCE707B0BDE8F08FE3B2B9
:1012C40018460621059304F08BFD1F2026220023D7
:1012D40099F80110009001EBC10121440AEB41018E
:1012E40091F82110B8F808C002FB01B292F820105E
:1012F4000A4ACDF808C00191184619461278A7F891
:1013040010C005F049FE0598B8F8081005F008F972
:1013140002F0AAFA28609CE7CF020020886A002025
:101324001844002098030020BC2D0020CC0200208B
:10133400024B5B7803B17047FFF75EBF04010020E6
:10134400052806D8034B5A78824202D00122D8706D
:101354001A70704704010020054B9A78052A05D8B5
:101364005978914202D00121DA701970704700BF98
:101374000401002070B52B4E3378012B00D070BDD2
:101384000025F3783570052BF9D872787370B27034
:1013940005F070F8ECB2204605F078FA20460721F3
:1013A40004F01EFD2046002104F05CFD20460021CF
:1013B40004F008FD20460122002104F061FD012211
:1013C4002046114604F05CFD01222046022115440A
:1013D40004F056FD20460122032104F051FD082D9E
:1013E400D8D17378052B19D8DFE803F0120F0C0954
:1013F40006030D4B736070BD0C4B736070BD0C4BDA
:10140400736070BD0B4B736070BD0B4B736070BD2C
:1014140001210A4A0A4B1170736070BD084B736056
:1014240070BD00BF0401002095220008F5200008CB
:10143400AD1E0008A5170008CD160008CC02002038
:10144400E5150008094B10B55B689847FFF792FF54
:10145400074B1A7842B1002214461A70E0B20134E4
:1014640005F014FA082CF9D110BD00BF04010020C6
:10147400000000202DE9F04F00244FF026093D4DD7
:10148400DFF800813C4F3D4EDFF8FCB087B008E048
:10149400012B04BF00232B700134082C05F1010536
:1014A4003ED07378C4EBC40203EBC303234407EBBD
:1014B400430393F8213009FB038393F82030002B76
:1014C400EAD01BF822A02B78BAF1010FE0D1002B4F
:1014D400E2D10493E3B21846039385F800A0FFF722
:1014E4001DFE0128049B1ED00398FFF717FE034638
:1014F4000028D1D14FF01F0C7278514602EBC20282
:10150400224407EB420292F8212009FB028292F85E
:101514002020CDE900C21A4A127805F061FDBBE72C
:1015240007B0BDE8F08FDDF80CA0194605905046D1
:10153400FFF7E6FD059A5046032104F0A1FC049B45
:101544005046194605F0F0FB50461022202105F0C4
:10155400BFF8504611224F2105F0BAF85046122226
:10156400462105F0B5F850461322462105F0B0F89F
:1015740092E700BF40030020BC2D0020CC020020D5
:10158400886A002098030020E7450020082800D935
:10159400704770B504460D460121FFF7B1FD0022E6
:1015A4000321204604F06CFC0B4E0C4B06EB041696
:1015B40003EB4403DD8428463581FFF777F90346BE
:1015C40029462046736005F0AFFB29462046BDE856
:1015D400704004F0A5BF00BF18440020406A0020FA
:1015E4002DE9F843324B1A78012A42D00025314EB6
:1015F4002F46314CDFF8C480DFF8C89015E0022B89
:1016040021D02178E8B2377504F0DCFBB4F900305E
:1016140059F82330C8F80C300135082D06F11806A6
:1016240004F1020408F1100816D0337D002BF3D026
:10163400012BE4D1218801310BB20C2B89B208DDD6
:101644000D212180DEE7218801390BB2002B89B2FC
:101654000CDB2380C9B2D5E7FFF70CFFFFF768FE68
:10166400FFF7F8FABDE8F843FFF7DEBC0021278056
:10167400C8E7002214469146104D114FDFF844800C
:101684001A70E6B22989304604F04AFFD8F80030CF
:101694003046EB600021013427F8029F04F092FBEE
:1016A400082C05F11005ECD1FFF700FD9EE700BF03
:1016B40001000020AC46002048030020184400200C
:1016C400460300200400002038B5314C217801295C
:1016D40027D0304B93F87920EAB1DB6FB3F52F7F35
:1016E4000ED3B3F57A7F35D340F2135293423CD9EB
:1016F400B3F5C86F23D340F26B72934240D938BD1F
:101704000221072004F0AEFBBDE838400F222E2151
:10171400072004F0DDBF01232370BDE83840FFF744
:101724001BBE0025082307201B4A257005F034F84A
:10173400052302210720194A05F02EF8C9E70821DC
:10174400072004F08FFBBDE8384012222E21072029
:1017540004F0BEBF0421072004F084FBBDE8384038
:1017640010222E21072004F0B3BF0621072004F025
:1017740079FBBDE8384011222E21072004F0A8BFD0
:10178400012302202370BDE83840FFF7D9BD00BF14
:101794003C0000209C440020A4870008AC8700087B
:1017A400F8B54E4D2C78012C53D04D4B93F879203D
:1017B40042BB01224B4C22701E7A012E72D01E7E37
:1017C400012E00F0838093F82820012A3CD093F85E
:1017D4003820012A38D093F84820012A34D093F8CD
:1017E4005820012A30D093F86820012A2CD093F88D
:1017F4007860012E0AD10520FFF7A2FD00232E7088
:10180400237003E0374C2278002AD5D14FF4FA71C3
:10181400354805F059F80128044600D0F8BD334B8B
:10182400187880F001021A70002842D0002108467E
:1018340004F0C8FA2046002104F0C4FABDE8F840D8
:101844000021072004F0BEBA012200232A7023706D
:10185400DCE70026264F304621460523254A2E7014
:101864003C7004F099FF304607230221224A04F019
:1018740093FF214620460523204A04F08DFF20468D
:10188400072302211C4A04F087FF07232146184638
:101894001B4A04F081FF082302210720194A04F09F
:1018A4007BFF82E70320FFF74BFD00232E7023709C
:1018B400ACE70D2104F086FA20460D2104F082FAEB
:1018C400BDE8F8400D21072004F07CBA0420FFF79E
:1018D40037FD00232E70237098E700BF3D000020E1
:1018E4009C440020580300205C0300206003002077
:1018F40001000020B4870008BC870008C4870008E2
:10190400CC870008A48700082DE9F84F00244FF085
:101914002608244E244FDFF89890DFF898B01DE095
:10192400284604F0CBFD32780A2308FB0272012119
:101934002846213204F030FF0E227C21284604F090
:10194400C7FE284699F8001004F0EAFD0134284641
:101954001022502104F0BCFE082C21D016F8013FBF
:10196400E5B208FB037393F820100029D8D10A23A9
:101974005A460121284604F00FFF04230B4A022192
:10198400284604F009FF284699F8001004F0C8FD21
:10199400013428461022502104F09AFE082CDDD18F
:1019A400BDE8F88F7B03002098030020E08700083F
:1019B400B46A0020D487000842F2206342F2246211
:1019C4002DE9F04FDFF810928BB019F8033059F875
:1019D4000220DFF808B202930192013B794ADBB29C
:1019E4004FF0000ED84678491078DFF8F4A1774C10
:1019F400089312E00120019B81F800E01B7884F831
:101A040014E088F80030724B01318B420AF1100A5D
:101A140008F1010804F1180417D09AF80920002AE3
:101A2400E8D1237D002BEED0012B13D0022B5AD00A
:101A34000B7803F6881309EB83035B681B7801209A
:101A440088F8003084F814E0DDE75E4B18700BB0C2
:101A5400BDE8F08F0878029B0130C0B2984208704C
:101A640080F09280024600F6881309EB83035B68DA
:101A74009BF800009BF801C004909BF802001B78BF
:101A840003909BF80500551C05909BF80600EDB2E9
:101A940007909BF8070005F6891563459BF80370CA
:101AA4009BF80460099009EB8505069400F0828098
:101AB4000498181AB0FA80F04009039CA34208BFA6
:101AC4000120BB4208BF0120B34260D0059CA34261
:101AD4005DD0079CA3425AD0099CA34257D0012849
:101AE40055D0069CABE70A789BF801C0013AD2B204
:101AF400FF2A08BF089B9BF8027004BF1A460B70AC
:101B04009BF800309BF8036003939BF805309BF827
:101B1400045004939BF8063018BF0A7005939BF891
:101B24000730CDE9063402F6881309EB83035B68BA
:101B34001B78634526D00398181AB0FA80F0400940
:101B4400BB4208BF0120B34208BF0120AB420CD006
:101B5400049CA34209D0059CA34206D0069CA34240
:101B640003D0012801D0079C69E7013AD2B2FF2AC9
:101B740008BF089A0A70002AD5D1164B079C1B6827
:101B84001B785CE70120DBE7019B0A7070E7029B8E
:101B94000132D2B29A420A7005D3019B81F800E067
:101BA400069C1B784BE73AB155F8043B1B78634518
:101BB4007FF47EAF012080E7064B069C1B681B78F0
:101BC4003DE700BF3E00002064030020AC46002037
:101BD4006C030020BC290020980300207C03002013
:101BE4009C4400202DE9F041A64AA74992F8DE0062
:101BF4000B78012886B000F0A180012B00F08280D0
:101C040092F8DF40A14A012C107800F08580012869
:101C140007D0022805D0022B00F0858006B0BDE86D
:101C2400F08100234FF00108994F9A4E9A4D97F88E
:101C340000C096F800E0994C13702A780B700CEBF6
:101C4400CC00974904EB4000724580F821E081F80C
:101C5400008040F00781397870786B7801EBC1021D
:101C640004EB4202834282F8230040F0E780397893
:101C7400B078AB7801EBC10204EB4202834282F8F4
:101C8400250040F0C7803978F078EB7801EBC10289
:101C940004EB4202834282F8270040F0A78039789F
:101CA40030792B7901EBC10204EB4202834282F8C2
:101CB400290040F08780397870796B7901EBC10293
:101CC40004EB4202834282F82B0067D13978B07961
:101CD400AB7901EBC10204EB4202834282F82D008E
:101CE40048D13A78F179EB7902EBC20004EB400475
:101CF4008B4284F82F1027D1002006B0BDE8F041B4
:101D0400FFF71EBB022092F8DF40604A012C034615
:101D1400087010787FF47BAF00287FF47AAF022B31
:101D240014707FF47BAF002010700870FFF708FB7D
:101D340001225B4B1A7006B0BDE8F081002B7FF4E2
:101D44005FAF034608705BE707251F20002394F864
:101D54003060CDE90125534C039100900496184658
:101D64001946227805F07EF9002006B0BDE8F0415E
:101D7400FFF7E6BA4FF0060E4FF01F0C002392F85F
:101D84002E20CDE9011ECDE90302464ACDF800C05C
:101D940019461846127805F065F9A2E74FF0050ECA
:101DA4004FF01F0C002392F82C20CDE9011ECDE941
:101DB40003023C4ACDF800C019461846127805F0D3
:101DC40051F983E74FF0040E4FF01F0C002392F8F3
:101DD4002A20CDE9011ECDE90302324ACDF800C024
:101DE40019461846127805F03DF964E74FF0030EE2
:101DF4004FF01F0C002392F82820CDE9011ECDE9F5
:101E04000302284ACDF800C019461846127805F096
:101E140029F944E74FF0020E4FF01F0C002392F80B
:101E24002620CDE9011ECDE903021E4ACDF800C0EB
:101E340019461846127805F015F924E74FF0010EFB
:101E44004FF01F0C002392F82420CDE9011ECDE9A8
:101E54000302144ACDF800C019461846127805F05A
:101E640001F904E71F2190F82200CDE901C30D4ACE
:101E740004900091CDF80CE019461846127805F04C
:101E8400F1F8E8E6CC450020750300207403002037
:101E9400B46A00207C0300206C030020BC2D0020C9
:101EA4003F000020886A0020F8B5314801780129F4
:101EB4001BD0304DFFF780FD2B78012B03D100237D
:101EC4002B70FFF721FDFFF78DFE4FF4FA712A48BE
:101ED40004F0FAFC01283BD00024E0B200210134D4
:101EE400FEF7C2FE082CF8D1F8BD0027234A244B84
:101EF4005278244C02EBC20503EB450393F82150BE
:101F04002270214C214A077093F8250093F823602E
:101F14002570157093F82750A070907093F82D00D9
:101F240093F8297066705670E57093F82B60D5703D
:101F340093F82F300F4DA0719071072027711771FE
:101F440066715671E371D3712970FEF78DFEB1E7A6
:101F54000F4C03210720227803F092FF022107206F
:101F6400227803F08DFF237883F001032370B3E715
:101F74003F0000203E00002078030020CC02002017
:101F8400BC2D0020B46A00207C0300206C030020D8
:101F9400840300202DE9F84300244FF02608214F44
:101FA400214D224E15E004F089FA0E227C21484688
:101FB40004F08EFB4846297804F0B2FA102250212E
:101FC400484604F085FB0134484604F05FFC082CC5
:101FD40026D02B785FFA84F903EBC303234407EB81
:101FE400430393F82120484608FB02620A23012197
:101FF400213204F0D1FB2B78484603EBC30323447E
:1020040007EB430393F8213008FB036393F8201094
:102014000029C8D12021013404F000FB082CD8D1B8
:10202400BDE8F883BC2D0020B46A0020980300208A
:10203400F0B5284A284C92F8DE102378012983B0A1
:1020440043D0012B0DD092F8DF10244D01292A78BA
:1020540010D0012A1DD0022A1BD0022B0FD003B0AE
:10206400F0BD02210B46217092F8DF101B4D0129AF
:102074002A78EED1002AEED1022B2970EFD100206C
:1020840028702070FFF75CF90122154B1A7003B019
:10209400F0BD1F2200264FF0010C124B12491B7891
:1020A4000092124A01930E4F30464B701278334619
:1020B40031462E70267087F800C005F041F830468E
:1020C40003B0BDE8F040FFF73BB9002BBBD10B4692
:1020D4002170B8E7CC450020870300208603002048
:1020E40041000020B46A0020CC020020886A00204D
:1020F40038B5314B197801293BD0304C304991F82F
:10210400BC307BB1012B42D0022B2E4B1A784AD023
:1021140000202D4B81F8BC001A7000232370FFF7B8
:1021240039FF02E02378012BF7D0FFF781FF4FF44A
:10213400FA71264804F0C8FB012805D0BDE83840F0
:1021440000210720FEF790BD214C032122780720AF
:1021540003F096FE02210720227803F091FE2378F3
:10216400002183F0010323700720BDE83840FEF707
:102174007BBD0025174A144C5278124822700F4C2C
:10218400027007201D702170FEF76EFDB6E70D4842
:10219400114D02782D780132D2B295420270B7D235
:1021A4001A460370B4E7013AD2B21A70002AAFD1CA
:1021B400094A12781A70ABE7410000204000002061
:1021C400AC46002085030020B46A00208803002068
:1021D4008C030020CC020020DC3F002038B5264AC6
:1021E400264C92F8DE10237801292ED0012B1DD025
:1021F40092F8DF00224A0128117820D0012904D066
:10220400022902D0022B2DD038BD002301201D4904
:102214001D4D1370097823702B781C4A8B42107063
:1022240018D1BDE838400020FFF78AB8022192F89F
:10223400DF00134A01280B4621701178DED10029F2
:10224400DED1022B1070DFD10CE0002BD0D10B4675
:102254002170CDE7297000F077F9BDE838400020FF
:10226400FFF76EB8002010702070FFF769F80122A4
:10227400064B1A7038BD00BFCC4500208E030020E9
:102284008D03002094030020886A0020420000206F
:1022940038B52E480178012936D04FF4FA712C480C
:1022A40004F012FB01281FD02A4B93F8BC1099B1FB
:1022B400012939D0284A0229117807D1013911F0AE
:1022C400FF0105BFFF200146117010700022072096
:1022D40083F8BC2004F024F900210720FEF7C4FC95
:1022E400BDE83840FFF77ABF1C4C03210720227851
:1022F40003F0C6FD02210720227803F0C1FD2378F4
:1023040083F001032370CFE70025154B124C1A7894
:102314000570227006230720124A04F03DFA0720B4
:10232400217804F0FDF8B8E70B480278013212F086
:10233400FF021CBF027011464FF0000208BF01707B
:1023440083F8BC20072004F0EBF8C5E74200002026
:1023540090030020AC460020940300209503002045
:10236400886A0020E8870008002000B50B7983B054
:10237400C978074A03F00F0300909B0043EA9113C6
:102384001278012104F0BAFE03B05DF804FB00BF2B
:10239400886A00202623114670B442F22064107823
:1023A4001A4D03FB00F3EE1886F8200051F8020FD3
:1023B4002133E85089882B4499802E5D86B1012110
:1023C400134B107803EB860453F8042F12788242DF
:1023D40008BF0021A342F7D1012902D070BC704785
:1023E4001078262342F2206103FB00F006F68813DE
:1023F40000F1200228442A4405EB830380F844605A
:1024040001366E545A6070BC704700BF98030020B8
:10241400B829002026231078064910B400FB0334A1
:1024240003FB001383F82000D2F80230013163501B
:1024340010BC704798030020517803290CD8262338
:10244400107801EB410103FB00F3D2F8020003EB27
:102454004103024A28339850704700BF9E0300206E
:102464005178072926D8F0B410781B4D00EBC0032F
:1024740005EB430484F820000B441033917805EBFA
:102484004303597005F59156D27837789A704FEA1C
:10249400C00C87B13346012206EB870453F8041FAE
:1024A4000978814208BF0022A342F7D1012A02D051
:1024B400F0BC7047704707F59162604405EB400338
:1024C40005EB400005EB82057A1C203380F831705F
:1024D40032706B60F0BC7047BC2D002008B51078DA
:1024E400FEF79AFD0122014B1A7008BD010000207D
:1024F40070B510781546FEF719FEFF2800D170BD9F
:1025040004460121AA786B78074E43EA0223183067
:10251400321926F8103082F8281001F0A5F9023497
:1025240046F8240070BD00BFD002002010B510781A
:102534001446FEF7FBFDFF2800D110BDB4F80110CE
:10254400BDE81040FFF722B805F0AABA10B582B072
:1025540001F01AFF05F050FB60BB0023174A22F874
:10256400023F01331B2BFAD100240DF10601204652
:10257400ADF8064005F03CFA4AF6AA21BDF806304B
:102584008B420DD10E4C00230DF106010120ADF854
:10259400063005F02DFABDF80630237002B010BDE8
:1025A400204605F07DFA0121054C0846217005F00E
:1025B40077FAE8E700F060FCCFE700BFDE430020D5
:1025C400886A00204FF07E50002130B4124A134B29
:1025D400951C141D1D611C62951D02F108041A60EE
:1025E4001D631C6402F10A0502F10C040E321D6520
:1025F4001C661A67D860D861D862D863D864D86575
:10260400D866D867596059615962596359645965E4
:102614005966596730BC7047666A00201844002028
:10262400142138B55D4804F04FF9012800D038BDB5
:102634005B4C236865681888FEF73CF92946FEF769
:1026440083F8E168FDF7ECFD2946FEF77FF860604A
:10265400FDF7FEFF06F044F8FEF752F823696569BA
:1026640020811888FEF726F92946FEF76DF8E169FE
:10267400FDF7D6FD2946FEF769F86061FDF7E8FF2E
:1026840006F02EF8FEF73CF8236A656A2083188862
:10269400FEF710F92946FEF757F8E16AFDF7C0FD89
:1026A4002946FEF753F86062FDF7D2FF06F018F8EA
:1026B400FEF726F8236B656B20851888FEF7FAF879
:1026C4002946FEF741F8E16BFDF7AAFD2946FEF71E
:1026D4003DF86063FDF7BCFF06F002F8FEF710F862
:1026E400236C656C20871888FEF7E4F82946FEF70A
:1026F4002BF8E16CFDF794FD2946FEF727F860649A
:10270400FDF7A6FF05F0ECFFFDF7FAFF236D656DFD
:10271400A4F848001888FEF7CDF82946FEF714F807
:10272400E16DFDF77DFD2946FEF710F86065FDF7C4
:102734008FFF05F0D5FFFDF7E3FF236E656EA4F868
:1027440058001888FEF7B6F82946FDF7FDFFE16E3C
:10275400FDF766FD2946FDF7F9FF6066FDF778FF92
:1027640005F0BEFFFDF7CCFF236F656FA4F868008A
:102774001888FEF79FF82946FDF7E6FFE16FFDF79D
:102784004FFD2946FDF7E2FF6067FDF761FF05F0A5
:10279400A7FFFDF7B5FFA4F8780038BD98440020E2
:1027A4001844002000F002B800F01EB830B40C4BFE
:1027B4000C4A03F1180003F1300103F1480503F159
:1027C40060041061136003F17800116203F1900159
:1027D400A8331563146410651166136730BC704721
:1027E400BE4600209C44002038B59A4C257A002D22
:1027F4004CD0012D00F09F8000232372257E002DF4
:102804004FD0012D00F016810023237694F8285030
:10281400002D52D0012D00F0FC80002384F82830D4
:1028240094F83850002D55D0012D00F0E18000239C
:1028340084F8383094F84850002D58D0012D00F019
:10284400C580002384F8483094F85850002D5BD09C
:10285400012D00F0A980002384F8583094F86850C2
:10286400002D5ED0012D00F08D80002384F86830A7
:1028740094F8785025B9236F1B78012B6BD038BDA1
:10288400012D6ED0002384F8783038BD23681B787E
:10289400012BB3D1237204F015F8257E6060002D5E
:1028A400AFD123691B78012BB0D1237604F00AF849
:1028B40094F828506061002DACD1236A1B78012B59
:1028C400AED184F8283003F0FDFF94F838506062EC
:1028D400002DA9D1236B1B78012BABD184F83830A0
:1028E40003F0F0FF94F848506063002DA6D1236CE8
:1028F4001B78012BA8D184F8483003F0E3FF94F847
:1029040058506064002DA3D1236D1B78012BA5D1F1
:1029140084F8583003F0D6FF94F868506065002DB1
:10292400A0D1236E1B78012BA2D184F8683003F068
:10293400C9FF60669CE7606803F0BCFFB0F5967F52
:10294400E06000D3657223681B78002B7FF456AFD8
:10295400E360238152E784F8783003F0B3FF6067C3
:1029640038BD606F03F0A6FF236FB0F5967FE06774
:1029740028BF84F879501B78002B80D1E367A4F832
:10298400783038BD606E03F095FFB0F5967FE06651
:1029940001D384F86950236E1B78002B7FF468AF51
:1029A400E366A4F8683063E7606D03F083FFB0F575
:1029B400967FE06501D384F85950236D1B78002B72
:1029C4007FF44CAFE365A4F8583047E7606C03F03C
:1029D40071FFB0F5967FE06401D384F84950236C0D
:1029E4001B78002B7FF430AFE364A4F848302BE766
:1029F400606B03F05FFFB0F5967FE06301D384F86A
:102A04003950236B1B78002B7FF414AFE3632387C7
:102A140010E7606A03F04EFFB0F5967FE06201D3E1
:102A240084F82950236A1B78002B7FF4F9AEE36203
:102A34002385F5E6606903F03DFFB0F5967FE0611C
:102A440000D3657623691B78002B7FF4DFAEE36146
:102A54002383DBE69C4400202DE9D043002200239D
:102A64004FF000084FF0010901260E278AB069468D
:102A74000446CDE90023CDE90223CDE90423CDE9C1
:102A84000689CDE9086700F089FF08B172B6FEE750
:102A9400204601F015F808B172B6FEE7204602217F
:102AA40001F032F908B172B6FEE70AB0BDE8D0838E
:102AB40002204FF480312DE9F04F4FF4E01200254D
:102AC40001244FF001084FF480394FF48036042775
:102AD40002234FF4C06A4FF0400B95B0CDE90E01CC
:102AE40006A8CDE90C55CDE90155CDE90355CDE94D
:102AF4000689CDE90867CDE91023CDE912AB0A9523
:102B040000950B9401F01CFE08B172B6FEE7034673
:102B14004FF00F084FF0020900264FF48067684613
:102B24000221CDE90089CDE90267049302F0D0F8CF
:102B340008B172B6FEE7024B1C6015B0BDE8F08F19
:102B4400700042422DE9F04300248FB000F06EFE85
:102B5400FFF7AEFFCDE90A44CDE90C44924B22467F
:102B640099694FF0000841F040019961986946F66F
:102B7400FF7100F04000039003989D698B4845F075
:102B840004059D619D694FF0030905F00405049552
:102B9400049D9D69864E45F010059D619D6905F073
:102BA40010050595059D9D6945F020059D619D696C
:102BB40005F020050695069D9D6945F008059D6173
:102BC4009B6903F008030793079B01F0B5FD2246B8
:102BD400B021784801F0B0FD22464FF46871764880
:102BE40001F0AAFD01224FF48061724801F0A4FDB6
:102BF40022463321714801F09FFD46F6FF720123FE
:102C04006A480AA9CDE90A23CDE90C8901F088FCB8
:102C14004FF49662012367480AA9CDE90A23CDE956
:102C24000C8901F07DFC4FF46872012362480AA903
:102C3400CDE90A23CDE90C8901F072FC332201238A
:102C44005E480AA9CDE90A23CDE90C8901F068FCA4
:102C54008822002359480AA9CDE90A230C9401F0DB
:102C64005FFC40F20773564A3046CDE90A44CDE989
:102C74000C44CDE90844C6E901443461B4613260CE
:102C8400F36002F0E5F808B172B6FEE74FF480573E
:102C940030460AA90A9702F08DF908B172B6FEE728
:102CA40000240025304608A9CDE9084502F026FA9B
:102CB400034608B172B6FEE740F2E731414E424A9C
:102CC400CDE90A00CDE90C00CDE908003046C6E99B
:102CD4000133F1603361B361326002F0B9F808B1D5
:102CE40072B6FEE730460AA90A9702F063F908B102
:102CF40072B6FEE7304608A9CDE9084502F0FEF9B0
:102D0400034608B172B6FEE70C224FF4E1362F48B1
:102D14002F49C0E90163C0E90333C0E90633016008
:102D2400426102F021FA034608B172B6FEE7592067
:102D34000122284E2849C6E901033046CDE90A3369
:102D4400CDE90C33CDE90833C6E90433B36131600E
:102D5400F26002F07DF808B172B6FEE730460AA9C7
:102D64000A9702F027F908B172B6FEE7304608A9BF
:102D7400CDE9084502F0C2F908B172B6FEE70023B6
:102D840009254FF48032154C15492046C4E9053312
:102D9400A383C4E90015C4E90233226100F07CFD79
:102DA4000546F8B172B6FEE7001002400018014073
:102DB400006B002000080140001001400014014095
:102DC40000040040B86A002000080040486B00205E
:102DD40000380140886B0020002C0140D06B00209B
:102DE40000640040204604F0E9F92046FFF734FE71
:102DF400FFF7D8FC03F0DAFD03F08EFF03F0C2FF07
:102E040002F05AFE02F0BCFF02F086FB03F0E6F883
:102E1400FDF762FFFFF7D6FB42F220630121144A5B
:102E2400D15400F06BFCFFF791FBE8B207210135A8
:102E340002F0D6FF082DF8D100230E4A009318465D
:102E44000121127804F03CF903F040F802F0FCFD93
:102E540002F048FB03F05EFFFFF7E2FBFFF7A4FC80
:102E6400FEF7D8F804F0E6F904F076FAECE700BFD0
:102E740098030020886A002072B6FEE70E4B82B0E9
:102E84009A690E4942F001029A619A6902F00102BC
:102E94000092009ADA6942F08052DA61DB6903F049
:102EA40080530193019B4B6823F0E06343F000736C
:102EB4004B6002B0704700BF0010024000000140A8
:102EC400D0B500240268224B86B09A42CDE9024470
:102ED400CDE9044401D006B0D0BD4FF4006600270C
:102EE40003F5D633DA6902A942F00072DA61DA69CD
:102EF400184802F000720092009A9A6942F00402A3
:102F04009A619B69CDE9026703F004030193019B75
:102F14004FF480560227049401F002FB032302A914
:102F24000C480593CDE9026701F0FAFA22462146DE
:102F3400132001F04FF8132001F084F822462146B3
:102F4400142001F047F8142001F07CF806B0D0BD3D
:102F5400006400400008014010B5264A036884B0AC
:102F6400934207D0244A934219D0244A93422BD047
:102F740004B010BD0022224B11469C69192044F470
:102F840000649C619B6903F400630193019B01F05D
:102F940021F8192004B0BDE8104001F053B8184BD3
:102FA4000022D869032140F00200D861DB691D20AA
:102FB40003F002030293029B01F00CF81D2004B0FD
:102FC400BDE8104001F03EB80D4B0022D869022143
:102FD40040F00400D861DB691E2003F0040303936E
:102FE400039B00F0F7FF1E2004B0BDE8104001F081
:102FF40029B800BF002C0140000400400008004034
:103004000010024030B500240268214B87B09A4278
:10301400CDE90244CDE9044401D007B030BD4020DD
:103024000221032503F558439A6942F480429A61C8
:103034009A6902F480420092009A9A6942F0080266
:103044009A619B69CDE9020103F00803019302A987
:103054001048019B059501F063FA8022002302A920
:103064000C48CDE90223049401F05AFA0A48224696
:103074004368012143F0E06343F0040343602520E7
:1030840000F0A8FF252000F0DDFF07B030BD00BF31
:1030940000380140000C014000000140FEE700BF81
:1030A400FEE700BFFEE700BFFEE700BFFEE700BF8C
:1030B400704700BF704700BF704700BF00F0C8BB37
:1030C400014800F04BBE00BFD06B0020014800F067
:1030D40045BE00BFD06B0020064B1B681A69D107A0
:1030E40002D5DA68D20700D470476FF001021A6182
:1030F40002F0BABF886B0020064B1B681A69D1071F
:1031040002D5DA68D20700D470476FF001021A6161
:1031140002F01EBD006B0020064B1B681A69D10724
:1031240002D5DA68D20700D470476FF001021A6141
:1031340002F030BAB86A0020014802F00FB900BFAB
:10314400486B00200D49034610B50D4A0D4C086824
:10315400121B20B10344934207D80B6010BD0A4CE4
:103164002046034493420C60F7D904F04DFE0C2230
:1031740003464FF0FF301A6010BD00BF1C4500200D
:103184000000012000040000B8A80020704700BF20
:1031940038B52C4D2B78002B4AD12B4C2078013894
:1031A400C0B20721207002F01BFE207800210130FC
:1031B400C0B202F015FE00222078114602F060FE33
:1031C40000220121207802F05BFE002202212078F7
:1031D40002F056FE00220321207802F051FE012263
:1031E400207800211044C0B202F04AFE0122207867
:1031F40011461044C0B202F043FE0122207802219D
:103204001044C0B202F03CFE012220780321104495
:10321400C0B202F035FE0D4A21781378994204D1E8
:1032240001210B44DBB213702970082B05D038BD83
:1032340000230720044C2B70B3E70022044B1A70C0
:1032440038BD00BF49000020204500202145002052
:103254004A0000202DE9F04F002085B003F0DAF891
:1032640003F0F6F8642000F005FB0024E5B22846DC
:10327400002102F0B5FD01342846002103F054FD7D
:10328400082CF3D1002702F021FE02F0DDFB02F04E
:1032940029F96420B8463E4600F0ECFADFF8409382
:1032A400F8B203F0B7F80024E5B22846314602F03C
:1032B400D9FD01343146284602F084FD082CF3D1AF
:1032C400B8F1000F40F0CB800136F6B20D2E94BF5A
:1032D4004FF000084FF0010899F80030002B00F07F
:1032E400BA80FFF755FF013702F0F0FD02F0ACFBA6
:1032F40002F0F8F81E2000F0BDFA3F2FD0D10024D0
:10330400E0B22F21013403F089F9082CF8D11E20F2
:1033140000F0B0FA3F24E0B203F07CF8013C6420F2
:1033240000F0A8FA2D2CF6D14FF00008DFF8B49283
:10333400C346C24647464546CDE90288CDE90088E2
:10334400A44E78E01FB93846090103F0EDFCB9F842
:10335400383063B904F11503DBB2F15C002900F0E5
:103364008980009B1BB90120090103F0DDFCB9F839
:103374003A3063B904F12903DBB2F15C002900F0AF
:103384001081019B1BB90220090103F0CDFCB9F89F
:103394003C3063B904F13D03DBB2F15C002900F079
:1033A4000681029B1BB90320090103F0BDFCB9F897
:1033B4003E3063B904F15103DBB2F15C002900F043
:1033C400FC80039B1BB90420090103F0ADFCB9F890
:1033D40040306BB904F16503DBB2F15C002900F005
:1033E400F280BAF1000F03D10520090103F09CFC1F
:1033F400B9F8423063B904F17903DBB2F15C002916
:103404003ED0BBF1000F03D10620090103F08CFC70
:10341400B9F8443053B9733CE4B2315DB1B3B8F197
:10342400000F03D10720090103F07EFC0A2000F0FD
:1034340021FAFF2D34D0B9F836306A1C2C46D5B2A7
:10344400002B84D1715D00297FF47CAF084603F022
:103454006BFC01277BE702F039FD013746E7B8F141
:10346400010F7FF439AF013E16F0FF0608BF4FF09D
:10347400020831E7012003F057FC0123009376E7AB
:10348400062003F051FC4FF0010BC1E7072003F0C5
:103494004BFC0A2000F0EEF9FF2D4FF00108CAD1D1
:1034A400642000F0E7F92021002003F0B7F8472159
:1034B400012003F0B3F84521022003F0AFF84E21B8
:1034C400032003F0ABF85421042003F0A7F84C21A7
:1034D400052003F0A3F84521062003F09FF82021DE
:1034E400072003F09BF80024E5B2284601220021BE
:1034F40002F0C6FC012228461444114602F0C0FC26
:10350400082CF1D102F0E2FC02F09EFA01F0EAFF8D
:103514004FF47A7000F0AEF94D21002003F07EF8EC
:103524004F21012003F07AF84E21022003F076F8AF
:103534005321032003F072F85421042003F06EF8A1
:103544004521052003F06AF85221062003F066F8AD
:103554002021072003F062F800240122E5B2284666
:103564000221144402F08CFC28460122032102F0BB
:1035740087FC082CF1D102F0A9FC02F065FA01F0F5
:10358400B1FF4FF47A7000F075F902F073FF012275
:10359400114B1A7003F096F9104B186005B0BDE892
:1035A400F08F022003F0C0FB01230193EFE6032018
:1035B40003F0BAFB01230293F9E6042003F0B4FB01
:1035C4000123039303E7052003F0AEFB4FF0010A48
:1035D4000EE700BF0888000828450020F86B00208B
:1035E4004A000020406A002010B532213F4803F011
:1035F4006BF9A8BB3E4B93F8BC20012A28D0022AC1
:1036040004D093F8BA20012A0BD010BD0022394906
:1036140083F8BC200A78013A0A7093F8BA20012A88
:10362400F3D1002209203449DA74087083F82B207E
:1036340083F8432083F85B2083F8732083F88B207E
:1036440083F8A32083F8BB20BDE8104002F012BF2A
:103654000022284983F8BC200A7801320A70D0E796
:1036640001224321002003F033F8022241210020EB
:1036740003F02EF803224E21002003F029F804223F
:103684005F21002003F024F805224921002003F0E3
:103694001FF806224421002003F01AF801224C21CD
:1036A400072003F015F802224321072003F010F845
:1036B40003224421072003F00BF804225F21072092
:1036C40003F006F80B4C05224221072003F000F812
:1036D40006224C21072002F0FBFF207802F09AFE1C
:1036E4000720217802F01CFF84E700BF2445002056
:1036F400AC46002048000020284500200023F0B5F7
:103704001F4683B0214C224E224D01932378092B6E
:103714001ED8DFE803F02905341D1D1D1D1D1D27BE
:103724008DF8037001F0DEFEB37C4FF47A71012B47
:10373400284608BF8DF8033003F0C6F840B19DF861
:10374400033003F0FF02EBB1012A01D102232370FD
:10375400322101A803F0B8F870B902F075F901F04C
:10376400C1FED3E703B0F0BDFFF774FD322101A819
:1037740003F0AAF80028F0D002F0A8FBEDE7FFF769
:1037840033FFE5E709232370E2E700BF2845002063
:10379400AC460020F86B0020002103E00B4B5B5883
:1037A400435004310A480B4B42189A42F6D30A4A52
:1037B40002E0002342F8043B084B9A42F9D3FFF796
:1037C400E5FC04F027FBFFF7BDF97047B4C7000818
:1037D40000000020B4000020B8000020B8A8002099
:1037E400FEE7000038B54FF47A730D4A05461178A8
:1037F4000C4AB3FBF1F31268B2FBF3F000F030FCB7
:1038040008B90F2D01D9012038BD044602462946C6
:103814004FF0FF3000F0DEFB034B20461D6038BD47
:103824004B000020440000204C000020074A08B54B
:103834001368032043F01003136000F0B9FB002069
:10384400FFF7D0FFFFF71AFB002008BD002002405D
:10385400034A044B11681B780B441360704700BF84
:10386400FC6B00204B000020014B1868704700BF20
:10387400FC6B002038B50446FFF7F6FF631C0546D1
:1038840002D0044B1B781C44FFF7EEFF401BA04200
:10389400FAD338BD4B00002000287DD070B590F8D5
:1038A40020300446002B74D02268136823F00203EE
:1038B4001360FFF7D9FF054604E0FFF7D5FF401B6F
:1038C4000A285DD823685A689107F6D41A6842F02A
:1038D40001021A60FFF7C8FF054604E0FFF7C4FFC2
:1038E400401B0A284CD823685A68D207F6D5227E92
:1038F4000025012A1A684FF001060CBF42F080022D
:1039040022F080021A60627E012A1A680CBF42F01B
:10391400400222F040021A60A27E012A1A680CBFFB
:1039240042F0200222F020021A60E27E012A1A6884
:103934000CBF22F0100242F010021A60227F012A0A
:103944001A680CBF42F0080222F008021A60627F73
:10395400012A1A680CBF42F0040222F004021A6021
:103964002169D4E9022002430A4360696168024381
:1039740001390A43DA61656284F82060284670BD23
:103984000522636A012043F40033636284F8202033
:1039940070BDFFF795FA87E70120704790F8202063
:1039A400013A012A06D903465A6A012042F48022C8
:1039B4005A62704770B40125404BD3F800222A4361
:1039C400C3F80022D3F8002222F47C52C3F8002268
:1039D400D3F80022486A42EA0022C3F800224A6966
:1039E400D3F81C4202F01F0005FA00F024EA000498
:1039F400C3F81C42CD69C443002D45D1D3F80C5201
:103A0400D2002540C3F80C52CB688D888E6845EAF5
:103A140003450B8802F1804202F5C84243EA06439B
:103A2400C2F84052C2F844328B69244A33BBD2F8FC
:103A340004322340C2F804320B69C3B91F4BD3F8D4
:103A440014221440C3F814420B6A012B05D11B4AFB
:103A5400D2F81C321843C2F81C02184A002070BC69
:103A6400D2F8003223F00103C2F800327047134A3F
:103A7400D2F814320343C2F81432E5E7D2F8043220
:103A84000343C2F80432D7E7012DCDD1D3F80C5249
:103A9400D2000543C3F80C520B688D888E6845EA42
:103AA40003458B8902F1804202F5C84243EA06438A
:103AB400C2F84052C2F84432B6E700BF0064004086
:103AC40070B590F820300446012B06D00126436AD5
:103AD40043F400234362304670BDDEB20223026821
:103AE40080F82030136823F001031360FFF7BCFE55
:103AF400054604E0FFF7B8FE431B0A2B08D82368E9
:103B04005B6813F00103F5D11E466362304670BD55
:103B14000522636A304643F40033636284F820204C
:103B240070BD00BF70B4044690F8200026680138C8
:103B34000128B56834D815F0E05F38D0C5F30165C5
:103B4400032D44D00120A84018608B68002B35D089
:103B5400C8684C68034305F1180043EAC403000134
:103B640033500B6906EB0514C4F88431097D2B012D
:103B7400012905D1D4F8841141F48071C4F8841169
:103B840051683344C3F88C1112680020C3F88821AB
:103B9400D4F8803143F00103C4F8803170BC70471D
:103BA400636A012043F48023636270BC7047636AD4
:103BB400012043F40013636270BC70470C68C8684A
:103BC40005F1180340EA44501B01F050C9E7636A49
:103BD400012043F40003636270BC704790F8203006
:103BE400013B012B01D900207047036898689A684B
:103BF4009B681201C0F3806048BF0130DB00F3D53D
:103C0400013070472DE9F04190F820500446013D01
:103C1400012D66D8006849B9C568AE0709D1636A41
:103C2400012043F400136362BDE8F0810569AD0728
:103C3400F5D000EB0115D5F8B0710E0107F00407BB
:103C44009760002F54D0D5F8B071FF085760D5F8AD
:103C5400B0E13044D5F8B4C1D5F8B471D5F8B45155
:103C6400D0F8B8810EF0020E0CF00F00C7F307274E
:103C74002D0CC2E903E0C2E9055783F800802268ED
:103C84003244D2F8B821120A5A7022683244D2F867
:103C9400B821120C9A7022683244D2F8B821120E5C
:103CA400DA7022683244D2F8BC211A712268324494
:103CB400D2F8BC21120A5A7122683244D2F8BC21CB
:103CC400120C9A7122681644D6F8BC21120EDA71CD
:103CD400226891B9D368084643F02003D360BDE855
:103CE400F081636A012043F480236362BDE8F081BC
:103CF400D5F8B0717F0D1760A9E71369002043F070
:103D040020031361BDE8F08190F820200346013AB6
:103D1400012A05D95A6A012042F480225A62704766
:103D2400026800205369194351617047704700BF0E
:103D3400704700BF704700BF704700BF704700BFA7
:103D4400704700BF704700BF704700BF704700BF97
:103D5400704700BF704700BF704700BF2DE9F84FA0
:103D6400036805465C69D3F8048014F001069F6873
:103D7400D3F80CB0D3F810A0D3F8189025D017F0CE
:103D8400010640F08F804FF400524FF48041F80553
:103D94000DD54FF480702B689860BB0500F1BE8090
:103DA400780500F1E4803B0540F1F0800E46F8030D
:103DB4000BD54FF480322B68B9039A6000F1BA80B6
:103DC4007A0340F1CF8046F40046270702D51BF062
:103DD400100F61D1600703D51BF0080F40F08C80F1
:103DE400A10704D52B68DB689A0740F08C80630632
:103DF40002D51AF0100F49D1A70602D51AF0080F00
:103E040073D1E00603D52B681B69990762D1A2031D
:103E140002D518F0100F61D1E30302D518F0080F92
:103E240075D1270405D518F0040F06D12B68042298
:103E34005A60002E46D1BDE8F88FE00504D519F08C
:103E4400010F18BF46F00106A10504D519F0020FB1
:103E540018BF46F00206620504D519F0040F18BF16
:103E640046F004062305E1D519F07009DED0B9F156
:103E7400400F00F09A8061D8B9F1200F00F08380E0
:103E8400B9F1300F68D146F020065FE010222B68AC
:103E940046F480661A61AFE710222B6846F4007678
:103EA400DA6097E701229A60BB073BD47E0760D4AF
:103EB40017F008066ED04FF440524FF4A0414FF46F
:103EC400805664E76B6A28461E436E62FFF744FF20
:103ED400BDE8F88F2846FFF737FF98E710222B68D4
:103EE40028465A60FFF734FF96E708222B682846D5
:103EF4001A61FFF72BFF84E708222B682846DA6053
:103F0400FFF720FF6CE7284603F066F96FE7082205
:103F14002B6828465A60FFF71DFF82E72846FFF703
:103F240007FF44E7FFF702FF00264FF400524FF467
:103F340080412CE72846FFF7FDFE46E7B9F1500F14
:103F44001ED0B9F1600F08BF46F480762B689A69D9
:103F540022F070029A616AE7B9F1100FF6D146F0C7
:103F64000806F3E73B031CD546F480362DE71646D6
:103F74001DE74FF420524FF490414FF4006606E7DA
:103F840046F08006E2E746F01006DFE72846FFF732
:103F9400D5FE0CE7FFF7D0FE4FF400524FF48041FA
:103FA400F5E62846FFF7CCFE0FE746F04006CDE7DE
:103FB4004FF6FF01064A0302D06803F4E0630840A9
:103FC400034343F0BF6343F40033D360704700BF3F
:103FD40000ED00E0194B30B4DB68C3F30223C3F1F6
:103FE4000705042D03F1040428BF0425062C19D960
:103FF4004FF0FF34033B9C4022EA04024FF0FF34AD
:10400400AC4021EA04019940002841EA02010CDB9A
:10401400090100F16040C9B200F5614080F8001365
:1040240030BC704700221346E8E7054B00F00F0050
:104034000901C9B20344197630BC704700ED00E0B1
:10404400FCEC00E0002807DB012300F01F01034A19
:104054008B40400942F82030704700BF00E100E087
:104064000138B0F1807F0DD230B4F0250022072151
:10407400054B064C586084F82350104630BC9A60B7
:10408400196070470120704710E000E000ED00E087
:1040940008B590F821200346022A03D00422012007
:1040A4009A6308BD026845481168824221F00E01F6
:1040B4001160116821F001011160414924D98A423B
:1040C40055D014318A425ED014318A425DD0143105
:1040D4008A4253D014318A4260D014318A4263D068
:1040E400824267D001F567718A4240D014318A4216
:1040F40049D014318A4248D014318A4214BF4FF453
:1041040080324FF4805233E08A4222D014318A4202
:1041140037D014318A423BD014318A422BD0143127
:104124008A4238D014318A423BD082423FD001F5D2
:1041340067718A420DD014318A4222D014318A42E6
:1041440026D014318A4214BF4FF480324FF4805287
:1041540000E001221B494A604FF480715A6B1984B4
:104164001AB118469047002008BD104608BD012228
:1041740015494A60F0E74FF48052EBE74FF4805260
:10418400F6E71022E6E71022F2E74FF48072EFE739
:104194004FF48072DEE74FF48032DBE74FF4803275
:1041A400E6E74FF48012D5E74FF48012E0E74FF0D2
:1041B4008072CFE74FF08072DAE700BF80000240E0
:1041C4000800024000000240000402402DE9F84FBC
:1041D4006B4E8046307E012800F0C7801F460123C5
:1041E4000D4691463376FFF73FFB4CF2503B0446B5
:1041F400DFF890A105E0FFF737FB001B584500F2FC
:10420400B280DAF80C30DB07F5D4DAF80C30980613
:1042140044BF2023CAF80C305A4BDA68D10653D471
:10422400DA69D20750D4DB6813F0040A4CD1B8F130
:10423400010F06D0B8F1020F0CBF4FF002084FF087
:104244000408504C05EB48080022CAF1200CF26126
:1042540007FA0CFC29FA0AF0AAF12001226940EAC3
:104264000C0027FA01F1084342F0010280B22261F6
:104274002880FFF7F9FA834607E0FFF7F5FA4CF2D6
:104284005033A0EB0B00984265D8E268D007F4D411
:10429400E268910644BF2022E260E268D20632D48A
:1042A400E269D3072FD4E06810F004002BD122690F
:1042B400023522F0010245450AF1100A2261C3D1F8
:1042C40000233376BDE8F88F2E4BDB6813F0100320
:1042D4004ED104212B4AD268550704D50B46F26906
:1042E40042F00102F261274AD169CC0707D5F1698E
:1042F40041F00401F161D16921F00101D161214A48
:104304000120D360DCE71F4BDB6813F0100328D0D7
:10431400F369142143F00203F3611023194AD268AC
:10432400500704D50B46F26942F00102F261154AC6
:10433400D169C90707D5F16941F00401F161D16977
:1043440021F00101D1610F4A0120D360136923F0E8
:1043540001031361B4E72369032023F001032361FC
:10436400AEE70421DAE70320AAE70220BDE8F88FCC
:10437400F369142143F00203F3611023AAE700BF99
:10438400006C002000200240064B186910F08000E9
:1043940006D00549054A59605A601869C0F3C0102F
:1043A400704700BF0020024023016745AB89EFCD71
:1043B40070B50446FFF758FA0546264E601C36D100
:1043C400244AD368D907FCD4224BDA68960644BF42
:1043D4002022DA601F4BDA68D50607D4DA69D407DD
:1043E40004D4D86810F0040000D170BD194BDB6808
:1043F40013F0100326D10421164AD268500705D5BC
:104404000B461549CA6942F00102CA61114AD169D1
:10441400C90708D51048C16941F00401C161D169D7
:1044240021F00101D1610B4A0120D36070BDF36812
:10443400DB07C9D524B1FFF717FA401BA042BDD949
:10444400032070BD04481421C269102342F0020203
:10445400C261D1E700200240006C00202DE9F8433E
:104464002D4E337E012B54D00123337603688146CD
:10447400022B31D04CF250308846FFF799FF80BBB5
:104484004FF0FF33C8F80030D9E9025305EBC323DA
:104494009D4226D20746214C07E005F50065D9E97F
:1044A400023203EBC223AB421CD9F76123694CF2FD
:1044B400503043F0020323616561236943F04003F4
:1044C4002361FFF775FF236923F0020323610028AA
:1044D400E3D0C8F8005005E04CF25030FFF768FF15
:1044E40020B1012000233376BDE8F8830B4CF06142
:1044F40023694CF2503043F004032361236943F0F1
:1045040040032361FFF754FF236923F0040323616D
:10451400E8E70220BDE8F883006C00200020024098
:104524002DE9F04F0C6885B0002C00F09E80002629
:10453400DFF8F4C13346774FDFF8F081DFF8F0E1BC
:10454400009004E0013334FA03F200F08E8001227B
:104554009A4032EA040002EA0405F3D14C68122CB2
:1045640000F28680122C0CD8DFE804F08ABFBC0A63
:104574000B0B0B0B0B0B0B0B0B0B0B0B0BB9B60039
:104584000026FF2D00F28380DDF800904FEA830AB5
:104594000F24D9F8002004FA0AFB22EA0B0206FAD7
:1045A4000AFA42EA0A02C9F80020D1F8049019F084
:1045B400805F00F08F80DCF818A023F003024AF03B
:1045C400010ACCF818A0DCF818A002F180420AF025
:1045D400010ACDF80CA002F5803203F0030ADDF8DD
:1045E4000CB04FEA8A0AD2F808B004FA0AF42BEAAB
:1045F40004000190009C4848844213D000F5806078
:1046040084427DD04548844271D0454884420CBFE1
:104614004FF0030B4FF0040B01980BFA0AFA40EA2F
:104624000A000190019819F4803F90603A6814BF21
:104634002A43AA433A607A6819F4003F14BF2A4314
:10464400AA437A60BA6819F4801F14BF2A43AA43A4
:10465400BA6019F4001FFA6839D01543FD600C687C
:10466400013334FA03F27FF472AF05B0BDE8F08F82
:10467400444505D013D9744502D02A48844280D1D8
:104684008C68E4B9FF2D4FF004067FF67DAF009AE5
:104694004FEA830AAAF1200A02F1040978E7DFF855
:1046A40094904C45ECD009F570294C45E8D0A9F517
:1046B40080194C457FF465AF8C68002CE2D00098DB
:1046C400012C4FF008060CBF0261426159E722EA4F
:1046D4000505FD600C6835E7CE680C3651E7CE68F9
:1046E40004364EE7CE6808364BE7CE6849E74FF00C
:1046F400020B01980BFA0AFA40EA0A00019091E7CA
:104704004FF0010B01980BFA0AFA40EA0A000190F3
:1047140088E700BF00040140000801400010014088
:10472400001401400000321000100240000022106A
:10473400000031100000121002B909040161704731
:10474400002800F0FF812DE9F04103680446DD07ED
:1047540082B035D5AA494A6802F00C02042A00F056
:1047640039814A6802F00C02082A00F02F81A368FC
:10477400B3F5803F10D0002B00F06781B3F5A02F74
:1047840000F0E2819E4B1A6822F480321A601A68A3
:1047940022F480221A6004E0994A136843F48033B7
:1047A4001360FFF761F8964E054605E0FFF75CF8E5
:1047B400401B642800F2458133689A03F6D52368C8
:1047C4009F0728D58E4A516811F00C0F00F0E18044
:1047D400516801F00C01082900F0D7806369002BAF
:1047E40000F071810122874B854E1A60FFF73CF877
:1047F400054605E0FFF738F8401B022800F2218146
:1048040033689807F6D53368A26923F0F80343EABE
:10481400C203336023681A0729D45E074CD5784B4A
:10482400DA69D50000F1D0800125DA6942F08052BE
:10483400DA61DB6903F080530093009B724B1A68C2
:10484400D00540F1ED802369012B00F06381002B3A
:1048540000F01581052B6A4B1A6A00F0B88122F02A
:1048640001021A621A6A22F004021A6257E1E36929
:10487400002B00F099800122644B614E1A60FEF710
:10488400F3FF054605E0FEF7EFFF401B022800F2A8
:10489400D880736A9B07F6D55D4B5E4A1B68A2FB02
:1048A40003235B0A019300BF019B5A1E0192002B54
:1048B400F9D123685E07B2D4E36A002B44D0504A8E
:1048C4005168C80305D5516801F00C01082900F0AE
:1048D4009781022B40F00881494B1A68D20005D514
:1048E400DB6A626B03F0F003934259D100224A4B16
:1048F400434D1A60FEF7B8FF064605E0FEF7B4FF25
:10490400801B642800F29D802B681B01F6D40121D2
:10491400EB6A626B23F0F0031343EB62EB6A206BE8
:104924003D4A23F470630343EB621160FEF79CFF7E
:10493400334E054605E0FEF797FF401B642800F25E
:10494400808033681F01F6D5226AD2B12C4D696884
:1049540001F00C01082900F04281022A4FF0000105
:104964002E4A00F0FE801160FEF77EFF2C460546BD
:1049740004E0FEF779FF401B022862D823689B01FC
:10498400F7D4002002B0BDE8F0815268D6033FF5A9
:1049940025AF1B4A1268950726D56269012A23D0E0
:1049A400012002B0BDE8F081184A154E1360FEF7ED
:1049B4005BFF054604E0FEF757FF401B022840D882
:1049C400736A9F07F7D474E7002537E74A68D00372
:1049D4007FF5CDAE0A4A126891037FF5F1AEA26865
:1049E400002A7FF4EDAEDBE70549A0690A6822F0EE
:1049F400F80242EAC0020A601A077FF50EAF36E7F2
:104A04000010024000004242007000408004424214
:104A140044000020D34D62106800424260004242CC
:104A24001A681F4642F480721A60FEF71DFF06469C
:104A34003B68D9053FF507AFFEF716FF801B6428D6
:104A4400F6D9032002B0BDE8F08103F1804303F5F9
:104A540004331A681E4622F480321A601A6822F45B
:104A640080221A60FEF700FF054604E0FEF7FCFE14
:104A7400401B6428E5D833689B03F7D49FE603F111
:104A8400804303F504331A6A1F4622F001021A62B6
:104A94001A6A41F2883822F004021A62FEF7E4FE30
:104AA400064604E0FEF7E0FE801B4045C9D83B6A99
:104AB4009B07F7D4002D3FF4FFAE544AD36923F08B
:104AC4008053D361F8E6524A504E1360FEF7CCFE91
:104AD400054604E0FEF7C8FE401B0228B1D833683F
:104AE4009907F7D4236896E60020484B4949DA6AC7
:104AF4001E4622F48032DA620860FEF7B5FE0546EF
:104B040004E0FEF7B1FE401B64289AD8336818010C
:104B1400F7D419E73D4A136A43F001031362FEF721
:104B2400A3FE41F288380646384F04E0FEF79CFEA7
:104B3400801B404585D83B6A9A07F7D5002D3FF482
:104B4400BBAEBAE70120704703F18043A3F53C33C1
:104B54001A6842F480221A601A6842F480321A6099
:104B64001FE61160FEF780FE064605E0FEF77CFEB8
:104B7400801B02283FF665AF2B689901F6D4636A5F
:104B8400B3F5803F09D1EA6A61680A43EA62EA6AD6
:104B9400E16822F00F020A43EA6201201B4DA16A78
:104BA4006A680B4322F474121B4913436B60086058
:104BB400FEF75AFE2C46054605E0FEF755FE401B5F
:104BC40002283FF63EAF23689A01F6D5D9E642F0B3
:104BD40004021A621A6A42F001021A629FE7012A69
:104BE4003FF4DEAE6B68626A03F4803191427FF475
:104BF400D7AEA26A03F4701393427FF4D1AEC0E639
:104C0400D26AD1033FF5CCAE63E600BF0010024088
:104C1400000042426800424260004242F0B589B05E
:104C24006C46254B0FCB07C4244A238008AC0FCA1B
:104C340004E90F0022494A6802F00C03042B2CD02B
:104C4400082B27D1C2F383432344D20313F8204C07
:104C540026D5CB6A08AAC86A03F00F03134413F8D5
:104C6400102CC30321D5CB6ACE6A164DC6F3032696
:104C74000236A6FB0467A6FB0501C3F30313013345
:104C840005FB0711A3FB0223FBF768FE0D2C02D1E1
:104C9400400800E00C4809B0F0BD0A4809B0F0BD76
:104CA4000A4800FB04F009B0F0BD064800FB04F01C
:104CB400B0FBF2F0EAE700BF8C870008088900081F
:104CC4000010024040787D0100127A0000093D0086
:104CD400002800F08C80494A2DE9F041136804460D
:104CE40003F007038B420D460CD2136823F007032D
:104CF4000B431360136803F007038B4202D00120B7
:104D0400BDE8F0812368980714D5590704D53C49B8
:104D14004A6842F4E0624A601A0704D538494A688E
:104D240042F460524A603649A0684A6822F0F002B0
:104D340002434A60DF0720D56268314B012A1B68B1
:104D440057D0022A50D09907D9D52D4E41F2883830
:104D5400736823F0030313437360FEF785FD07466E
:104D640004E0FEF781FDC01B404545D873686268C6
:104D740003F00C03B3EB820FF3D1204A136803F062
:104D84000703AB4209D9136823F007032B431360CD
:104D9400136803F00703AB42B1D123685A0706D561
:104DA4001749E0684A6822F4E06202434A601B073C
:104DB40007D5134A2169536823F4605343EAC103B6
:104DC4005360FFF72BFF0E4B0E4A5B680E49C3F38B
:104DD4000313D35C0D4A20FA03F308681360FEF74B
:104DE40001FD0020BDE8F0819801AED487E70120E1
:104DF40070479E03A9D482E7032081E70020024084
:104E040000100240F08700084C00002044000020FD
:104E1400044B05495B68054AC3F30223CB5C106865
:104E2400D840704700100240008800084400002069
:104E3400044B05495B68054AC3F3C223CB5C106885
:104E4400D840704700100240008800084400002049
:104E5400002860D038B590F83D30044603F0FF02D6
:104E6400002B3FD0022322682C4984F83D308A422B
:104E740013683CD0B2F1804F0BD0A1F594318A4233
:104E840007D001F580618A4203D001F580618A422E
:104E940007D1A16823F070030B43216923F4407305
:104EA4000B43A569E068616823F080032B4313601A
:104EB400D06291620123536184F8463084F83E3015
:104EC40084F83F3084F8403084F8413084F842302C
:104ED40084F8433084F8443084F8453084F83D3015
:104EE400002038BD80F83C20FEF736F8BAE7A16808
:104EF40023F070030B43216923F440730B43A1692E
:104F040023F080030B431360E368D3626368936206
:104F140063691363CEE70120704700BF002C014092
:104F240090F83D30012B23D10222036880F83D2004
:104F3400DA68114942F001028B42DA600DD0B3F114
:104F4400804F0AD00D4A934207D002F58062934203
:104F540003D002F58062934204D19A6802F00702FA
:104F6400062A07D01A68002042F001021A6070472E
:104F74000120704700207047002C014000040040CD
:104F8400034641F211101A68D16821F00101D16081
:104F9400116A014208D140F24441106A084203D127
:104FA400116821F0010111600122002083F83D20E5
:104FB400704700BF90F83C30012B74D0F0B402234A
:104FC4000124026880F83C4080F83D3094680B6806
:104FD40024F47F4424F07704602B946065D031D8A6
:104FE400402B48D021D9502B16D1156A166A4C682B
:104FF40026F00106CF681662936925F00A0123F0B2
:10500400F00343EA0713214393611162936823F089
:10501400700343F0570393600023012280F83C306F
:1050240080F83D20F0BC18467047202B02D01ED9D2
:10503400302BF1D1916821F070010B4343F0070349
:105044009360E9E7702B49D0B3F5005FE4D1D1E96F
:105054000153CC6891682B4343EA042321F47F4134
:105064000B439360936843F480439360D4E733F035
:105074001001D1D1DEE7156A166A4C6826F00106E4
:10508400CF681662936925F00A0123F0F00343EA1E
:105094000713214393611162936823F0700343F073
:1050A40047039360B8E702207047146A4D6824F000
:1050B4001004CE6814629169136A21F4704123F0DC
:1050C400A00343EA051341EA063191611362936830
:1050D40023F0700343F0670393609DE7CC68D1E944
:1050E400015391682B4343EA042321F47F410B438A
:1050F4009360936843F0770393608DE790F83C30B6
:10510400012B2AD00222036830B480F83D205A686B
:105114000C68134D22F070022243AB429C685A6023
:105124000DD0B3F1804F0AD00E4A934207D002F556
:105134008062934203D002F58062934204D14A68AC
:1051440024F0800414439C600023012280F83C3046
:1051540080F83D2030BC184670470220704700BFDD
:10516400002C014000040040002861D070B590F884
:105174003930044603F0FF02002B51D02422236867
:1051840084F83920DA68E06822F40052DA60196998
:10519400A26821F4405101431961D968D4E904504B
:1051A40021F4B0512A4321F00C0102430A43DA608E
:1051B4005A69A0691F4922F4407202438B425A6122
:1051C40033D0FFF725FE636800EB800000EB80001E
:1051D4009B00B0FBF3F36422002620251648A0FBB5
:1051E40003C1490902FB11331B013233A0FB032322
:1051F4000901226801EB531393601369304623F4C9
:1052040090431361536923F02A035361D36843F431
:105214000053D360E66384F8395084F83A5070BD83
:1052240080F83820FDF7EEFEA8E7FFF701FECAE795
:1052340001207047003801401F85EB5190F8393048
:10524400202B1AD1B9B1B2B190F83830012B14D057
:1052540030B4002321240568C28480F83830C36345
:1052640080F83940EC68016244F080048284184676
:10527400EC6030BC7047012070470220704700BFCB
:1052840090F83A30202B22D1F9B1F2B190F83830AD
:10529400012B1CD030B4002322250468C28580F879
:1052A4003830C36380F83A50E568828545F48075E8
:1052B4008162E5606269184642F001026261E36856
:1052C40043F02003E36030BC7047012070470220A4
:1052D400704700BF08B58368B3F5805F17D0826A52
:1052E40073B103685B6803F07F031370836A01334F
:1052F4008362C38D013B9BB2C3859BB1002008BD73
:105304000369002BEDD103685B681370EEE7036952
:10531400E3B90268836A5268C2F3080223F8022BD5
:105324008362E6E720210368DA6822F02002DA606B
:10533400DA6822F48072DA605A6922F001025A6152
:1053440080F83A1001F0D4FB002008BD0368826A9B
:105354005B681370CAE700BF704700BF036870B58D
:105364001A6804461607DD6859690CD1910601D5FF
:10537400AE064ED4160601D5280652D4510601D5E0
:105384006A066AD470BD01F0010105F49070084307
:10539400F0D0D00705D5EE0503D5E06B40F0010051
:1053A400E06350072CD529B1E06B960740F002006A
:1053B400E06329D4160707D505F02000014303D084
:1053C400E16B41F00801E163E16B0029DAD090065A
:1053D40009D5A90607D594F83A20222A03D12046F4
:1053E400FFF778FF23685A69E56B02F0400205F085
:1053F400080515433CD12046FFF7AEFFE56370BDB9
:105404009007D7D50029D5D0E06B40F00400E063C5
:10541400D0E790F83A30222BB4D1BDE87040FFF7C2
:1054240059BF94F83920212AACD1A268B2F5805F23
:1054340042D0226A511C216212785A60E28C013AED
:1054440092B2E284002A9DD1DA6822F08002DA6006
:10545400DA6842F04002DA6070BD2021DA68204642
:1054640022F04002DA6084F8391001F0E9FA70BDE4
:105474002021DA6822F49072DA605A6922F001027B
:105484005A6184F83A105A69520611D55A69606B08
:1054940022F040025A6158B10D4B4363FEF7F8FD08
:1054A40000283FF46FAF606BBDE87040436B184752
:1054B4002046FFF751FF70BD2269002AB9D1226A44
:1054C40032F8021BC1F3080159602262B6E700BF3B
:1054D400D954000808B50023406AC385C384FFF784
:1054E4003BFF08BD30B40A4A0A4C137921790B43B7
:1054F40001D030BC704701254FF4807115711182C1
:10550400E36025712182106830BCD360FFF708BDC9
:105514008045002050450020F8B5022708244FF4A8
:105524008076002501201821144B154A1F841C8500
:10553400144F154C1E8218839960DA621F60DC6177
:105544005C625C611D71DD6000F0D4F920224FF0D3
:10555400800C10200D4B0E491D711E821F60DC61F2
:105564005C625C61DD60A3F828C01883D9621A8488
:105574009A60BDE8F84000F017B900BF80450020EC
:10558400B0450020B86A00200014014050450020B6
:105594002C45002070B5824D2B7C052B14D8DFE8F8
:1055A40003F048565F03677E00216A6A2B8D926878
:1055B400E960134000F0B0800122EB6A1A70042203
:1055C400EB682A740133EB60764C237C052B14D8EA
:1055D400DFE803F07759930388160021626A238D6C
:1055E4009268E160134000F094800122E36A1A702B
:1055F4000422E36822740133E36023798BB170BD24
:105604006169238BC868E2690343CB60D368218C4A
:1056140023EA0103D36000F0B1F9002206232271CA
:1056240023742B79002BEAD12868BDE87040FFF77A
:10563400A7BC0120E9692C8CCB686A6923EA0403BE
:10564400CB60D1682B8B0B43D3602874BCE7022159
:105654006A69288BD36823EA0003D3602974B3E70B
:1056640003216A692B8BD0680343D3602974ABE7A9
:105674006B7C002B53D00023EA696B74D1682B8CAC
:105684000B43D360A0E702216269208BD36823EA2D
:105694000003D36023792174002BB0D1C1E7696979
:1056A4002B8BC868EA690343CB60D368298C23EA4F
:1056B4000103D36000F0E0F8002206232A712B7462
:1056C40082E70120E169228CCB6823EA0203626944
:1056D400CB60D168238B0B43D36023792074002BD8
:1056E4008DD19EE7637C002B35D00023E26963747F
:1056F400D168238C0B43D3607FE703216269238B3A
:10570400D0680343D36023792174002B7FF477AFEF
:1057140087E7E26A13706BE7EA6A13704FE70121C7
:10572400EA696974D3682C8C686A23EA0403D36039
:1057340082682B8D13402ED1E96AEA688B54D5E92F
:10574400022301339342EB60FFF43EAF00220523B2
:10575400EA602B7438E70121E2696174D368268C0E
:10576400606A23EA0603D3608268238D13400ED156
:10577400E16AE2688B54D4E9022301339342E36083
:10578400FFF43BAF00220523E260237435E7E26AAD
:10579400E368D154EFE7EA6AEB68D154CFE700BF7E
:1057A4005045002080450020314B324A581E991E36
:1057B40030B4DD1E1C1F50609160581F991FD560C6
:1057C400D461DD1FA3F1080410625162A3F1090042
:1057D400A3F10A0195629463A3F10B05A3F10C04F0
:1057E400D0631164A3F10D00A3F10E015564546557
:1057F400A3F10F05A3F110049065D165A3F1110085
:10580400A3F1120115661467A3F11305A3F114049F
:1058140050679167A3F11500A3F11601D567C2F88B
:105824008C40A3F11705A3F11804C2F89000C2F844
:105834009410A3F11900A3F11A011360C2F898504F
:10584400C2F8A840A3F11B05A3F11C04C2F8AC00E4
:10585400C2F8B010A3F11D00A3F11E011F3BC2E961
:105864003140C2F8B450C2E9331330BC704700BFB2
:105874004B450020CC450020012100221C4B70B474
:1058840003F1E00518681E7C0478A64206D01C7457
:10589400007800280CBF08461046187658689E7C8D
:1058A4000478A64206D09C74007800280CBF0846F1
:1058B4001046587698681E7D0478A64206D01C755A
:1058C400007800280CBF084610469876D8689E7D5C
:1058D4000478A64206D09C75007800280CBF0846C0
:1058E4001046D8761C339D42CCD170BC704700BFA3
:1058F400CC4500201F4B204A581EA3F10A0130B4A6
:105904009D1C5C1C50609160A3F10B00191D9561F6
:10591400D461DD1CA3F10C0410621163981D591DA0
:1059240055639463A3F10D05A3F108049064D16455
:10593400A3F10900A3F10E01156514669D1FDC1F78
:1059440050669166A3F10F00191F13609567D46721
:105954005D1FA3F11004C2F88000C2F89010981ED5
:10596400D91E113BC2E9255430BCC2E92A01C2F850
:10597400B0307047C1450020AC460020314BF0B533
:105984004FF00D0C002501264FF0020E03F1C00765
:1059940006E012B1D97B012945D01833BB423ED071
:1059A4009A68987B1178884206D099731278002AF5
:1059B40014BF2A4632469A741968187B0A789042B2
:1059C40006D01A730A78002A14BF2A4632461A747B
:1059D40058685A7B0478944204D05C730278FAB90C
:1059E4005E7402785A74097819740029D1D0012997
:1059F40001D1012A24D0D87B0128CED1002ACCD1D0
:105A04000129CAD1D97C83F814E0013949B20029AB
:105A1400D974D8BFDA74DD731833BB42C0D1F0BD7A
:105A24005D740278DEE7012AB7D1D97C1A754A1C65
:105A340052B20C2ADA74EEDD83F813C0DD73EBE79F
:105A4400DA73AAE7AC46002030B40A4A0A4C137948
:105A540021790B4301D030BC704701254FF480718C
:105A64001571118223612571A182106830BCD36045
:105A7400FFF756BA244800206C470020672803D853
:105A8400024B184480F82A10704700BF24480020B5
:105A94003F2803D8024B184480F83610704700BFE3
:105AA4006C4700203F2803D8024B184480F8761036
:105AB400704700BF6C4700202DE9F0414FF400749B
:105AC4000021682280274FF480704FF0380E402563
