:020000040800F2
:100000000000012071440008753D0008793D00089A
:100010007D3D0008813D0008853D0008000000008E
:10002000000000000000000000000000893D000802
:100030008D3D000800000000913D0008953D00083E
:10004000B9440008B9440008B9440008B94400089C
:10005000B9440008B9440008B9440008B94400088C
:10006000B9440008B9440008B9440008B94400087C
:10007000B9440008B9440008B9440008B94400086C
:10008000B9440008B9440008B9440008993D000883
:10009000A53D0008B9440008B9440008B944000867
:1000A000B9440008B13D0008B9440008B94400084B
:1000B000B9440008D13D0008F13D0008B9440008EA
:1000C000B9440008B9440008B9440008B94400081C
:1000D000B9440008113E0008B9440008B9440008BA
:1000E000B9440008B9440008B94400080000000001
:1000F0000000000000000000000000000000000000
:100100000000000000000000B9440008B9440008E5
:10011000B9440008B9440008B9440008B9440008CB
:10012000B9440008B9440008B9440008B9440008BB
:10013000B9440008B9440008B9440008B9440008AB
:10014000B9440008B9440008B9440008B94400089B
:10015000000000000000000000000000000000009F
:10016000000000000000000000000000000000008F
:10017000000000000000000000000000000000007F
:10018000000000000000000000000000000000006F
:10019000000000000000000000000000000000005F
:1001A000000000000000000000000000000000004F
:1001B000000000000000000000000000000000003F
:1001C000000000000000000000000000000000002F
:1001D000000000000000000000000000000000001F
:0401E0005FF8E0F1F3
:1001E40010B5054C237833B9044B13B10448AFF36D
:1001F40000800123237010BDB8000020000000001F
:100204009496000808B5034B1BB103490348AFF3A8
:10021400008008BD00000000BC0000209496000887
:10022400034613F8012B002AFBD1181A0138704732
:100234004FF0FF0C1CEAD0521EBF1CEAD15392EAC5
:100244000C0F93EA0C0F6FD01A4480EA010C4002A1
:1002540018BF5FEA41211ED04FF0006343EA5010FB
:1002640043EA5111A0FB01310CF00040B1F5000F3D
:100274003EBF490041EAD3715B0040EA010062F1EC
:100284007F02FD2A1DD8B3F1004F40EBC25008BFD6
:1002940020F00100704790F0000F0CF0004C08BFF4
:1002A40049024CEA502040EA51207F3AC2BFD2F1C1
:1002B400FF0340EAC250704740F400004FF00003CF
:1002C400013A5DDC12F1190FDCBF00F00040704709
:1002D400C2F10002410021FA02F1C2F1200200FA47
:1002E40002FC5FEA310040F1000053EA4C0308BF0E
:1002F40020EADC70704792F0000F00F0004C02BF5F
:10030400400010F4000F013AF9D040EA0C0093F0D9
:10031400000F01F0004C02BF490011F4000F013B33
:10032400F9D041EA0C018FE70CEAD15392EA0C0FA1
:1003340018BF93EA0C0F0AD030F0004C18BF31F00C
:10034400004CD8D180EA010000F00040704790F0E2
:10035400000F17BF90F0004F084691F0000F91F086
:10036400004F14D092EA0C0F01D142020FD193EA4C
:100374000C0F03D14B0218BF084608D180EA0100D4
:1003840000F0004040F0FE4040F40000704740F0B0
:10039400FE4040F44000704780F0004002E000BF9F
:1003A40081F0004142001FBF5FEA410392EA030F5C
:1003B4007FEA226C7FEA236C6AD04FEA1262D2EBA6
:1003C4001363C1BFD218414048404140B8BF5B42AB
:1003D400192B88BF704710F0004F40F4000020F044
:1003E4007F4018BF404211F0004F41F4000121F05A
:1003F4007F4118BF494292EA030F3FD0A2F10102A4
:1004040041FA03FC10EB0C00C3F1200301FA03F1E1
:1004140000F0004302D5494260EB4000B0F5000F04
:1004240013D3B0F1807F06D340084FEA310102F1C3
:100434000102FE2A51D2B1F1004F40EBC25008BF75
:1004440020F0010040EA03007047490040EB00003F
:10045400013A28BFB0F5000FEDD2B0FA80FCACF140
:10046400080CB2EB0C0200FA0CF0AABF00EBC2506D
:1004740052421843BCBFD0401843704792F0000F5B
:1004840081F4000106BF80F400000132013BB5E7AE
:100494004FEA41037FEA226C18BF7FEA236C21D024
:1004A40092EA030F04D092F0000F08BF0846704789
:1004B40090EA010F1CBF0020704712F07F4F04D157
:1004C400400028BF40F00040704712F100723CBF6A
:1004D40000F50000704700F0004343F0FE4040F494
:1004E400000070477FEA226216BF08467FEA236352
:1004F4000146420206BF5FEA412390EA010F40F43D
:10050400800070474FF0000304E000BF10F0004388
:1005140048BF40425FEA000C08BF704743F096436F
:1005240001464FF000001CE050EA010208BF70478A
:100534004FF000030AE000BF50EA010208BF704711
:1005440011F0004302D5404261EB41015FEA010C26
:1005540002BF84460146002043F0B64308BFA3F11E
:100564008053A3F50003BCFA8CF2083AA3EBC25300
:1005740010DB01FA02FC634400FA02FCC2F120021F
:10058400BCF1004F20FA02F243EB020008BF20F056
:100594000100704702F1200201FA02FCC2F12002BC
:1005A40050EA4C0021FA02F243EB020008BF20EAB1
:1005B400DC7070474FEA4002B2F1FE4F0FD34FF0A8
:1005C4009E03B3EB12620DD94FEA002343F00043BC
:1005D40010F0004F23FA02F018BF404270474FF06A
:1005E4000000704712F1610F01D1420205D110F0F1
:1005F400004008BF6FF0004070474FF000007047A4
:100604007BB972B90029BEBF00204FF0004106E05B
:1006140008BF00281CBF6FF000414FF0FF3000F00E
:10062400B9B9ADF1080C6DE904CE002909DB002B42
:100634001ADB00F04DF8DDF804E0DDE9022304B034
:100644007047404261EB4101002B1BDB00F040F896
:10065400DDF804E0DDE9022304B0404261EB41012E
:10066400524263EB43037047524263EB430300F08F
:100674002FF8DDF804E0DDE9022304B0404261EB29
:1006840041017047524263EB430300F021F8DDF867
:1006940004E0DDE9022304B0524263EB43037047F4
:1006A40053B94AB9002908BF00281CBF4FF0FF31D5
:1006B4004FF0FF3000F06EB9ADF1080C6DE904CED7
:1006C40000F006F8DDF804E0DDE9022304B0704729
:1006D4002DE9F047089E0D4604468E46002B40F057
:1006E40083808A42174647D9B2FA82F34BB1C3F1E9
:1006F400200105FA03FE20FA01F19F4041EA0E0EA3
:100704009C404FEA1748BEFBF8FC1FFA87F908FB28
:100714001CE20CFB09F0210C41EA024290420AD986
:10072400BA180CF1FF3180F01881904240F2158123
:10073400ACF1020C3A44121AB2FBF8F008FB102296
:1007440000FB09F1A4B244EA0244A14209D93C19CC
:1007540000F1FF3280F00381A14240F200810238AF
:100764003C44641A002140EA0C401EB10022DC40E3
:10077400C6E90042BDE8F08702B9FFDEB2FA82F3AF
:10078400002B4FD18D1A01214FEA124E1FFA82F825
:10079400B5FBFEFC0EFB1C5508FB0CF0220C42EAD8
:1007A4000545A84207D97D190CF1FF3202D2A842AF
:1007B40000F2E98094462D1AB5FBFEF00EFB1055AD
:1007C40008FB00F8A4B244EA0544A04507D93C1943
:1007D40000F1FF3202D2A04500F2D9801046A4EB0A
:1007E400080440EA0C40C0E78B4208D9002E00F010
:1007F400B1800021C6E900050846BDE8F087B3FAD8
:1008040083F100294BD1AB4202D3824200F2B9807A
:10081400841A65EB030301209E46002EAAD0C6E984
:10082400004EA7E79F40C3F12002D1404FEA174E84
:10083400B1FBFEF01FFA87F80EFB101124FA02F246
:100844009D4000FB08FC2A43150C45EA0145AC45D4
:1008540004FA03F409D97D1900F1FF3180F08F8087
:10086400AC4540F28C8002383D44A5EB0C05B5FB49
:10087400FEF10EFB115C01FB08F995B245EA0C454B
:10088400A94507D97D1901F1FF3274D2A94572D95E
:1008940002393D44A5EB090541EA004178E7C1F17D
:1008A40020078B4022FA07FC4CEA030C25FA07F4D4
:1008B4004FEA1C4EB4FBFEF91FFA8CF80EFB1944E8
:1008C40020FA07F309FB08FA8D401D432B0C43EA79
:1008D4000444A24502FA01F200FA01F309D91CEB1F
:1008E400040409F1FF3048D2A24546D9A9F102090E
:1008F4006444A4EB0A04B4FBFEF00EFB104400FBBA
:1009040008FAADB245EA0444A24508D91CEB040434
:1009140000F1FF352DD2A2452BD90238644440EAB8
:100924000940A0FB0289A4EB0A044C45C6464D4687
:1009340019D316D05EB1B3EB0E0264EB050404FACE
:1009440007F722FA01F31F43CC40C6E900740021E3
:10095400BDE8F087314630460CE78C46EBE610469E
:10096400FFE64345E6D2B8EB020E69EB0C0501380D
:10097400E0E72846D3E711468CE78146B9E7084605
:1009840073E7084649E7ACF1020C3D4413E702382B
:100994003C4424E7704700BF034B93F8793003B914
:1009A4007047012000F01EBB94310020082815D8A0
:1009B40001290BD070B504461548462100EB84008C
:1009C40006F092FE0128054609D070BD00231149A6
:1009D400114AC1E90033C2E90033704770470E4E33
:1009E4002046315D06F008F90A4A135D3BB9335DD0
:1009F4000133DBB20C2B3355E7D9155570BD335D8C
:100A0400013BDBB23355002BDFD1135570BD00BF62
:100A1400DC000020D4000020FC0000200022034B56
:100A240003495A709A705960704700BF040100204E
:100A3400C513000800F05EBB0122024B58701A7007
:100A4400704700BF0C0100202DE9F0411F4D2B78A9
:100A5400012B01D0BDE8F08100231D4F1C461D4E23
:100A64002B7001E0082CF5D06B785FFA84F803EB67
:100A7400C303234407EB430393F82120404602EBCE
:100A8400820206EB82020A232232012106F094FD3F
:100A94006B7803EBC303234407EB430393F8213040
:100AA400013403EB830306EB830393F83220002A1B
:100AB400D8D0404693F8212093F8201006F018FC73
:100AC40040460E227C2106F013FDCBE70C010020EA
:100AD400B41A002090020020F8B500252F46124ECB
:100AE400ECB201222046032106F8017F06F0E2F869
:100AF4002046002107F028F820461022202106F085
:100B0400F7FC204611224F2106F0F2FC2046122267
:100B1400462106F0EDFC013520461322462106F05D
:100B2400E7FC082DDCD1F8BD0F010020082804D80B
:100B3400012903D00022034B1A547047014B195466
:100B4400704700BF1001002008289ABF014B185CB1
:100B5400FF20704710010020F0B4524B524C5A78D9
:100B6400524B02EBC20504EB450595F8215005EB09
:100B7400850503EB850696F82070D50087425DD085
:100B8400AE1804EB460696F8236006EB860603EBE4
:100B9400860696F82070874258D0AE1804EB4606B5
:100BA40096F8256006EB860603EB860696F8207019
:100BB400874251D0AE1804EB460696F8276006EB40
:100BC400860603EB860696F8207087424AD0AE1854
:100BD40004EB460696F8296006EB860603EB8606C8
:100BE40096F82070874243D0AE1804EB460696F878
:100BF4002B6006EB860603EB860696F82070874288
:100C04003CD0AE1804EB460696F82D6006EB86063B
:100C140003EB860696F82070874235D02A4404EB0D
:100C2400420494F82F2002EB820203EB820393F830
:100C3400202082422ED0F0BCFF20704796F821601D
:100C44008E429DD10020F0BCC0B2704796F821605E
:100C54008E42A2D10120F6E796F821608E42A9D1F6
:100C64000220F0E796F821608E42B0D10320EAE733
:100C740096F821608E42B7D10420E4E796F821600B
:100C84008E42BED10520DEE796F821608E42C5D1A2
:100C94000620D8E793F821308B4208BF0720CAD139
:100CA400D1E700BF0C010020B41A002090020020FC
:100CB4002DE9F04F6A4E00246A4FDFF8B491DFF853
:100CC400B48189B006F109050EE096F8A81001294F
:100CD40000D00721E0B2013405F09CFF082C05F197
:100CE400040507F110072BD016F8013F002BECD0B8
:100CF4005D4B5B7803EBC303234408EB430393F896
:100D0400213003EB830309EB830393F8323053B1AF
:100D1400AA6BBB689A4216D0142105F1A80006F00C
:100D2400E3FC012858D03221284606F0DDFC0128D6
:100D3400CFD00134082C05F1040507F11007D3D1F5
:100D440009B0BDE8F08F96F82830012BEBD15FFA9B
:100D540084FA5046052105F05DFF434B00215B7882
:100D64004FF0000E03EBC303234408EB430393F853
:100D740021C000230CEB8C0C09EB8C0CBCF82C0070
:100D8400BCF82E20CDE90401CDE900234FF0000B7F
:100D9400BCF830204FF0000C86F828E0DFF8D8E0EB
:100DA40000230EEB4401088E0791CDE902BC00211B
:100DB40002F0DAF80146504689B206F0C5FE0798FB
:100DC400018E504606F0BCFA03F0B8FBC5F8A80043
:100DD40003F0B4FB2860A6E796F88030012B2FD0EF
:100DE400002BF5D15FFA84FA5046062105F012FF74
:100DF40000231D4AD7F808C0527802EBC2022244ED
:100E040008EB420292F82120019302EB820209EBE3
:100E1400820292F8211092F820000391134A1FFADB
:100E24008CF1029004910093194618461278C5F883
:100E340038C006F0DBFF5046B96806F081FAC7E710
:100E4400D5F88020BB68A2F1C8019942AB63BFDC2E
:100E5400C8329A42BCDB002386F88030C2E700BF68
:100E64000F010020103100200C01002098580020B0
:100E740090020020B41A0020100100202DE9F04F48
:100E84004B4E0024DFF83891DFF83881494F89B0A0
:100E940006F109052AE07B7803EBC303234408EB3E
:100EA400430393F8213003EB830309EB830393F8A3
:100EB400323083B1DFF810B1AB6D5BF824104FEA28
:100EC400840AB3EBD14F21D0142105F1A80006F018
:100ED4000BFC01283CD03221284606F005FC0128F1
:100EE40008D00134082C05F104050CD016F8013F94
:100EF400002BD0D1E0B20721013405F08BFE082C81
:100F040005F10405F2D109B0BDE8F08F96F8283058
:100F1400012BE0D15FFA84FB5846052105F07AFEE7
:100F24000022254B86F8282003EB440A5846BAF8D9
:100F3400301006F009FEBAF83010584606F000FAF0
:100F440003F0FCFAC5F8A80003F0F8FA2860C2E739
:100F5400E3B218460621079305F05CFE0023797876
:100F64005AF80B0001EBC102224408EB420292F84A
:100F740021204FEAD04C02EB820209EB820292F864
:100F840021E092F82020CDE903ECCDE901320B49B0
:100F9400009318460A78C5F858C0194606F026FF8B
:100FA4000798A96D06F0CCF903F0C8FA286092E717
:100FB4000F0100200C01002010010020985800208F
:100FC40090020020B41A002060570020044B5B7884
:100FD40023B1062B01D1FFF751BF7047FFF768BE5D
:100FE40004010020062806D8034B5A78824202D016
:100FF4000122D8701A70704704010020054B9A78BA
:10100400062A05D85978914202D00121DA70197064
:10101400704700BF0401002070B52D4E3378012BBA
:1010240000D070BD0025F3783570062BF9D872789E
:101034007370B27006F038F9ECB2204606F036FB55
:101044002046072105F0E6FD2046002105F024FE98
:101054002046002105F0D0FD20460122002105F0A4
:1010640029FE01222046114605F024FE01222046D5
:101074000221154405F01EFE20460122032105F03D
:1010840019FE082DD8D17378062B1DD8DFE803F09C
:101094001613100D0A0704000E4B736070BD0E4B3F
:1010A400736070BD0D4B736070BD0D4B736070BD8C
:1010B4000C4B736070BD0C4B736070BD01210B4A07
:1010C4000B4B1170736070BD094B736070BD00BF32
:1010D4000401002075290008452100088D1F00081F
:1010E400351D00089D150008C51400080C010020DA
:1010F400C5130008094B10B55B689847FFF78CFFD0
:10110400074B1A7842B1002214461A70E0B2013437
:1011140006F0CCFA082CF9D110BD00BF0401002060
:10112400000000202DE9F04F0024424DDFF8148127
:10113400414F424EDFF810A187B009E02B78012B14
:1011440004BF00232B700134082C05F1010545D0A0
:101154007378C4EBC40203EBC303234407EB4303D8
:1011640093F8213003EB830308EB830393F83230C5
:10117400002BE8D01AF82290B9F1010FDED195F8CE
:1011840000B0BBF1000FDED1E3B21846049385F83A
:101194000090FFF7D9FC0128049B22D01846FFF7E2
:1011A400D3FC03460028CED17278019002EBC20230
:1011B400224407EB420292F82120009002EB8202C3
:1011C40008EB820292F821C092F820204946CDE92A
:1011D400022C1B4A127806F035FEB4E707B0BDE8CE
:1011E400F08F594605901846FFF7A0FC049B059A1A
:1011F4001846032105F05EFD049B5946184606F087
:10120400A3FC049B10221846202106F071F9049BCC
:10121400112218464F2106F06BF9049B122218463E
:10122400462106F065F9049B13221846462106F070
:101234005FF988E7E0010020B41A00200C010020C7
:101244009858002090020020DF320020082800F285
:10125400AA802DE9F04F544F544E7B78544D03EB44
:10126400C303034406EB430393F82130824603EBA4
:10127400830305EB83031A8EDB8D0C469A4289B0F7
:1012840000F284808A4200F286808B42C0F0838020
:101294004FF0000BDFF82481504608EB0A090121C6
:1012A40089F8A8B0FFF742FC5A465046032105F0DE
:1012B40001FD7B78002203EBC303534406EB430395
:1012C40093F821C000230021CDE9022300230CEB75
:1012D4008C0C05EB8C0CBCF82C00BCF82E20CDE952
:1012E4000401CDE900232046BCF83020002300216E
:1012F40001F03AFE01464FF0010C2E4AC3044FEAB6
:101304000A10105802EB0A1207902B480AF10A0E31
:10131400C2E90133079A40F82E300AF11000136035
:1013240089B20AF1220248F82030504689F880C078
:1013340048F8224007934FF0000906F005FC7A783C
:10134400002702EBC202524406EB420696F8211033
:10135400079B01EB810105EB81018C8DB1F82E8097
:101364000E8EE404E5171846002200235946CDE901
:101374000045CDE90489CDE9026701F0F5FD014698
:10138400504609B0BDE8F04F05F0DABF8B4202D8F1
:101394008A42BFF47DAF0123084882448AF8A8300A
:1013A40009B0BDE8F08F70470C010020B41A00208A
:1013B4009002002010310020385700201001002036
:1013C4002DE9F84F364B1A78012A42D00025354EC4
:1013D4002F46354CDFF8D480DFF8D49015E0022B8B
:1013E40021D02178E8B2377505F006FCB4F9003055
:1013F40059F82330C8F80C300135082D06F11806C9
:1014040004F1020408F1100816D0337D002BF3D048
:10141400012BE4D1218801310BB20C2B89B208DDF8
:101424000D212180DEE7218801390BB2002B89B21E
:101434000CDB2380C9B2D5E7FFF774FEFFF7C6FDC6
:10144400FFF7AAFABDE8F84FFFF7FEBA002127809C
:10145400C8E7002214461646144DDFF858A0DFF8FA
:101464005890DFF85880DFF848B01A70E7B2A968DE
:10147400384605F065FFDBF800303846EB600021A4
:1014840001342AF8026F05F0B7FB082C05F11005AA
:1014940009F8016F08F8016FE8D1FFF71DFB95E724
:1014A40001000020A4330020E801002010310020B6
:1014B40004000020E60100200F010020DF010020CD
:1014C40038B5314C2178012927D0304B93F8792055
:1014D400EAB1DB6FB3F52F7F0ED3B3F57A7F35D343
:1014E40040F2135293423CD9B3F5C86F23D340F270
:1014F4006B72934240D938BD0221072005F0CCFB22
:10150400BDE838400F222E21072005F0F1BF01234A
:101514002370BDE83840FFF771BD0025082307207C
:101524001B4A257006F048F8052302210720194AB2
:1015340006F042F8C9E70821072005F0ADFBBDE835
:10154400384012222E21072005F0D2BF04210720A3
:1015540005F0A2FBBDE8384010222E21072005F03B
:10156400C7BF0621072005F097FBBDE838401122CC
:101574002E21072005F0BCBF012302202370BDE803
:101584003840FFF72FBD00BF3C00002094310020FD
:10159400C4960008CC960008F8B55C4D2C78012C54
:1015A40059D05B4B93F8792052BB0122594C2270DD
:1015B4001E7A012E00F084801E7E012E00F09F8092
:1015C40093F82860012E00F0938093F83820012AC4
:1015D4003CD093F84820012A38D093F85820012AA7
:1015E40034D093F86820012A30D093F87860012E23
:1015F4000AD10520FFF7F6FC00232E70237003E0C8
:10160400444C2278002AD3D14FF4FA71424806F0B0
:101614006BF80128044600D0F8BD404B187880F0E0
:1016240001021A70002852D00021084605F0E4FA9D
:101634002046002105F0E0FA0021022005F0DCFA42
:10164400BDE8F8400021072005F0D6BA01220023A6
:101654002A702370D8E70026314F304621460523EF
:10166400304A2E703C7005F0A7FF30460723022154
:101674002D4A05F0A1FF2146204605232B4A05F0FB
:101684009BFF204607230221274A05F095FF2146A8
:1016940006230220264A05F08FFF0221082308466C
:1016A400244A05F089FF072321461846224A05F0FB
:1016B40083FF0823022107201E4A05F07DFF70E7FF
:1016C4000320FFF78FFC00232E7023709CE70D216D
:1016D40005F092FA20460D2105F08EFA0D21022024
:1016E40005F08AFABDE8F8400D21072005F084BA18
:1016F4000620FFF777FC00232E70237084E7042074
:10170400FFF770FC00232E7023707DE73D0000205E
:1017140094310020F8010020FC0100200002002088
:1017240001000020D4960008DC960008E496000826
:10173400EC960008C4960008F49600082DE9F84FCA
:101744000024294E294FDFF8A880DFF8A8A0DFF88D
:10175400A89023E093F8212093F82010284605F060
:10176400C7FD32780A2302EB820207EB82020121D1
:101774002846223205F020FF0E227C21284605F05F
:10178400B7FE284698F8001005F0DAFD0134284623
:101794001022502105F0ACFE082C23D016F8013F8E
:1017A400E5B203EB830307EB830393F83220002AAB
:1017B400D0D10A2352460121284605F0FDFE042318
:1017C4004A460221284605F0F7FE284698F80010FC
:1017D40005F0B6FD013428461022502105F088FE9C
:1017E400082CDBD1BDE8F88F1B02002090020020FA
:1017F400B8570020FC9600080897000841F22442DC
:101804002DE9F04FDFF810928BB009F5A1531B7846
:1018140059F80220DFF804B202930192013B794A9D
:10182400DBB24FF0000ED84677491078DFF8F0A10C
:10183400764C089312E00120019B81F800E09B7C28
:1018440084F814E088F80030714B01318B420AF1BE
:10185400100A08F1010804F1180417D09AF80920B5
:10186400002AE8D1237D002BEED0012B13D0022BCC
:101874005AD00B7803F5A16309EB83035B689B7C67
:10188400012088F8003084F814E0DDE75D4B18701F
:101894000BB0BDE8F08F0878029B0130C0B29842CB
:1018A400087080F09280024600F5A16309EB83037F
:1018B4005B689BF800009BF801C004909BF8020051
:1018C4009B7C03909BF80500551C05909BF8060033
:1018D400EDB207909BF8070005F2095563459BF8A4
:1018E40003709BF80460099009EB8505069400F0E9
:1018F40082800498181AB0FA80F04009039CA3422D
:1019040008BF0120BB4208BF0120B34260D0059C40
:10191400A3425DD0079CA3425AD0099CA34257D04E
:10192400012855D0069CABE70A789BF801C0013A20
:10193400D2B2FF2A08BF089B9BF8027004BF1A4664
:101944000B709BF800309BF8036003939BF8053001
:101954009BF8045004939BF8063018BF0A70059353
:101964009BF80730CDE9063402F5A16309EB830344
:101974005B689B7C634526D00398181AB0FA80F004
:101984004009BB4208BF0120B34208BF0120AB425B
:101994000CD0049CA34209D0059CA34206D0069C0B
:1019A400A34203D0012801D0079C69E7013AD2B2CF
:1019B400FF2A08BF089A0A70002AD5D1154B079C44
:1019C4001B689B7C5CE70120DBE7019B0A7070E7E6
:1019D400029B0132D2B29A420A7005D3019B81F86C
:1019E40000E0069C9B7C4BE73AB155F8043B9B7C9A
:1019F40063457FF47EAF012080E7064B069C1B689D
:101A04009B7C3DE73E00002004020020A43300201C
:101A14000C020020B4160020900200201C020020BA
:101A2400943100202DE9F041B74AB84992F8DE001C
:101A34000B78012886B000F0A080012B00F0818093
:101A440092F8DF40B24A012C107800F0848001281B
:101A540007D0022805D0022B00F0848006B0BDE830
:101A6400F08100234FF00108AA4FAB4EAB4D97F81D
:101A740000E03078AA4C13702A780B700EEBCE0C71
:101A8400A84904EB4C0C82428CF8210081F80080B8
:101A940040F0258139787278687801EBC10304EB52
:101AA4004303904283F8232040F001813978B278CF
:101AB400A87801EBC10304EB4303904283F825208B
:101AC40040F0DD803978F278E87801EBC10304EB6B
:101AD4004303904283F8272040F0B9803978327963
:101AE400287901EBC10304EB4303904283F82920D6
:101AF40040F0958039787279687901EBC10304EB81
:101B04004303904283F82B2071D13978B279A879B4
:101B140001EBC10304EB4303904283F82D204ED123
:101B24003978F279EB7901EBC10004EB400493427C
:101B340084F82F2027D1002006B0BDE8F041FFF73C
:101B440051BA022092F8DF40714A012C0346087012
:101B540010787FF47CAF00287FF47BAF022B1470E5
:101B64007FF47CAF002010700870FFF73BFA01226D
:101B74006C4B1A7006B0BDE8F081002B7FF460AFA7
:101B8400034608705CE700230724674802F5A16256
:101B940000EB82025068654A457812780595007812
:101BA4000291CDE9034019461846CDE9003306F009
:101BB400C3F9002006B0BDE8F041FFF713BA0023D3
:101BC4004FF0060C584802F5A16200EB82025268FD
:101BD400507805901078CDE9021CCDE90033534AC2
:101BE400049019461846127806F0A6F998E70023DF
:101BF4004FF0050C4C4802F5A16200EB82025268DA
:101C0400507805901078CDE9021CCDE90033474A9D
:101C1400049019461846127806F08EF975E70023E9
:101C24004FF0040C404802F5A16200EB82025268B6
:101C3400507805901078CDE9021CCDE900333B4A79
:101C4400049019461846127806F076F952E70023F4
:101C54004FF0030C344802F5A16200EB8202526893
:101C6400507805901078CDE9021CCDE900332F4A55
:101C7400049019461846127806F05EF92EE7002300
:101C84004FF0020C284802F5A16200EB8202526870
:101C9400507805901078CDE9021CCDE90033234A31
:101CA400049019461846127806F046F90AE700230C
:101CB4004FF0010C1C4802F5A16200EB820252684D
:101CC400507805901078CDE9021CCDE90033174A0D
:101CD400049019461846127806F02EF9E6E6124AE0
:101CE40000F5A16002EB80004168104A4878127840
:101CF400059009781846CDE90331CDE9013E19462E
:101D0400009306F019F9C5E6C4320020150200203C
:101D140014020020B85700201C0200200C020020EE
:101D2400B41A00203F0000209002002098580020A0
:101D3400F8B53148017801291BD0304DFFF75EFD1D
:101D44002B78012B03D100232B70FFF7F7FCFFF74F
:101D540069FE4FF4FA712A4805F0C6FC01283BD00D
:101D64000024E0B200210134FEF720FE082CF8D153
:101D7400F8BD0027234A244B5278244C02EBC205B9
:101D840003EB450393F821502270214C214A07703C
:101D940093F8250093F823602570157093F8275065
:101DA400A070907093F82D0093F8297066705670A7
:101DB400E57093F82B60D57093F82F300F4DA07118
:101DC400907107202771177166715671E371D37191
:101DD4002970FEF7EBFDB1E70F4C032107202278B1
:101DE40004F068FF02210720227804F063FF2378BF
:101DF40083F001032370B3E73F0000203E0000207E
:101E0400180200200C010020B41A0020B85700204A
:101E14001C0200200C020020240200202DE9F041C5
:101E24000024264F264D274E1AE093F8212093F8DC
:101E34002010404605F05CFA0E227C21404605F055
:101E440057FB4046297805F07BFA10225021404682
:101E540005F04EFB0134404605F028FC082C2AD03E
:101E64002B785FFA84F803EBC303234407EB4303A3
:101E740093F82120404602EB820206EB82020A23F9
:101E84002232012105F098FB2B7803EBC303234492
:101E940007EB430393F8213003EB830306EB83033F
:101EA40093F83220002AC0D140462021013405F0A5
:101EB400C5FA082CD4D1BDE8F08100BFB41A0020C3
:101EC400B857002090020020F0B5284A284C92F818
:101ED400DE102378012985B043D0012B0DD092F870
:101EE400DF10244D01292A7810D0012A1DD0022A9E
:101EF4001BD0022B0FD005B0F0BD02210B46217080
:101F040092F8DF101B4D01292A78EED1002AEED178
:101F1400022B2970EFD1002028702070FFF762F89F
:101F24000122154B1A7005B0F0BD00264FF0010CCC
:101F3400124B13491B78134ACDE9016300960E4FE7
:101F440030464B701278334631462E70267087F82F
:101F540000C006F069F8304605B0BDE8F040FFF770
:101F640041B8002BBBD10B462170B8E7C432002026
:101F7400270200202602002041000020B85700203C
:101F84000C0100209858002038B5314B19780129EC
:101F94003BD0304C304991F8BC307BB1012B42D05E
:101FA400022B2E4B1A784AD000202D4B81F8BC000E
:101FB4001A7000232370FFF731FF02E02378012B0E
:101FC400F7D0FFF781FF4FF4FA71264805F08CFB38
:101FD400012805D0BDE8384000210720FEF7E6BC03
:101FE400214C03212278072004F064FE02210720FB
:101FF400227804F05FFE2378002183F0010323702C
:102004000720BDE83840FEF7D1BC0025174A144C20
:102014005278124822700F4C027007201D702170F4
:10202400FEF7C4FCB6E70D48114D02782D78013255
:10203400D2B295420270B7D21A460370B4E7013A9D
:10204400D2B21A70002AAFD1094A12781A70ABE7DB
:102054004100002040000020A4330020250200207D
:10206400B8570020280200202C0200200C01002078
:10207400D42C0020F0B52C4A2C4C92F8DE10237896
:10208400012983B039D0012B1FD092F8DF00284AF0
:102094000128117822D0012905D0022903D0022B6E
:1020A40021D003B0F0BD00250126224B224F197820
:1020B4003B781570214A8B422570167022D100207E
:1020C40003B0BDE8F040FEF78DBF022192F8DF00B7
:1020D400174A01280B4621701178DCD10029DCD184
:1020E400022B1070DDD1002010702070FEF77AFFF3
:1020F4000122124B1A7003B0F0BD002BC5D10B4660
:102104002170C2E73046397000F0B2FE28463146ED
:102114002B46CDE900553A7805F040FF002003B086
:10212400BDE8F040FEF75EBFC43200202E0200205E
:102134002D02002034020020985800204200002084
:10214400F8B5354D2C78012C36D04FF4FA7133485C
:1021540005F0CAFA01281FD0314B93F82C1099B11D
:10216400012946D02F4A0229117807D1013911F0EB
:10217400FF0105BFFF2001461170107000220120ED
:1021840083F82C2005F0DCF800210120FEF70EFC7A
:10219400BDE8F840FFF76EBF234C032107202278E7
:1021A40004F088FD02210720227804F083FD2378BF
:1021B40083F001032370CFE700261C4B194F1878D6
:1021C400214606231A4A387020462E7005F0F4F989
:1021D4002046397805F0B4F8214630460723154ADD
:1021E40005F0EAF9304607230221134A05F0E4F921
:1021F400ABE70C480278013212F0FF021CBF0270F8
:1022040011464FF0000208BF017083F82C20012012
:1022140005F096F8B8E700BF420000203002002025
:10222400A4330020340200203502002098580020F6
:10223400109700081897000820970008042A04D86B
:10224400DFE802F0091E2328040070470623012159
:10225400174A05F0B1B930B501EB81018C00154D79
:1022640004F1220283B00A2301212A442C44019060
:1022740005F0A2F994F83230019883B903B030BD67
:102284000A2301210C4A05F097B90A2301210B4ABC
:1022940005F092B906230121094A05F08DB994F895
:1022A400212094F8201003B0BDE8304005F020B898
:1022B40048970008900200202897000834970008E7
:1022C400409700082DE9F84F00248A46A146224D84
:1022D400DFF88880461E16F8013FFBB12B7DEBB179
:1022E400012B22D0022B2CD00AEB040BE7B285F889
:1022F400149038469BF8001004F07EFC20213846E8
:1023040005F09CF8384605F0D1F938469BF80020D2
:102314003178FFF793FF012304F808300134082CC7
:1023240005F11805D7D1BDE8F88F1AF804300AEB87
:10233400040B0133DBB2042B0BD904230AF8043059
:10234400D4E71AF804300AEB040B013BDBB2FF2B91
:10235400CCD00AF80430C9E7A4330020400200209E
:102364002DE9F84F0024DFF88C815D4E5D4F5E4D02
:10237400DFF8849118F8013F1BB114F80920012AF1
:1023840027D02B782BB1022B1CD0032B13D0012B7D
:102394000AD00134082C06F1040607F1060705F1FA
:1023A4000105E7D1BDE8F88F3168E0B2C90CB98006
:1023B40004F0C6FFEDE73168E0B2C90C398004F0DF
:1023C400BFFFE6E73168E0B2C90C798004F0B8FFDA
:1023D400DFE74FF0000A454B5FFA84FB04F803A0E3
:1023E4005846032104F809A004F064FC404A2B7801
:1023F40004F802A0042BC6D8DFE803F0032D4F0B2A
:1024040003005846002105F09FFB00222B78326020
:10241400B8E798F80030DFF8E4A003EB83030AEB95
:102424008303998D584605F08FFB98F80030584681
:1024340003EB83030AEB8303998D04F081FF98F87F
:1024440000202B7802EB82020AEB820ABAF82C20D5
:10245400D204326096E798F80030DFF8A0A003EBCE
:1024640083030AEB8303198E584605F06DFB98F835
:102474000030584603EB83030AEB8303198E04F000
:102484005FFF98F800202B7802EB82020AEB820AA5
:10249400BAF83020D204326074E798F80030DFF8DC
:1024A4005CA003EB83030AEB8303D98D584605F044
:1024B4004BFB98F80030584603EB83030AEB830385
:1024C400D98D04F03DFF98F800202B7802EB8202AE
:1024D4000AEB820ABAF82E20D204326052E700BF17
:1024E40060570020580200205002002010010020F4
:1024F4003802002047020020400200209002002001
:10250400F0B5A44AA44992F8DE000B78012889B0FA
:1025140051D0012B37D092F8DF40A04A012C10781B
:102524003AD0012805D0022803D0022B39D009B0B3
:10253400F0BD002301259A4C137022789948042A8F
:102544000B7005705ED06378042B00F09C80A37838
:10255400042B77D0E378042B00F02E812379042B0D
:1025640000F0F6806379042B00F0D080A379042B6B
:1025740000F0AB80E379042B22D0002009B0BDE841
:10258400F040FEF72FBD022092F8DF40834A012C71
:10259400034608701078C4D10028C4D1022B1470EB
:1025A400C5D1002010700870FEF71CFD01227D4B80
:1025B4001A7009B0F0BD002BADD103460870AAE72C
:1025C4000023794A7949D279794802EB820200EBF7
:1025D4008204D1F82A00CD8DE06294F82160888DC0
:1025E4002586498D94F82040CDE90410CDE90246B2
:1025F400CDE900336F4A069519461846127805F05E
:1026040065FCBAE7684A69491278694802EB8202B4
:1026140000EB820508688E88E86295F82170488886
:102624002E86098895F82050CDE90410CDE90033B1
:10263400CDE902575F4A069619461846127805F006
:1026440045FC80E70023584A58499278584802EBE1
:102654008202CE6800EB8205088A95F82120EE629A
:10266400288695F820500690C8898989CDE90033D9
:10267400CDE9041003924F4A029519461846127880
:1026840005F024FC66E70023474A48495278484845
:1026940002EB8202D1F8066000EB8205488995F8C6
:1026A4002120EE62288695F8205006900889C98872
:1026B400CDE90033CDE9041003923E4A0295194650
:1026C4001846127805F002FC41E70023364A3749E0
:1026D4009279374802EB82024E6A00EB8205088D3C
:1026E40095F82120EE62288695F820500690C88C33
:1026F400898CCDE90033CDE9041003922D4A02956B
:1027040019461846127805F0E1FB33E70023264A00
:1027140026495279264802EB8202D1F81E6000EB6A
:102724008205488C95F82120EE62288695F8205081
:102734000690088CC98BCDE90033CDE904100392CF
:102744001C4A029519461846127805F0BFFB0DE79E
:102754000023154A15491279154802EB82028E6945
:1027640000EB8205888B95F82120EE62288695F887
:1027740020500690488B098BCDE90033CDE9041035
:1027840003920C4A029519461846127805F09EFBEE
:10279400E8E600BFC43200203702002036020020E1
:1027A400500200204300002048020020580200206C
:1027B40090020020985800200023104A1049D27833
:1027C400104802EB8202D1F8126000EB8205C88A3D
:1027D40095F82120EE62288695F820500690888A84
:1027E400498ACDE90033CDE904100392064A0295E3
:1027F40019461846127805F069FBAFE64802002036
:10280400580200209002002098580020082800D97F
:10281400704738B504460D460121FEF787F9204676
:102824000022032104F046FA0C4AEB0402EB0412E2
:102834000B49C2E901330B4804F10A0241F8223082
:1028440004F11002294640F82230204605F07CF9B4
:1028540029462046BDE8384004F072BD10310020FE
:1028640038570020100100202DE9F04F0024394D85
:10287400DFF8F080384F394EDFF8EC90DFF8ECB039
:1028840087B004E00134082C05F1010525D07378E4
:1028940003EBC303234407EB430393F8213003EB17
:1028A400830308EB830393F83230002BEAD014F847
:1028B4000930013B012BE5D804EB44031BF833A09A
:1028C400BAF1010F0CD02B780134012B04BF002383
:1028D4002B70082C05F10105D9D107B0BDE8F08FA4
:1028E40029780029CED1E3B218460591049385F8DE
:1028F40000A0FEF729F9DDE9043101281FD01846AC
:10290400FEF722F903460028BCD17278019002EB4D
:10291400C202224407EB420292F82120009002EB0B
:10292400820208EB820292F821C092F820205146DC
:10293400CDE9022C0A4A127805F084FAA2E7059040
:102944001846FEF7F3F8DDE904320321184604F0D3
:10295400B1F997E738020020B41A00200C010020D6
:10296400985800209002002050020020B633002026
:102974002DE9F84FDFF874C29CF80030012B15D014
:102984008E498F48FFF79EFCFFF7EAFCFFF76CFFC8
:10299400FFF7B6FDFEF71AFB4FF4FA71894804F00D
:1029A400A3FE012800F0ED80BDE8F88F0027864BD8
:1029B400864A5B78DFF8388203EBC30302EB4302F9
:1029C40092F82130DFF8F89103EB830092F823604A
:1029D4004FEA800E08F104050EF1280E08EB800A78
:1029E4003C465EF805B0BAF830A089F8003089F8A2
:1029F4000160774B06EB8606B600A3F804A006F147
:102A0400280A464492F82500B68DC3F800B089F828
:102A14000200DE8008F1060656F80AA092F8271094
:102A240000EB800089F80310C3F808A008EB800AC3
:102A340005EB8000806ABAF830A001EB81018900BF
:102A440092F829E0A3F810A0D86001F128004144CD
:102A54003058B1F82CA00EEB8E015861A3F812A0E7
:102A640089F804E008EB810005EB8101896A008E96
:102A7400996198838CF8007092F82BE092F82DC03D
:102A840092F82F000EEB8E02920089F805E002F115
:102A9400280E424456F80EA0B2F82CE00CEB8C023F
:102AA40005EB820500EB800108EB8202128E89009F
:102AB400C3F820A0AD6A89F806C0A3F81EE001F1AE
:102AC400280C56F80CC01A85424A4144898D5D622F
:102AD400C2E90077394D404EDFF818B1C5E90077F7
:102AE40089F80700C3F82CC05985013D15F8013F4A
:102AF400E7B2042B0AD8DFE803F01B143D360300C9
:102B040006235A460121384604F056FD3846002172
:102B1400FEF70CF800230134082C06F8013FE5D138
:102B24002EE70A23012138462C4A04F045FDEDE73F
:102B340019F804A00A230AEB8A0A4FEA8A0A0AF15E
:102B44002202012138464244C24404F035FD9AF879
:102B54003230002BDAD038469AF821209AF8201027
:102B640004F0C6FBD2E70623012138461C4A04F0D0
:102B740023FDCBE70A23012138461A4A04F01CFD41
:102B8400C4E70720FDF7E0FF012810D0164C03210D
:102B94000720227804F08EF802210720227804F01E
:102BA40089F8237883F001032370BDE8F88F0022AD
:102BB4000321072004F07EF80B4CEDE750020020BF
:102BC40048020020880200200C010020B41A0020D2
:102BD40058020020400200203702002028970008F5
:102BE40040970008349700088C020020430000201E
:102BF400900200204897000800B509484A780B79EC
:102C0400817883B002F01F02009101924278012181
:102C1400002003F00F0305F0E1F903B05DF804FBB5
:102C2400A8610020F0B51D49002391F800C08E462C
:102C34000846157857780CF1010601E0B3420CD030
:102C440050F8041F01330C78AC42F7D14C78BC42E5
:102C5400F4D18B7CFF2B00D0F0BD0CEB8C01104821
:102C64008B0003F120060CF5A16400EB81010644FE
:102C740000EB840481F832C081F8217081F820507F
:102C8400666052F8021F22331950928803449A80D6
:102C94009EF8003001338EF80030F0BDB0160020ED
:102CA40090020020F0B40F48002305781678577876
:102CB400013501E0AB4212D050F8041F01330C7807
:102CC400B442F7D14C78BC42F4D18B7CFF2B06D0B4
:102CD400D2F80210044A03EB830342F82310F0BC39
:102CE400704700BFB0160020B8020020F0B41348AB
:102CF4000023057816785778013501E0AB421AD0E5
:102D040050F8041F01330C78B442F7D14C78BC421C
:102D1400F4D18B7CFF2B0ED003EB8303D2F802405B
:102D240007499B0003F1280044509079D2790B4461
:102D340040EA02229A85F0BC704700BFB01600201A
:102D440094020020F0B45778072F48D82548002370
:102D54000578967892F803C0013501E0AB420AD0B9
:102D640050F8041F01330C78B442F7D14C78644511
:102D7400F4D1897C00E0FF2110781B4D00EBC003E7
:102D840005F591561F4496F800C005EB470705EB7F
:102D9400430387F8211083F82000C700BCF1000F1B
:102DA4000DD03346012206EB8C0453F8041F097836
:102DB400814208BF0022A342F7D1012A0FD138442F
:102DC40005EB40030CF5916205EB4000203305EB65
:102DD40082050CF1010280F831C06B603270F0BCE6
:102DE400704700BFB0160020B41A002008B5107850
:102DF400FDF722FE0122014B1A7008BD01000020DC
:102E040070B5517810781546FDF7A6FEFF2800D15D
:102E140070BD04460121EA78AB78074E43EA0223E9
:102E24001830321926F8103082F8281001F086FB89
:102E3400023446F8240070BD1001002010B551780A
:102E440010781446FDF788FEFF2804D0074B5B7802
:102E54003BB1062B00D010BD6188BDE81040FFF7E0
:102E6400D5BC6188BDE81040FEF7F0B9040100202C
:102E740005F0EEBD10B582B002F012F905F094FE33
:102E840060BB0023174A22F8023F01331B2BFAD1FF
:102E940000240DF106012046ADF8064005F080FD42
:102EA4004AF6AA21BDF806308B420DD10E4C002300
:102EB4000DF106010120ADF8063005F071FDBDF8F5
:102EC4000630237002B010BD204605F0C1FD01217B
:102ED400054C0846217005F0BBFDE8E700F036FE1E
:102EE400CFE700BFD63000209858002030B400242B
:102EF4001A4B1B4A1D1D156103F10805156203F1E8
:102F04000C05156303F11005156403F1140515652B
:102F140003F1180515664FF07E556FF0F020214639
:102F240013601C3313670F4BD560D561D562D5632D
:102F3400D564D565D566D5675460546154625463CD
:102F4400546454655466546703F5A0521986D862D4
:102F540014339342FAD130BC704700BF605700204D
:102F64001031002090020020F8B5089E0A9D801AB6
:102F7400099F0B9C61EB0301AD1B64EB070400FB91
:102F840004F405FB0144A0FB05012144069C079DB4
:102F9400A21A65EB0303FDF733FB801947EB01012C
:102FA400F8BD00BF2DE9F04F1421D94883B004F0D7
:102FB4009BFB012840F03F82D64BD74A5F78D74C21
:102FC40007EBC70302EB430393F82180D44D08EBCE
:102FD4008803226805EB8303B3F82CB01068D4F897
:102FE40004904FEACB4B834594BFA9EB0B00A9EBAC
:102FF4000000FDF78BFAE168FDF71AF9FDF7DAFA3C
:10300400A9EB000CE3454FEA880398BFDC46434430
:1030140005EB8303B3F83080DA8D4FF000094FF0ED
:1030240000038CBFC4F804C0C4F804B0B2EB0800B9
:103034005A46A0FB0C0163EB09030CFB0311D317E5
:10304400CDE90089FDF7DCFA4FEAC70AB24A0AEB78
:10305400070302EB430393F82390009B2169C018F4
:1030640009EB890305EB8303B3F82CB0A06008686F
:10307400D4F814804FEACB4B834594BFA8EB0B00E4
:10308400A8EB0000FDF742FAE169FDF7D1F8FDF77E
:1030940091FAA8EB000CDC454FEA890328BFDC4613
:1030A4004B4405EB8303B3F83080DA8D4FF000090D
:1030B4004FF0000334BFC4F814C0C4F814B0B2EB2A
:1030C40008005A46A0FB0C0163EB09030CFB031137
:1030D400D317CDE90089FDF793FA8F4A0AEB07036A
:1030E40002EB430393F82590009B216AC01809EB77
:1030F400890305EB8303B3F82CB0A06108684FEA99
:10310400CB4BD4F82480834594BFA8EB0B00A8EBE9
:103114000000FDF7FBF9E16AFDF78AF8FDF74AFACA
:10312400A8EB000CE3454FEA890398BFDC464B4407
:1031340005EB8303B3F83080DA8D4FF000094FF0CC
:1031440000038CBFC4F824C0C4F824B0B2EB080058
:103154005A46A0FB0C0163EB09030CFB0311D317C4
:10316400CDE90089FDF74CFA6B4A0AEB070302EB41
:10317400430393F82790009B216BC01809EB890344
:1031840005EB8303B3F82CB0A0620868D4F834804C
:103194004FEACB4B834594BFA8EB0B00A8EB000090
:1031A400FDF7B4F9E16BFDF743F8FDF703FAA8EB7B
:1031B400000CE3454FEA890398BFDC464B4405EB1A
:1031C4008303B3F83080DA8D4FF000094FF0000329
:1031D4008CBFC4F834C0C4F834B0B2EB08005A460B
:1031E400A0FB0C0163EB09030CFB0311D317CDE91E
:1031F4000089FDF705FA484A0AEB070302EB43038B
:1032040093F82990009B216CC01809EB890305EB06
:103214008303B3F82CB0A06308684FEACB4BD4F80F
:103224004480834594BFA8EB0B00A8EB0000FDF796
:103234006DF9E16CFCF7FCFFFDF7BCF9A8EB000CA1
:10324400E3454FEA890398BFDC464B4405EB83030F
:103254008CBFC4F844C0C4F844B0B3F83080DA8DED
:103264004FF000090023B2EB08005A46A0FB0C0102
:1032740063EB09030CFB0311D317CDE90089FDF7B8
:10328400BFF9254A0AEB070302EB430393F82B909B
:10329400009B216DC01809EB890305EB8303B3F888
:1032A4002CB0A0640868D4F854804FEACB4B834513
:1032B40094BFA8EB0B00A8EB0000FDF727F9E16D24
:1032C400FCF7B6FFFDF776F9A8EB000CE3454FEAEF
:1032D400890398BFDC464B4405EB8303B3F8308085
:1032E400DA8D4FF000094FF000038CBFC4F854C0CE
:1032F400C4F854B0B2EB08005A46A0FB0C0163EBCF
:1033040009030CFB0311D317CDE900890AE000BFC0
:10331400903100200C010020B41A0020103100204C
:1033240090020020FDF76CF9444A0AEB070302EB14
:10333400430393F82D90009B216EC01809EB890379
:1033440005EB8303B3F82CB0A0650868D4F8648057
:103354004FEACB4B834594BFA8EB0B00A8EB0000CE
:10336400FDF7D4F8E16EFCF763FFFDF723F9A8EB52
:10337400000CE3454FEA890398BFDC464B4405EB58
:103384008303B3F83080DA8D4FF000094FF0000367
:103394008CBFC4F864C0C4F864B0B2EB08005A46E9
:1033A400A0FB0C0163EB09030CFB0311D317FDF71E
:1033B40027F9224B574403EB470696F82F60226FF8
:1033C40006EB860305EB830310EB0800A066B3F855
:1033D4002C801068676F4FEAC848804594BFA7EBFC
:1033E4000800381AFDF792F8E16FFCF721FFFDF7AA
:1033F400E1F83B1A434528BF43464FF000074FF01E
:10340400000B4FEA8602164405EB86052E8EB5F8AE
:103414002EA034BF6367C4F87480BAEB0600A0FB27
:1034240003016BEB070203FB02114246D317FDF7BE
:10343400E7F88019A06703B0BDE8F08FB41A002044
:1034440000F002B800F01EB830B40C4B0C4A03F183
:10345400180003F1300103F1480503F16004106121
:10346400136003F17800116203F19001A83315632E
:10347400146410651166136730BC7047B6330020BE
:103484009431002038B59A4C257A002D4CD0012D6A
:1034940000F09F8000232372257E002D4FD0012D44
:1034A40000F016810023237694F82850002D52D082
:1034B400012D00F0FC80002384F8283094F8385063
:1034C400002D55D0012D00F0E180002384F8383020
:1034D40094F84850002D58D0012D00F0C5800023E9
:1034E40084F8483094F85850002D5BD0012D00F03A
:1034F400A980002384F8583094F86850002D5ED0D9
:10350400012D00F08D80002384F8683094F8785001
:1035140025B9236F1B78012B6BD038BD012D6ED0DC
:10352400002384F8783038BD23681B78012BB3D18D
:10353400237204F0D7F8257E6060002DAFD1236993
:103544001B78012BB0D1237604F0CCF894F82850E2
:103554006061002DACD1236A1B78012BAED184F8B5
:10356400283004F0BFF894F838506062002DA9D1D7
:10357400236B1B78012BABD184F8383004F0B2F8FC
:1035840094F848506063002DA6D1236C1B78012B5E
:10359400A8D184F8483004F0A5F894F85850606431
:1035A400002DA3D1236D1B78012BA5D184F85830AD
:1035B40004F098F894F868506065002DA0D1236E4B
:1035C4001B78012BA2D184F8683004F08BF8606674
:1035D4009CE7606804F07EF8B0F5967FE06000D365
:1035E400657223681B78002B7FF456AFE360238158
:1035F40052E784F8783004F075F8606738BD606F7E
:1036040004F068F8236FB0F5967FE06728BF84F86C
:1036140079501B78002B80D1E367A4F8783038BD4B
:10362400606E04F057F8B0F5967FE06601D384F835
:103634006950236E1B78002B7FF468AFE366A4F80F
:10364400683063E7606D04F045F8B0F5967FE06597
:1036540001D384F85950236D1B78002B7FF44CAFB1
:10366400E365A4F8583047E7606C04F033F8B0F52C
:10367400967FE06401D384F84950236C1B78002BB7
:103684007FF430AFE364A4F848302BE7606B04F0B8
:1036940021F8B0F5967FE06301D384F83950236BA9
:1036A4001B78002B7FF414AFE363238710E7606A71
:1036B40004F010F8B0F5967FE06201D384F8295045
:1036C400236A1B78002B7FF4F9AEE3622385F5E6C9
:1036D400606903F0FFFFB0F5967FE06100D3657683
:1036E40023691B78002B7FF4DFAEE3612383DBE6E1
:1036F400943100202DE9D043002200234FF000082C
:103704004FF0010901260E278AB069460446CDE927
:103714000023CDE90223CDE90423CDE90689CDE9CF
:10372400086700F0A5FF08B172B6FEE7204601F075
:1037340031F808B172B6FEE72046022101F04EF9D5
:1037440008B172B6FEE70AB0BDE8D08302204FF498
:1037540080312DE9F04F4FF4E012002501244FF0A1
:1037640001084FF480394FF48036042702234FF4C4
:10377400C06A4FF0400B95B0CDE90E0106A8CDE923
:103784000C55CDE90155CDE90355CDE90689CDE9BF
:103794000867CDE91023CDE912AB0A9500950B9487
:1037A40001F05AFE08B172B6FEE703464FF00F0867
:1037B4004FF0020900264FF4806768460221CDE9E4
:1037C4000089CDE90267049302F00EF908B172B6DC
:1037D400FEE7024B1C6015B0BDE8F08F700042425A
:1037E4002DE9F04300248FB000F08AFEFFF7AEFF0E
:1037F400CDE90A44CDE90C44934B224699694FF034
:10380400000841F040019961986946F6FF7100F0A3
:103814004000039003989D698C4845F004059D6120
:103824009D694FF0030905F004050495049D9D6905
:10383400874E45F010059D619D6905F010050595BD
:10384400059D9D6945F020059D619D6905F0200554
:103854000695069D9D6945F008059D619B6903F0E9
:1038640008030793079B01F0F3FD2246B021794832
:1038740001F0EEFD22464FF46871774801F0E8FD4F
:1038840001224FF48061734801F0E2FD22463321A6
:10389400724801F0DDFD46F6FF7201236B480AA968
:1038A400CDE90A23CDE90C8901F0C6FC4FF49662F8
:1038B400012368480AA9CDE90A23CDE90C8901F05E
:1038C400BBFC4FF46872012363480AA9CDE90A23BB
:1038D400CDE90C8901F0B0FC332201235F480AA929
:1038E400CDE90A23CDE90C8901F0A6FC8822002346
:1038F4005A480AA9CDE90A230C9401F09DFC40F230
:103904000773574A3046CDE90A44CDE90C44CDE962
:103914000844C6E901443461B4613260F36002F0E2
:1039240023F908B172B6FEE74FF4805730460AA96E
:103934000A9702F0CBF908B172B6FEE7002400251D
:10394400304608A9CDE9084502F064FA034608B1F7
:1039540072B6FEE740F2E731424E434ACDE90A002F
:10396400CDE90C00CDE908003046C6E90133F16029
:103974003361B361326002F0F7F808B172B6FEE762
:1039840030460AA90A9702F0A1F908B172B6FEE717
:10399400304608A9CDE9084502F03CFA034608B1CF
:1039A40072B6FEE70C224FF4E13630483049C0E9E4
:1039B4000163C0E90333C0E906330160426102F0E8
:1039C4005FFA034608B172B6FEE759200122294E78
:1039D4002949C6E901033046CDE90A33CDE90C3360
:1039E400CDE90833C6E90433B3613160F26002F013
:1039F400BBF808B172B6FEE730460AA90A9702F08E
:103A040065F908B172B6FEE7304608A9CDE9084564
:103A140002F000FA08B172B6FEE7002309204FF461
:103A240080724FF48031154C154D6060A2612046C0
:103A3400A3832560C4E902332161636100F096FD2C
:103A44000546F8B172B6FEE70010024000180140C6
:103A540008580020000801400010014000140140F3
:103A640000040040BC5700200008004054580020C7
:103A7400003801409C580020002C0140E8580020E8
:103A840000640040204604F011FB2046FFF732FE9C
:103A9400FFF7D6FC03F09AFE04F04EF804F090F819
:103AA40002F024FF03F086F802F050FC03F0B0F9B2
:103AB400FCF7B4FFFFF71AFA01221F4B1A7000F04B
:103AC40087FCFFF7D7F9E8B20721013503F0A2F824
:103AD400082DF8D10124194B20461C7004F0F4FA87
:103AE4002146204604F0F6FA00232246214600949B
:103AF4001846019304F052FA114C124E124D03F081
:103B0400FFF802F0BBFE02F007FC04F013F800F02B
:103B140015FD2060FFF746FA00F010FD22683060C2
:103B2400831A2B60FFF78EFCFCF784FF04F016FB6E
:103B340004F0CEFBE3E700BFB01600209858002045
:103B44005058002004580020E458002072B6FEE7C4
:103B54000E4B82B09A690E4942F001029A619A6949
:103B640002F001020092009ADA6942F08052DA61AE
:103B7400DB6903F080530193019B4B6823F0E063FE
:103B840043F000734B6002B0704700BF0010024066
:103B940000000140D0B500240268224B86B09A424E
:103BA400CDE90244CDE9044401D006B0D0BD4FF4C0
:103BB4000066002703F5D633DA6902A942F00072E1
:103BC400DA61DA69184802F000720092009A9A6980
:103BD40042F004029A619B69CDE9026703F0040391
:103BE4000193019B4FF480560227049401F024FBB7
:103BF400032302A90C480593CDE9026701F01CFBDD
:103C040022462146132001F04FF8132001F084F8D6
:103C140022462146142001F047F8142001F07CF8D4
:103C240006B0D0BD006400400008014010B5264A2B
:103C3400036884B0934207D0244A934219D0244A9B
:103C440093422BD004B010BD0022224B11469C6934
:103C5400192044F400649C619B6903F4006301939C
:103C6400019B01F021F8192004B0BDE8104001F0D7
:103C740053B8184B0022D869032140F00200D861E0
:103C8400DB691D2003F002030293029B01F00CF890
:103C94001D2004B0BDE8104001F03EB80D4B0022D9
:103CA400D869022140F00400D861DB691E2003F0CA
:103CB40004030393039B00F0F7FF1E2004B0BDE848
:103CC400104001F029B800BF002C0140000400405E
:103CD400000800400010024030B500240268214B67
:103CE40087B09A42CDE90244CDE9044401D007B03B
:103CF40030BD40200221032503F558439A6942F45C
:103D040080429A619A6902F480420092009A9A6908
:103D140042F008029A619B69CDE9020103F00803AD
:103D2400019302A91048019B059501F085FA8022B0
:103D3400002302A90C48CDE90223049401F07CFA83
:103D44000A4822464368012143F0E06343F0040338
:103D54004360252000F0A8FF252000F0DDFF07B018
:103D640030BD00BF00380140000C0140000001409C
:103D7400FEE700BFFEE700BFFEE700BFFEE700BFAF
:103D8400FEE700BF704700BF704700BF704700BF29
:103D940000F0C8BB014800F04BBE00BFE85800204B
:103DA400014800F045BE00BFE8580020064B1B68E0
:103DB4001A69D10702D5DA68D20700D470476FF0C8
:103DC40001021A6103F06AB89C580020064B1B6874
:103DD4001A69D10702D5DA68D20700D470476FF0A8
:103DE40001021A6102F0CEBD08580020064B1B6880
:103DF4001A69D10702D5DA68D20700D470476FF088
:103E040001021A6102F0E0BABC570020014802F036
:103E140055B900BF545800200D49034610B50D4A4A
:103E24000D4C0868121B20B10344934207D80B6061
:103E340010BD0A4C2046034493420C60F7D904F0A9
:103E4400BBFF0C2203464FF0FF301A6010BD00BFC9
:103E5400143200200000012000080000F895002022
:103E6400704700BF38B52C4D2B78002B4AD12B4C12
:103E740020780138C0B20721207002F0CBFE2078F0
:103E840000210130C0B202F0C5FE002220781146A4
:103E940002F010FF00220121207802F00BFF002223
:103EA4000221207802F006FF00220321207802F08C
:103EB40001FF0122207800211044C0B202F0FAFE72
:103EC4000122207811461044C0B202F0F3FE012210
:103ED400207802211044C0B202F0ECFE01222078C6
:103EE40003211044C0B202F0E5FE0D4A2178137894
:103EF400994204D101210B44DBB213702970082BC1
:103F040005D038BD00230720044C2B70B3E70022F2
:103F1400044B1A7038BD00BF49000020183200203D
:103F2400193200204A0000202DE9F04F002085B00E
:103F340003F08AF903F0A6F9642000F005FB0024DD
:103F4400E5B22846002102F065FE0134284600212E
:103F540003F0FAFD082CF3D1002702F0D1FE02F0A1
:103F64008DFC02F0D9F96420B8463E4600F0ECFA24
:103F7400DFF84093F8B203F067F90024E5B228466D
:103F8400314602F089FE01343146284602F034FEFF
:103F9400082CF3D1B8F1000F40F0CB800136F6B213
:103FA4000D2E94BF4FF000084FF0010899F800302F
:103FB400002B00F0BA80FFF755FF013702F0A0FE96
:103FC40002F05CFC02F0A8F91E2000F0BDFA3F2FBD
:103FD400D0D10024E0B22F21013403F02FFA082CB1
:103FE400F8D11E2000F0B0FA3F24E0B203F02CF91F
:103FF400013C642000F0A8FA2D2CF6D14FF0000803
:10400400DFF8B492C346C24647464546CDE9028826
:10401400CDE90088A44E78E01FB93846090103F0C1
:1040240093FDB9F84A3063B904F11503DBB2F15CCE
:10403400002900F08980009B1BB90120090103F0CD
:1040440083FDB9F84C3063B904F12903DBB2F15CA8
:10405400002900F01081019B1BB90220090103F023
:1040640073FDB9F84E3063B904F13D03DBB2F15C82
:10407400002900F00681029B1BB90320090103F00B
:1040840063FDB9F8503063B904F15103DBB2F15C5C
:10409400002900F0FC80039B1BB90420090103F0F4
:1040A40053FDB9F852306BB904F16503DBB2F15C2E
:1040B400002900F0F280BAF1000F03D105200901B4
:1040C40003F042FDB9F8543063B904F17903DBB26B
:1040D400F15C00293ED0BBF1000F03D10620090199
:1040E40003F032FDB9F8563053B9733CE4B2315D94
:1040F400B1B3B8F1000F03D10720090103F024FD87
:104104000A2000F021FAFF2D34D0B9F848306A1C97
:104114002C46D5B2002B84D1715D00297FF47CAF8D
:10412400084603F011FD01277BE702F0E9FD0137A2
:1041340046E7B8F1010F7FF439AF013E16F0FF06F0
:1041440008BF4FF0020831E7012003F0FDFC012312
:10415400009376E7062003F0F7FC4FF0010BC1E76C
:10416400072003F0F1FC0A2000F0EEF9FF2D4FF0D8
:104174000108CAD1642000F0E7F92021002003F0EF
:104184005DF94721012003F059F94521022003F08C
:1041940055F94E21032003F051F95421042003F072
:1041A4004DF94C21052003F049F94521062003F07F
:1041B40045F92021072003F041F90024E5B22846FF
:1041C4000122002102F076FD012228461444114602
:1041D40002F070FD082CF1D102F092FD02F04EFBCA
:1041E40002F09AF84FF47A7000F0AEF94D210020F5
:1041F40003F024F94F21012003F020F94E2102207D
:1042040003F01CF95321032003F018F9542104206E
:1042140003F014F94521052003F010F9522106207A
:1042240003F00CF92021072003F008F900240122EF
:10423400E5B228460221144402F03CFD284601223E
:10424400032102F037FD082CF1D102F059FD02F0F0
:1042540015FB02F061F84FF47A7000F075F903F081
:1042640023F80122114B1A7003F03CFA104B18602A
:1042740005B0BDE8F08F022003F066FC0123019332
:10428400EFE6032003F060FC01230293F9E6042027
:1042940003F05AFC0123039303E7052003F054FCC5
:1042A4004FF0010A0EE700BF689700082032002093
:1042B400105900204A0000203857002010B5322140
:1042C4003F4803F011FAA8BB3E4B93F8BC20012AE7
:1042D40028D0022A04D093F8BA20012A0BD010BDAA
:1042E4000022394983F8BC200A78013A0A7093F80D
:1042F400BA20012AF3D1002209203449DA74087063
:1043040083F82B2083F8432083F85B2083F8732001
:1043140083F88B2083F8A32083F8BB20BDE81040EA
:1043240002F0C2BF0022284983F8BC200A78013277
:104334000A70D0E701224321002003F0D9F80222B9
:104344004121002003F0D4F803224E21002003F081
:10435400CFF804225F21002003F0CAF80522492186
:10436400002003F0C5F806224421002003F0C0F821
:1043740001224C21072003F0BBF80222432107202D
:1043840003F0B6F803224421072003F0B1F8042215
:104394005F21072003F0ACF80B4C052242210720D3
:1043A40003F0A6F806224C21072003F0A1F8207898
:1043B40002F04AFF0720217802F0C2FF84E700BF21
:1043C4001C320020A43300204800002020320020AA
:1043D4000023F0B51F4683B0214C224E224D019399
:1043E4002378092B1ED8DFE803F02905341D1D1D91
:1043F4001D1D1D278DF8037001F08EFFB37C4FF453
:104404007A71012B284608BF8DF8033003F06CF94C
:1044140040B19DF8033003F0FF02EBB1012A01D152
:1044240002232370322101A803F05EF970B902F06F
:1044340025FA01F071FFD3E703B0F0BDFFF774FD77
:10444400322101A803F050F90028F0D002F058FC02
:10445400EDE7FFF733FFE5E709232370E2E700BF49
:1044640020320020A433002010590020002103E052
:104474000B4B5B58435004310A480B4B42189A4289
:10448400F6D30A4A02E0002342F8043B084B9A425E
:10449400F9D3FFF7E5FC04F095FCFFF7A1F97047A9
:1044A4007CD7000800000020B4000020B8000020E1
:1044B400F4950020FEE7000038B54FF47A730D4AF6
:1044C400054611780C4AB3FBF1F31268B2FBF3F022
:1044D40000F030FC08B90F2D01D9012038BD044685
:1044E400024629464FF0FF3000F0DEFB034B204626
:1044F4001D6038BD4B000020440000204C0000200B
:10450400074A08B51368032043F01003136000F052
:10451400B9FB0020FFF7D0FFFFF71AFB002008BD0E
:1045240000200240034A044B11681B780B441360BB
:10453400704700BF145900204B000020014B18683D
:10454400704700BF1459002038B50446FFF7F6FF42
:10455400631C054602D0044B1B781C44FFF7EEFF96
:10456400401BA042FAD338BD4B00002000287DD068
:1045740070B590F820300446002B74D0226813687C
:1045840043F001031360FFF7D9FF054604E0FFF78A
:10459400D5FF401B0A285DD823685A68D107F6D591
:1045A4001A6822F002021A60FFF7C8FF054604E009
:1045B400FFF7C4FF401B0A284CD823685A689207A7
:1045C400F6D4227E0025012A1A684FF001060CBF9A
:1045D40042F0800222F080021A60627E012A1A6888
:1045E4000CBF42F0400222F040021A60A27E012A6F
:1045F4001A680CBF42F0200222F020021A60E27E08
:10460400012A1A680CBF22F0100242F010021A604C
:10461400227F012A1A680CBF42F0080222F0080225
:104624001A60627F012A1A680CBF42F0040222F069
:1046340004021A602169D4E9022002430A43606932
:104644006168024301390A43DA61656284F82060D3
:10465400284670BD0522636A012043F40033636277
:1046640084F8202070BDFFF795FA87E70120704792
:1046740090F82020013A012A06D903465A6A0120FB
:1046840042F480225A62704770B40125404BD3F83B
:1046940000222A43C3F80022D3F8002222F47C52D9
:1046A400C3F80022D3F80022486A42EA0022C3F881
:1046B40000224A69D3F81C4202F01F0005FA00F0F8
:1046C40024EA0004C3F81C42CD69C443002D45D13B
:1046D400D3F80C52D2002540C3F80C52CB688D8815
:1046E4008E6845EA03450B8802F1804202F5C84210
:1046F40043EA0643C2F84052C2F844328B69244A62
:1047040033BBD2F804322340C2F804320B69C3B974
:104714001F4BD3F814221440C3F814420B6A012B24
:1047240005D11B4AD2F81C321843C2F81C02184A9D
:10473400002070BCD2F8003223F00103C2F800322A
:104744007047134AD2F814320343C2F81432E5E72F
:10475400D2F804320343C2F80432D7E7012DCDD195
:10476400D3F80C52D2000543C3F80C520B688D8861
:104774008E6845EA03458B8902F1804202F5C842FE
:1047840043EA0643C2F84052C2F84432B6E700BFD7
:104794000064004070B590F820300446012B06D028
:1047A4000126436A43F400234362304670BDDEB2FF
:1047B4000223026880F82030136823F00103136099
:1047C400FFF7BCFE054604E0FFF7B8FE431B0A2BC7
:1047D40008D823685B6813F00103F5D11E466362B1
:1047E400304670BD0522636A304643F40033636289
:1047F40084F8202070BD00BF70B4044690F82000F7
:10480400266801380128B56834D815F0E05F38D03F
:10481400C5F30165032D44D00120A84018608B68BE
:10482400002B35D0C8684C68034305F1180043EAEF
:10483400C403000133500B6906EB0514C4F884313A
:10484400097D2B01012905D1D4F8841141F480712B
:10485400C4F8841151683344C3F88C1112680020E1
:10486400C3F88821D4F8803143F00103C4F88031BF
:1048740070BC7047636A012043F48023636270BC98
:104884007047636A012043F40013636270BC70478D
:104894000C68C86805F1180340EA44501B01F05045
:1048A400C9E7636A012043F40003636270BC704784
:1048B40090F82030013B012B01D900207047036898
:1048C40098689A689B681201C0F3806048BF013001
:1048D400DB00F3D5013070472DE9F04190F820500A
:1048E4000446013D012D66D8006849B9C568AE0784
:1048F40009D1636A012043F400136362BDE8F081C7
:104904000569AD07F5D000EB0115D5F8B0710E01BE
:1049140007F004079760002F54D0D5F8B071FF0852
:104924005760D5F8B0E13044D5F8B4C1D5F8B471C6
:10493400D5F8B451D0F8B8810EF0020E0CF00F0087
:10494400C7F307272D0CC2E903E0C2E9055783F832
:10495400008022683244D2F8B821120A5A702268C0
:104964003244D2F8B821120C9A7022683244D2F838
:10497400B821120EDA7022683244D2F8BC211A71BE
:1049840022683244D2F8BC21120A5A712268324495
:10499400D2F8BC21120C9A7122681644D6F8BC21B4
:1049A400120EDA71226891B9D368084643F02003E5
:1049B400D360BDE8F081636A012043F4802363621D
:1049C400BDE8F081D5F8B0717F0D1760A9E71369D0
:1049D400002043F020031361BDE8F08190F820200B
:1049E4000346013A012A05D95A6A012042F4802279
:1049F4005A62704702680020536919435161704735
:104A0400704700BF704700BF704700BF704700BFCA
:104A1400704700BF704700BF704700BF704700BFBA
:104A2400704700BF704700BF704700BF704700BFAA
:104A34002DE9F84F036805465C69D3F8048014F047
:104A440001069F68D3F80CB0D3F810A0D3F81890DF
:104A540025D017F0010640F08F804FF400524FF438
:104A64008041F8050DD54FF480702B689860BB0524
:104A740000F1BE80780500F1E4803B0540F1F08050
:104A84000E46F8030BD54FF480322B68B9039A60B5
:104A940000F1BA807A0340F1CF8046F4004627073C
:104AA40002D51BF0100F61D1600703D51BF0080F6E
:104AB40040F08C80A10704D52B68DB689A0740F08E
:104AC4008C80630602D51AF0100F49D1A70602D5CF
:104AD4001AF0080F73D1E00603D52B681B699907F8
:104AE40062D1A20302D518F0100F61D1E30302D5FD
:104AF40018F0080F75D1270405D518F0040F06D156
:104B04002B6804225A60002E46D1BDE8F88FE005D8
:104B140004D519F0010F18BF46F00106A10504D50C
:104B240019F0020F18BF46F00206620504D519F009
:104B3400040F18BF46F004062305E1D519F07009E7
:104B4400DED0B9F1400F00F09A8061D8B9F1200F9E
:104B540000F08380B9F1300F68D146F020065FE0A1
:104B640010222B6846F480661A61AFE710222B6886
:104B740046F40076DA6097E701229A60BB073BD4DB
:104B84007E0760D417F008066ED04FF440524FF4FD
:104B9400A0414FF4805664E76B6A28461E436E6258
:104BA400FFF744FFBDE8F88F2846FFF737FF98E783
:104BB40010222B6828465A60FFF734FF96E7082234
:104BC4002B6828461A61FFF72BFF84E708222B681D
:104BD4002846DA60FFF720FF6CE7284603F090FAD6
:104BE4006FE708222B6828465A60FFF71DFF82E70B
:104BF4002846FFF707FF44E7FFF702FF00264FF4BC
:104C040000524FF480412CE72846FFF7FDFE46E7AB
:104C1400B9F1500F1ED0B9F1600F08BF46F4807689
:104C24002B689A6922F070029A616AE7B9F1100F51
:104C3400F6D146F00806F3E73B031CD546F480366C
:104C44002DE716461DE74FF420524FF490414FF4E0
:104C5400006606E746F08006E2E746F01006DFE766
:104C64002846FFF7D5FE0CE7FFF7D0FE4FF40052BD
:104C74004FF48041F5E62846FFF7CCFE0FE746F0F7
:104C84004006CDE74FF6FF01064A0302D06803F45D
:104C9400E0630840034343F0BF6343F40033D3604D
:104CA400704700BF00ED00E0194B30B4DB68C3F37C
:104CB4000223C3F10705042D03F1040428BF0425CE
:104CC400062C19D94FF0FF34033B9C4022EA04021E
:104CD4004FF0FF34AC4021EA04019940002841EA36
:104CE40002010CDB090100F16040C9B200F561402A
:104CF40080F8001330BC704700221346E8E7054BE8
:104D040000F00F000901C9B20344197630BC7047A2
:104D140000ED00E0FCEC00E0002807DB012300F0DC
:104D24001F01034A8B40400942F82030704700BFFE
:104D340000E100E00138B0F1807F0DD230B4F025FD
:104D440000220721054B064C586084F82350104676
:104D540030BC9A60196070470120704710E000E091
:104D640000ED00E090F821200346022A06D0042139
:104D74000022816380F8202001207047012170B453
:104D84004FF480751A681E6C1468B14024F00E0448
:104D940014601468002024F001041460DA6B51607C
:104DA4001D8470BC704700BF08B590F821200346ED
:104DB400022A03D0042201209A6308BD02684548F0
:104DC4001168824221F00E011160116821F0010185
:104DD4001160414924D98A4255D014318A425ED0A7
:104DE40014318A425DD014318A4253D014318A423C
:104DF40060D014318A4263D0824267D001F5677172
:104E04008A4240D014318A4249D014318A4248D06F
:104E140014318A4214BF4FF480324FF4805233E08D
:104E24008A4222D014318A4237D014318A423BD08C
:104E340014318A422BD014318A4238D014318A4238
:104E44003BD082423FD001F567718A420DD01431C4
:104E54008A4222D014318A4226D014318A4214BFA5
:104E64004FF480324FF4805200E001221B494A6023
:104E74004FF480715A6B19841AB118469047002078
:104E840008BD104608BD012215494A60F0E74FF4F9
:104E94008052EBE74FF48052F6E71022E6E7102247
:104EA400F2E74FF48072EFE74FF48072DEE74FF4DD
:104EB4008032DBE74FF48032E6E74FF48012D5E727
:104EC4004FF48012E0E74FF08072CFE74FF080722A
:104ED400DAE700BF80000240080002400000024000
:104EE400000402402DE9F84F6B4E8046307E0128C5
:104EF40000F0C7801F4601230D4691463376FFF725
:104F04001DFB4CF2503B0446DFF890A105E0FFF78F
:104F140015FB001B584500F2B280DAF80C30DB07B1
:104F2400F5D4DAF80C30980644BF2023CAF80C30C4
:104F34005A4BDA68D10653D4DA69D20750D4DB6805
:104F440013F0040A4CD1B8F1010F06D0B8F1020FE6
:104F54000CBF4FF002084FF00408504C05EB480812
:104F64000022CAF1200CF26107FA0CFC29FA0AF0BB
:104F7400AAF12001226940EA0C0027FA01F1084352
:104F840042F0010280B222612880FFF7D7FA8346FB
:104F940007E0FFF7D3FA4CF25033A0EB0B00984232
:104FA40065D8E268D007F4D4E268910644BF2022B1
:104FB400E260E268D20632D4E269D3072FD4E06813
:104FC40010F004002BD12269023522F0010245457C
:104FD4000AF1100A2261C3D100233376BDE8F88FA9
:104FE4002E4BDB6813F010034ED104212B4AD268F8
:104FF400550704D50B46F26942F00102F261274AD3
:10500400D169CC0707D5F16941F00401F161D16997
:1050140021F00101D161214A0120D360DCE71F4B5B
:10502400DB6813F0100328D0F369142143F0020362
:10503400F3611023194AD268500704D50B46F2696C
:1050440042F00102F261154AD169C90707D5F16935
:1050540041F00401F161D16921F00101D1610F4AEC
:105064000120D360136923F001031361B4E72369BA
:10507400032023F001032361AEE70421DAE70320D0
:10508400AAE70220BDE8F88FF369142143F0020374
:10509400F3611023AAE700BF185900200020024042
:1050A400064B186910F0800006D00549054A59607E
:1050B4005A601869C0F3C010704700BF0020024056
:1050C40023016745AB89EFCD70B50446FFF736FA87
:1050D4000546264E601C36D1244AD368D907FCD431
:1050E400224BDA68960644BF2022DA601F4BDA6846
:1050F400D50607D4DA69D40704D4D86810F00400BC
:1051040000D170BD194BDB6813F0100326D10421C4
:10511400164AD268500705D50B461549CA6942F0AC
:105124000102CA61114AD169C90708D51048C16989
:1051340041F00401C161D16921F00101D1610B4A3F
:105144000120D36070BDF368DB07C9D524B1FFF734
:10515400F5F9401BA042BDD9032070BD04481421B9
:10516400C269102342F00202C261D1E7002002406A
:10517400185900202DE9F8432D4E337E012B54D0CD
:105184000123337603688146022B31D04CF2503030
:105194008846FFF799FF80BB4FF0FF33C8F8003013
:1051A400D9E9025305EBC3239D4226D20746214C7D
:1051B40007E005F50065D9E9023203EBC223AB42EF
:1051C4001CD9F76123694CF2503043F00203236188
:1051D4006561236943F040032361FFF775FF236989
:1051E40023F0020323610028E3D0C8F8005005E04F
:1051F4004CF25030FFF768FF20B1012000233376D2
:10520400BDE8F8830B4CF06123694CF2503043F055
:1052140004032361236943F040032361FFF754FF30
:10522400236923F004032361E8E70220BDE8F8833F
:1052340018590020002002402DE9F04F0C6885B079
:10524400002C00F09E800026DFF8F4C13346774F2F
:10525400DFF8F081DFF8F0E1009004E0013334FA84
:1052640003F200F08E8001229A4032EA040002EA3E
:105274000405F3D14C68122C00F28680122C0CD851
:10528400DFE804F08ABFBC0A0B0B0B0B0B0B0B0BF8
:105294000B0B0B0B0BB9B6000026FF2D00F283801D
:1052A400DDF800904FEA830A0F24D9F8002004FAAD
:1052B4000AFB22EA0B0206FA0AFA42EA0A02C9F8CF
:1052C4000020D1F8049019F0805F00F08F80DCF8A2
:1052D40018A023F003024AF0010ACCF818A0DCF865
:1052E40018A002F180420AF0010ACDF80CA002F5E0
:1052F400803203F0030ADDF80CB04FEA8A0AD2F8D0
:1053040008B004FA0AF42BEA04000190009C48480F
:10531400844213D000F5806084427DD045488442A5
:1053240071D0454884420CBF4FF0030B4FF0040B7F
:1053340001980BFA0AFA40EA0A000190019819F45C
:10534400803F90603A6814BF2A43AA433A607A685F
:1053540019F4003F14BF2A43AA437A60BA6819F4C7
:10536400801F14BF2A43AA43BA6019F4001FFA68C5
:1053740039D01543FD600C68013334FA03F27FF42D
:1053840072AF05B0BDE8F08F444505D013D974451C
:1053940002D02A48844280D18C68E4B9FF2D4FF0B2
:1053A40004067FF67DAF009A4FEA830AAAF1200A29
:1053B40002F1040978E7DFF894904C45ECD009F544
:1053C40070294C45E8D0A9F580194C457FF465AFA8
:1053D4008C68002CE2D00098012C4FF008060CBF1A
:1053E4000261426159E722EA0505FD600C6835E770
:1053F400CE680C3651E7CE6804364EE7CE680836E0
:105404004BE7CE6849E74FF0020B01980BFA0AFA12
:1054140040EA0A00019091E74FF0010B01980BFA62
:105424000AFA40EA0A00019088E700BF000401403C
:105434000008014000100140001401400000321037
:105444000010024000002210000031100000121071
:1054540002B9090401617047002800F0FF812DE9B9
:10546400F04103680446DD0782B035D5AA494A688D
:1054740002F00C02042A00F039814A6802F00C029E
:10548400082A00F02F81A368B3F5803F10D0002BC9
:1054940000F06781B3F5A02F00F0E2819E4B1A68FB
:1054A40022F480321A601A6822F480221A6004E01E
:1054B400994A136843F480331360FFF73FF8964E1C
:1054C400054605E0FFF73AF8401B642800F24581E1
:1054D40033689A03F6D523689F0728D58E4A516806
:1054E40011F00C0F00F0E180516801F00C01082963
:1054F40000F0D7806369002B00F071810122874B93
:10550400854E1A60FFF71AF8054605E0FFF716F80E
:10551400401B022800F2218133689807F6D53368CE
:10552400A26923F0F80343EAC203336023681A072D
:1055340029D45E074CD5784BDA69D50000F1D080C8
:105544000125DA6942F08052DA61DB6903F08053A5
:105554000093009B724B1A68D00540F1ED802369DB
:10556400012B00F06381002B00F01581052B6A4BA1
:105574001A6A00F0B88122F001021A621A6A22F053
:1055840004021A6257E1E369002B00F099800122BA
:10559400644B614E1A60FEF7D1FF054605E0FEF745
:1055A400CDFF401B022800F2D880736A9B07F6D512
:1055B4005D4B5E4A1B68A2FB03235B0A019300BF99
:1055C400019B5A1E0192002BF9D123685E07B2D4C5
:1055D400E36A002B44D0504A5168C80305D551688A
:1055E40001F00C01082900F09781022B40F008819A
:1055F400494B1A68D20005D5DB6A626B03F0F003ED
:10560400934259D100224A4B434D1A60FEF796FF4C
:10561400064605E0FEF792FF801B642800F29D8099
:105624002B681B01F6D40121EB6A626B23F0F003B3
:105634001343EB62EB6A206B3D4A23F4706303432C
:10564400EB621160FEF77AFF334E054605E0FEF784
:1056540075FF401B642800F2808033681F01F6D573
:10566400226AD2B12C4D696801F00C01082900F0BE
:105674004281022A4FF000012E4A00F0FE801160A0
:10568400FEF75CFF2C46054604E0FEF757FF401B7F
:10569400022862D823689B01F7D4002002B0BDE839
:1056A400F0815268D6033FF525AF1B4A126895076F
:1056B40026D56269012A23D0012002B0BDE8F08119
:1056C400184A154E1360FEF739FF054604E0FEF74D
:1056D40035FF401B022840D8736A9F07F7D474E74C
:1056E400002537E74A68D0037FF5CDAE0A4A126831
:1056F40091037FF5F1AEA268002A7FF4EDAEDBE7FB
:105704000549A0690A6822F0F80242EAC0020A6068
:105714001A077FF50EAF36E7001002400000424240
:10572400007000408004424244000020D34D6210C7
:1057340068004242600042421A681F4642F4807286
:105744001A60FEF7FBFE06463B68D9053FF507AF36
:10575400FEF7F4FE801B6428F6D9032002B0BDE8EE
:10576400F08103F1804303F504331A681E4622F4E2
:1057740080321A601A6822F480221A60FEF7DEFE74
:10578400054604E0FEF7DAFE401B6428E5D83368DA
:105794009B03F7D49FE603F1804303F504331A6AAD
:1057A4001F4622F001021A621A6A41F2883822F076
:1057B40004021A62FEF7C2FE064604E0FEF7BEFECD
:1057C400801B4045C9D83B6A9B07F7D4002D3FF4A2
:1057D400FFAE544AD36923F08053D361F8E6524AAA
:1057E400504E1360FEF7AAFE054604E0FEF7A6FE3F
:1057F400401B0228B1D833689907F7D4236896E68A
:105804000020484B4949DA6A1E4622F48032DA62A3
:105814000860FEF793FE054604E0FEF78FFE401B8A
:1058240064289AD833681801F7D419E73D4A136AF3
:1058340043F001031362FEF781FE41F28838064605
:10584400384F04E0FEF77AFE801B404585D83B6A5A
:105854009A07F7D5002D3FF4BBAEBAE70120704795
:1058640003F18043A3F53C331A6842F480221A60A2
:105874001A6842F480321A601FE61160FEF75EFE79
:10588400064605E0FEF75AFE801B02283FF665AF88
:105894002B689901F6D4636AB3F5803F09D1EA6AAB
:1058A40061680A43EA62EA6AE16822F00F020A4385
:1058B400EA6201201B4DA16A6A680B4322F4741248
:1058C4001B4913436B600860FEF738FE2C460546FF
:1058D40005E0FEF733FE401B02283FF63EAF236887
:1058E4009A01F6D5D9E642F004021A621A6A42F025
:1058F40001021A629FE7012A3FF4DEAE6B68626A16
:1059040003F4803191427FF4D7AEA26A03F470139A
:1059140093427FF4D1AEC0E6D26AD1033FF5CCAE58
:1059240063E600BF001002400000424268004242A9
:1059340060004242F0B589B06C46254B0FCB07C4DA
:10594400244A238008AC0FCA04E90F0022494A689C
:1059540002F00C03042B2CD0082B27D1C2F3834371
:105964002344D20313F8204C26D5CB6A08AAC86A6C
:1059740003F00F03134413F8102CC30321D5CB6A8F
:10598400CE6A164DC6F303260236A6FB0467A6FBB1
:105994000501C3F30313013305FB0711A3FB022322
:1059A400FAF77EFE0D2C02D1400800E00C4809B045
:1059B400F0BD0A4809B0F0BD0A4800FB04F009B084
:1059C400F0BD064800FB04F0B0FBF2F0EAE700BFCC
:1059D400AC960008689800080010024040787D01E9
:1059E40000127A0000093D00002800F08C80494A2A
:1059F4002DE9F0411368044603F007038B420D467A
:105A04000CD2136823F007030B431360136803F0ED
:105A140007038B4202D00120BDE8F0812368980778
:105A240014D5590704D53C494A6842F4E0624A60F7
:105A34001A0704D538494A6842F460524A60364924
:105A4400A0684A6822F0F00202434A60DF0720D5CA
:105A54006268314B012A1B6857D0022A50D099073B
:105A6400D9D52D4E41F28838736823F003031343CC
:105A74007360FEF763FD074604E0FEF75FFDC01B9D
:105A8400404545D87368626803F00C03B3EB820F9A
:105A9400F3D1204A136803F00703AB4209D9136812
:105AA40023F007032B431360136803F00703AB428F
:105AB400B1D123685A0706D51749E0684A6822F429
:105AC400E06202434A601B0707D5134A2169536801
